{
  "_format": "hh-sol-artifact-1",
  "contractName": "Project",
  "sourceName": "contracts/Project.sol",
  "abi": [
    {
      "inputs": [
        {
          "internalType": "address payable",
          "name": "_projectCreator",
          "type": "address"
        },
        {
          "internalType": "string",
          "name": "_projectName",
          "type": "string"
        },
        {
          "internalType": "string",
          "name": "_projectDescription",
          "type": "string"
        },
        {
          "internalType": "uint256[]",
          "name": "_timeline",
          "type": "uint256[]"
        },
        {
          "internalType": "uint256",
          "name": "_targetAmount",
          "type": "uint256"
        },
        {
          "internalType": "uint256",
          "name": "_minimumContribution",
          "type": "uint256"
        },
        {
          "internalType": "uint256",
          "name": "_fundraisinDeadline",
          "type": "uint256"
        }
      ],
      "stateMutability": "nonpayable",
      "type": "constructor"
    },
    {
      "anonymous": false,
      "inputs": [
        {
          "indexed": false,
          "internalType": "uint256",
          "name": "requestId",
          "type": "uint256"
        },
        {
          "indexed": false,
          "internalType": "string",
          "name": "description",
          "type": "string"
        },
        {
          "indexed": false,
          "internalType": "string",
          "name": "ipfsFileHash",
          "type": "string"
        },
        {
          "indexed": false,
          "internalType": "uint256",
          "name": "amount",
          "type": "uint256"
        },
        {
          "indexed": false,
          "internalType": "uint256",
          "name": "noOfVotes",
          "type": "uint256"
        },
        {
          "indexed": false,
          "internalType": "bool",
          "name": "isCompleted",
          "type": "bool"
        },
        {
          "indexed": false,
          "internalType": "address",
          "name": "reciptent",
          "type": "address"
        }
      ],
      "name": "FundWithdrawRequest",
      "type": "event"
    },
    {
      "anonymous": false,
      "inputs": [
        {
          "indexed": false,
          "internalType": "address",
          "name": "contributor",
          "type": "address"
        },
        {
          "indexed": false,
          "internalType": "uint256",
          "name": "amount",
          "type": "uint256"
        },
        {
          "indexed": false,
          "internalType": "uint256",
          "name": "currentTotal",
          "type": "uint256"
        }
      ],
      "name": "FundingReceived",
      "type": "event"
    },
    {
      "anonymous": false,
      "inputs": [
        {
          "indexed": false,
          "internalType": "address",
          "name": "voter",
          "type": "address"
        },
        {
          "indexed": false,
          "internalType": "uint256",
          "name": "voteCount",
          "type": "uint256"
        }
      ],
      "name": "VoteForFundWithdrawl",
      "type": "event"
    },
    {
      "anonymous": false,
      "inputs": [
        {
          "indexed": false,
          "internalType": "uint256",
          "name": "requestId",
          "type": "uint256"
        },
        {
          "indexed": false,
          "internalType": "string",
          "name": "description",
          "type": "string"
        },
        {
          "indexed": false,
          "internalType": "string",
          "name": "ipfsFileHash",
          "type": "string"
        },
        {
          "indexed": false,
          "internalType": "uint256",
          "name": "amount",
          "type": "uint256"
        },
        {
          "indexed": false,
          "internalType": "uint256",
          "name": "noOfVotes",
          "type": "uint256"
        },
        {
          "indexed": false,
          "internalType": "bool",
          "name": "isCompleted",
          "type": "bool"
        },
        {
          "indexed": false,
          "internalType": "address",
          "name": "reciptent",
          "type": "address"
        }
      ],
      "name": "WithdrawlSuccessful",
      "type": "event"
    },
    {
      "inputs": [],
      "name": "ProjectCurrentState",
      "outputs": [
        {
          "internalType": "enum Types.ProjectStates",
          "name": "",
          "type": "uint8"
        }
      ],
      "stateMutability": "view",
      "type": "function"
    },
    {
      "inputs": [],
      "name": "TotalvoteCount",
      "outputs": [
        {
          "internalType": "uint256",
          "name": "",
          "type": "uint256"
        }
      ],
      "stateMutability": "view",
      "type": "function"
    },
    {
      "inputs": [
        {
          "internalType": "uint256",
          "name": "_requestID",
          "type": "uint256"
        }
      ],
      "name": "VoteForWithdrawal",
      "outputs": [],
      "stateMutability": "nonpayable",
      "type": "function"
    },
    {
      "inputs": [
        {
          "internalType": "uint256",
          "name": "_requestID",
          "type": "uint256"
        }
      ],
      "name": "WithdrawRequestedAmount",
      "outputs": [],
      "stateMutability": "nonpayable",
      "type": "function"
    },
    {
      "inputs": [],
      "name": "amountRemaining",
      "outputs": [
        {
          "internalType": "uint256",
          "name": "",
          "type": "uint256"
        }
      ],
      "stateMutability": "view",
      "type": "function"
    },
    {
      "inputs": [
        {
          "internalType": "address",
          "name": "_contributor",
          "type": "address"
        }
      ],
      "name": "contribution",
      "outputs": [],
      "stateMutability": "payable",
      "type": "function"
    },
    {
      "inputs": [
        {
          "internalType": "address",
          "name": "",
          "type": "address"
        }
      ],
      "name": "contributorsList",
      "outputs": [
        {
          "internalType": "uint256",
          "name": "",
          "type": "uint256"
        }
      ],
      "stateMutability": "view",
      "type": "function"
    },
    {
      "inputs": [
        {
          "internalType": "string",
          "name": "_description",
          "type": "string"
        },
        {
          "internalType": "string",
          "name": "_IPFSfileHash",
          "type": "string"
        },
        {
          "internalType": "uint256",
          "name": "_amount",
          "type": "uint256"
        },
        {
          "internalType": "address payable",
          "name": "_reciptent",
          "type": "address"
        }
      ],
      "name": "createFundRequest",
      "outputs": [],
      "stateMutability": "nonpayable",
      "type": "function"
    },
    {
      "inputs": [],
      "name": "getProjectDetails",
      "outputs": [
        {
          "internalType": "address payable",
          "name": "projectStarter",
          "type": "address"
        },
        {
          "internalType": "uint256",
          "name": "minContribution",
          "type": "uint256"
        },
        {
          "internalType": "uint256[]",
          "name": "projectDeadline",
          "type": "uint256[]"
        },
        {
          "internalType": "uint256",
          "name": "goalAmount",
          "type": "uint256"
        },
        {
          "internalType": "uint256",
          "name": "currentAmount",
          "type": "uint256"
        },
        {
          "internalType": "string",
          "name": "title",
          "type": "string"
        },
        {
          "internalType": "string",
          "name": "desc",
          "type": "string"
        },
        {
          "internalType": "uint256",
          "name": "fundraisingDl",
          "type": "uint256"
        },
        {
          "internalType": "enum Types.ProjectStates",
          "name": "currentState",
          "type": "uint8"
        }
      ],
      "stateMutability": "view",
      "type": "function"
    },
    {
      "inputs": [],
      "name": "getRequestsCount",
      "outputs": [
        {
          "internalType": "uint256",
          "name": "",
          "type": "uint256"
        }
      ],
      "stateMutability": "view",
      "type": "function"
    },
    {
      "inputs": [],
      "name": "getVoterCount",
      "outputs": [
        {
          "internalType": "uint256",
          "name": "",
          "type": "uint256"
        }
      ],
      "stateMutability": "view",
      "type": "function"
    },
    {
      "inputs": [],
      "name": "minimumContribution",
      "outputs": [
        {
          "internalType": "uint256",
          "name": "",
          "type": "uint256"
        }
      ],
      "stateMutability": "view",
      "type": "function"
    },
    {
      "inputs": [],
      "name": "numOfWithdrawRequests",
      "outputs": [
        {
          "internalType": "uint256",
          "name": "",
          "type": "uint256"
        }
      ],
      "stateMutability": "view",
      "type": "function"
    },
    {
      "inputs": [],
      "name": "numberOfContributors",
      "outputs": [
        {
          "internalType": "uint256",
          "name": "",
          "type": "uint256"
        }
      ],
      "stateMutability": "view",
      "type": "function"
    },
    {
      "inputs": [],
      "name": "raisedAmount",
      "outputs": [
        {
          "internalType": "uint256",
          "name": "",
          "type": "uint256"
        }
      ],
      "stateMutability": "view",
      "type": "function"
    },
    {
      "inputs": [],
      "name": "refundInvestorsFund",
      "outputs": [
        {
          "internalType": "bool",
          "name": "",
          "type": "bool"
        }
      ],
      "stateMutability": "nonpayable",
      "type": "function"
    },
    {
      "inputs": [
        {
          "internalType": "uint256",
          "name": "",
          "type": "uint256"
        }
      ],
      "name": "withdrawRequests",
      "outputs": [
        {
          "internalType": "string",
          "name": "description",
          "type": "string"
        },
        {
          "internalType": "string",
          "name": "ipfsFileHash",
          "type": "string"
        },
        {
          "internalType": "uint256",
          "name": "amount",
          "type": "uint256"
        },
        {
          "internalType": "uint256",
          "name": "noOfVotes",
          "type": "uint256"
        },
        {
          "internalType": "bool",
          "name": "isCompleted",
          "type": "bool"
        },
        {
          "internalType": "address payable",
          "name": "reciptent",
          "type": "address"
        }
      ],
      "stateMutability": "view",
      "type": "function"
    }
  ],
  "bytecode": "0x60806040526000600960006101000a81548160ff021916908360028111156200002d576200002c62000185565b5b02179055506000600c55600754600d556000600e553480156200004f57600080fd5b5060405162002f4f38038062002f4f8339818101604052810190620000759190620004c2565b866000806101000a81548173ffffffffffffffffffffffffffffffffffffffff021916908373ffffffffffffffffffffffffffffffffffffffff1602179055508560019081620000c6919062000813565b508460029081620000d8919062000813565b508360039080519060200190620000f192919062000114565b5082600481905550816005819055508060088190555050505050505050620008fa565b82805482825590600052602060002090810192821562000153579160200282015b828111156200015257825182559160200191906001019062000135565b5b50905062000162919062000166565b5090565b5b808211156200018157600081600090555060010162000167565b5090565b7f4e487b7100000000000000000000000000000000000000000000000000000000600052602160045260246000fd5b6000604051905090565b600080fd5b600080fd5b600073ffffffffffffffffffffffffffffffffffffffff82169050919050565b6000620001f582620001c8565b9050919050565b6200020781620001e8565b81146200021357600080fd5b50565b6000815190506200022781620001fc565b92915050565b600080fd5b600080fd5b6000601f19601f8301169050919050565b7f4e487b7100000000000000000000000000000000000000000000000000000000600052604160045260246000fd5b620002828262000237565b810181811067ffffffffffffffff82111715620002a457620002a362000248565b5b80604052505050565b6000620002b9620001b4565b9050620002c7828262000277565b919050565b600067ffffffffffffffff821115620002ea57620002e962000248565b5b620002f58262000237565b9050602081019050919050565b60005b838110156200032257808201518184015260208101905062000305565b60008484015250505050565b6000620003456200033f84620002cc565b620002ad565b90508281526020810184848401111562000364576200036362000232565b5b6200037184828562000302565b509392505050565b600082601f8301126200039157620003906200022d565b5b8151620003a38482602086016200032e565b91505092915050565b600067ffffffffffffffff821115620003ca57620003c962000248565b5b602082029050602081019050919050565b600080fd5b6000819050919050565b620003f581620003e0565b81146200040157600080fd5b50565b6000815190506200041581620003ea565b92915050565b6000620004326200042c84620003ac565b620002ad565b90508083825260208201905060208402830185811115620004585762000457620003db565b5b835b8181101562000485578062000470888262000404565b8452602084019350506020810190506200045a565b5050509392505050565b600082601f830112620004a757620004a66200022d565b5b8151620004b98482602086016200041b565b91505092915050565b600080600080600080600060e0888a031215620004e457620004e3620001be565b5b6000620004f48a828b0162000216565b975050602088015167ffffffffffffffff811115620005185762000517620001c3565b5b620005268a828b0162000379565b965050604088015167ffffffffffffffff8111156200054a5762000549620001c3565b5b620005588a828b0162000379565b955050606088015167ffffffffffffffff8111156200057c576200057b620001c3565b5b6200058a8a828b016200048f565b94505060806200059d8a828b0162000404565b93505060a0620005b08a828b0162000404565b92505060c0620005c38a828b0162000404565b91505092959891949750929550565b600081519050919050565b7f4e487b7100000000000000000000000000000000000000000000000000000000600052602260045260246000fd5b600060028204905060018216806200062557607f821691505b6020821081036200063b576200063a620005dd565b5b50919050565b60008190508160005260206000209050919050565b60006020601f8301049050919050565b600082821b905092915050565b600060088302620006a57fffffffffffffffffffffffffffffffffffffffffffffffffffffffffffffffff8262000666565b620006b1868362000666565b95508019841693508086168417925050509392505050565b6000819050919050565b6000620006f4620006ee620006e884620003e0565b620006c9565b620003e0565b9050919050565b6000819050919050565b6200071083620006d3565b620007286200071f82620006fb565b84845462000673565b825550505050565b600090565b6200073f62000730565b6200074c81848462000705565b505050565b5b8181101562000774576200076860008262000735565b60018101905062000752565b5050565b601f821115620007c3576200078d8162000641565b620007988462000656565b81016020851015620007a8578190505b620007c0620007b78562000656565b83018262000751565b50505b505050565b600082821c905092915050565b6000620007e860001984600802620007c8565b1980831691505092915050565b6000620008038383620007d5565b9150826002028217905092915050565b6200081e82620005d2565b67ffffffffffffffff8111156200083a576200083962000248565b5b6200084682546200060c565b6200085382828562000778565b600060209050601f8311600181146200088b576000841562000876578287015190505b620008828582620007f5565b865550620008f2565b601f1984166200089b8662000641565b60005b82811015620008c5578489015182556001820191506020850194506020810190506200089e565b86831015620008e55784890151620008e1601f891682620007d5565b8355505b6001600288020188555050505b505050505050565b612645806200090a6000396000f3fe6080604052600436106100fe5760003560e01c8063992a7dfb11610095578063d61ba69d11610064578063d61ba69d1461031a578063e2dc431014610343578063f106501d1461035f578063f7ffbd851461039c578063ff3a9c7e146103c7576100fe565b8063992a7dfb14610257578063b40141bf14610299578063c59ee1dc146102c4578063c5debbd7146102ef576100fe565b80633410452a116100d15780633410452a146101ad5780634377cf65146101d8578063698bbebd14610203578063937e09b11461022c576100fe565b806311174a2914610103578063286426a11461012e5780632de0ec02146101575780633293943f14610182575b600080fd5b34801561010f57600080fd5b506101186103fa565b60405161012591906113b8565b60405180910390f35b34801561013a57600080fd5b5061015560048036038101906101509190611413565b610404565b005b34801561016357600080fd5b5061016c6105fb565b604051610179919061145b565b60405180910390f35b34801561018e57600080fd5b5061019761082f565b6040516101a491906113b8565b60405180910390f35b3480156101b957600080fd5b506101c2610835565b6040516101cf91906113b8565b60405180910390f35b3480156101e457600080fd5b506101ed61083f565b6040516101fa91906113b8565b60405180910390f35b34801561020f57600080fd5b5061022a60048036038101906102259190611413565b610845565b005b34801561023857600080fd5b50610241610b1c565b60405161024e91906113b8565b60405180910390f35b34801561026357600080fd5b5061027e60048036038101906102799190611413565b610b22565b60405161029096959493929190611547565b60405180910390f35b3480156102a557600080fd5b506102ae610c9b565b6040516102bb91906113b8565b60405180910390f35b3480156102d057600080fd5b506102d9610ca1565b6040516102e691906113b8565b60405180910390f35b3480156102fb57600080fd5b50610304610ca7565b604051610311919061162d565b60405180910390f35b34801561032657600080fd5b50610341600480360381019061033c91906117a9565b610cba565b005b61035d60048036038101906103589190611886565b610f27565b005b34801561036b57600080fd5b5061038660048036038101906103819190611886565b61113f565b60405161039391906113b8565b60405180910390f35b3480156103a857600080fd5b506103b1611157565b6040516103be91906113b8565b60405180910390f35b3480156103d357600080fd5b506103dc61115d565b6040516103f199989796959493929190611971565b60405180910390f35b6000600654905090565b6000600a60003373ffffffffffffffffffffffffffffffffffffffff1673ffffffffffffffffffffffffffffffffffffffff1681526020019081526020016000205411610486576040517f08c379a000000000000000000000000000000000000000000000000000000000815260040161047d90611a85565b60405180910390fd5b6000600b60008381526020019081526020016000209050600015158160040160003373ffffffffffffffffffffffffffffffffffffffff1673ffffffffffffffffffffffffffffffffffffffff16815260200190815260200160002060009054906101000a900460ff16151514610532576040517f08c379a000000000000000000000000000000000000000000000000000000000815260040161052990611af1565b60405180910390fd5b600115158160040160003373ffffffffffffffffffffffffffffffffffffffff1673ffffffffffffffffffffffffffffffffffffffff16815260200190815260200160002060009054906101000a9050505060018160030160008282546105999190611b40565b925050819055506001600e60008282546105b39190611b40565b925050819055507fc7f661ec8f5684e1d1153dfc3e2ddd03f7af0a5deaabd856d97eb83b37c0e92d3382600301546040516105ef929190611b83565b60405180910390a15050565b6000600161060761132c565b80600281111561061a576106196115b6565b5b600960009054906101000a900460ff16600281111561063c5761063b6115b6565b5b1461067c576040517f08c379a000000000000000000000000000000000000000000000000000000000815260040161067390611bf8565b60405180910390fd5b6000600a60003373ffffffffffffffffffffffffffffffffffffffff1673ffffffffffffffffffffffffffffffffffffffff16815260200190815260200160002054116106fe576040517f08c379a00000000000000000000000000000000000000000000000000000000081526004016106f590611c8a565b60405180910390fd5b60003390508073ffffffffffffffffffffffffffffffffffffffff166108fc600a60003373ffffffffffffffffffffffffffffffffffffffff1673ffffffffffffffffffffffffffffffffffffffff168152602001908152602001600020549081150290604051600060405180830381858888f19350505050158015610788573d6000803e3d6000fd5b50600a60003373ffffffffffffffffffffffffffffffffffffffff1673ffffffffffffffffffffffffffffffffffffffff16815260200190815260200160002054600760008282546107da9190611caa565b925050819055506000600a60003373ffffffffffffffffffffffffffffffffffffffff1673ffffffffffffffffffffffffffffffffffffffff1681526020019081526020016000208190555060019250505090565b600e5481565b6000600c54905090565b60065481565b60008054906101000a900473ffffffffffffffffffffffffffffffffffffffff1673ffffffffffffffffffffffffffffffffffffffff163373ffffffffffffffffffffffffffffffffffffffff16146108d3576040517f08c379a00000000000000000000000000000000000000000000000000000000081526004016108ca90611d2a565b60405180910390fd5b60026108dd61132c565b8060028111156108f0576108ef6115b6565b5b600960009054906101000a900460ff166002811115610912576109116115b6565b5b14610952576040517f08c379a000000000000000000000000000000000000000000000000000000000815260040161094990611bf8565b60405180910390fd5b6000600b60008481526020019081526020016000209050600015158160050160009054906101000a900460ff161515146109c1576040517f08c379a00000000000000000000000000000000000000000000000000000000081526004016109b890611d96565b60405180910390fd5b60026006546109d09190611de5565b816003015411610a15576040517f08c379a0000000000000000000000000000000000000000000000000000000008152600401610a0c90611e88565b60405180910390fd5b8060050160019054906101000a900473ffffffffffffffffffffffffffffffffffffffff1673ffffffffffffffffffffffffffffffffffffffff166108fc82600201549081150290604051600060405180830381858888f19350505050158015610a83573d6000803e3d6000fd5b5060018160050160006101000a81548160ff0219169083151502179055507f6fa21e9816e98d602d534c8241a2d8842692354498b6011947abe1ab92916b788382600001836001018460020154856003015460018760050160019054906101000a900473ffffffffffffffffffffffffffffffffffffffff16604051610b0f9796959493929190612000565b60405180910390a1505050565b60055481565b600b602052806000526040600020600091509050806000018054610b4590611ed7565b80601f0160208091040260200160405190810160405280929190818152602001828054610b7190611ed7565b8015610bbe5780601f10610b9357610100808354040283529160200191610bbe565b820191906000526020600020905b815481529060010190602001808311610ba157829003601f168201915b505050505090806001018054610bd390611ed7565b80601f0160208091040260200160405190810160405280929190818152602001828054610bff90611ed7565b8015610c4c5780601f10610c2157610100808354040283529160200191610c4c565b820191906000526020600020905b815481529060010190602001808311610c2f57829003601f168201915b5050505050908060020154908060030154908060050160009054906101000a900460ff16908060050160019054906101000a900473ffffffffffffffffffffffffffffffffffffffff16905086565b600c5481565b60075481565b600960009054906101000a900460ff1681565b60008054906101000a900473ffffffffffffffffffffffffffffffffffffffff1673ffffffffffffffffffffffffffffffffffffffff163373ffffffffffffffffffffffffffffffffffffffff1614610d48576040517f08c379a0000000000000000000000000000000000000000000000000000000008152600401610d3f90611d2a565b60405180910390fd5b6002610d5261132c565b806002811115610d6557610d646115b6565b5b600960009054906101000a900460ff166002811115610d8757610d866115b6565b5b14610dc7576040517f08c379a0000000000000000000000000000000000000000000000000000000008152600401610dbe90611bf8565b60405180910390fd5b600c546003805490501015610e11576040517f08c379a0000000000000000000000000000000000000000000000000000000008152600401610e08906120ef565b60405180910390fd5b6000600b6000600c548152602001908152602001600020905085816000019081610e3b919061229c565b5084816001019081610e4d919061229c565b508381600201819055506000816003018190555060008160050160006101000a81548160ff021916908315150217905550828160050160016101000a81548173ffffffffffffffffffffffffffffffffffffffff021916908373ffffffffffffffffffffffffffffffffffffffff1602179055507f82ac0fa26ae14b275cc011645161e6fc2c4901ad8cac2b1697b4d3290a602136600c5487878760008089604051610eff97969594939291906123a9565b60405180910390a1600c6000815480929190610f1a90612426565b9190505550505050505050565b6000806002811115610f3c57610f3b6115b6565b5b600960009054906101000a900460ff166002811115610f5e57610f5d6115b6565b5b14610f9e576040517f08c379a0000000000000000000000000000000000000000000000000000000008152600401610f95906124e0565b60405180910390fd5b6008544210610fe2576040517f08c379a0000000000000000000000000000000000000000000000000000000008152600401610fd99061254c565b60405180910390fd5b600554341015611027576040517f08c379a000000000000000000000000000000000000000000000000000000000815260040161101e906125b8565b60405180910390fd5b6000600a60008473ffffffffffffffffffffffffffffffffffffffff1673ffffffffffffffffffffffffffffffffffffffff1681526020019081526020016000205403611087576006600081548092919061108190612426565b91905055505b34600a60008473ffffffffffffffffffffffffffffffffffffffff1673ffffffffffffffffffffffffffffffffffffffff16815260200190815260200160002060008282546110d69190611b40565b9250508190555034600760008282546110ef9190611b40565b925050819055507f5cdc4ab8d637538ead6cc1904d4160343656c8c82bd266635cfd31ac008fffe0823460075460405161112b939291906125d8565b60405180910390a161113b61132c565b5050565b600a6020528060005260406000206000915090505481565b600d5481565b600080606060008060608060008060008054906101000a900473ffffffffffffffffffffffffffffffffffffffff169850600554975060038054806020026020016040519081016040528092919081815260200182805480156111df57602002820191906000526020600020905b8154815260200190600101908083116111cb575b5050505050965060045495506007549450600180546111fd90611ed7565b80601f016020809104026020016040519081016040528092919081815260200182805461122990611ed7565b80156112765780601f1061124b57610100808354040283529160200191611276565b820191906000526020600020905b81548152906001019060200180831161125957829003601f168201915b505050505093506002805461128a90611ed7565b80601f01602080910402602001604051908101604052809291908181526020018280546112b690611ed7565b80156113035780601f106112d857610100808354040283529160200191611303565b820191906000526020600020905b8154815290600101906020018083116112e657829003601f168201915b505050505092506008549150600960009054906101000a900460ff169050909192939495969798565b60045460075410611367576002600960006101000a81548160ff0219169083600281111561135d5761135c6115b6565b5b021790555061139d565b600854421061139c576001600960006101000a81548160ff02191690836002811115611396576113956115b6565b5b02179055505b5b565b6000819050919050565b6113b28161139f565b82525050565b60006020820190506113cd60008301846113a9565b92915050565b6000604051905090565b600080fd5b600080fd5b6113f08161139f565b81146113fb57600080fd5b50565b60008135905061140d816113e7565b92915050565b600060208284031215611429576114286113dd565b5b6000611437848285016113fe565b91505092915050565b60008115159050919050565b61145581611440565b82525050565b6000602082019050611470600083018461144c565b92915050565b600081519050919050565b600082825260208201905092915050565b60005b838110156114b0578082015181840152602081019050611495565b60008484015250505050565b6000601f19601f8301169050919050565b60006114d882611476565b6114e28185611481565b93506114f2818560208601611492565b6114fb816114bc565b840191505092915050565b600073ffffffffffffffffffffffffffffffffffffffff82169050919050565b600061153182611506565b9050919050565b61154181611526565b82525050565b600060c082019050818103600083015261156181896114cd565b9050818103602083015261157581886114cd565b905061158460408301876113a9565b61159160608301866113a9565b61159e608083018561144c565b6115ab60a0830184611538565b979650505050505050565b7f4e487b7100000000000000000000000000000000000000000000000000000000600052602160045260246000fd5b600381106115f6576115f56115b6565b5b50565b6000819050611607826115e5565b919050565b6000611617826115f9565b9050919050565b6116278161160c565b82525050565b6000602082019050611642600083018461161e565b92915050565b600080fd5b600080fd5b7f4e487b7100000000000000000000000000000000000000000000000000000000600052604160045260246000fd5b61168a826114bc565b810181811067ffffffffffffffff821117156116a9576116a8611652565b5b80604052505050565b60006116bc6113d3565b90506116c88282611681565b919050565b600067ffffffffffffffff8211156116e8576116e7611652565b5b6116f1826114bc565b9050602081019050919050565b82818337600083830152505050565b600061172061171b846116cd565b6116b2565b90508281526020810184848401111561173c5761173b61164d565b5b6117478482856116fe565b509392505050565b600082601f83011261176457611763611648565b5b813561177484826020860161170d565b91505092915050565b61178681611526565b811461179157600080fd5b50565b6000813590506117a38161177d565b92915050565b600080600080608085870312156117c3576117c26113dd565b5b600085013567ffffffffffffffff8111156117e1576117e06113e2565b5b6117ed8782880161174f565b945050602085013567ffffffffffffffff81111561180e5761180d6113e2565b5b61181a8782880161174f565b935050604061182b878288016113fe565b925050606061183c87828801611794565b91505092959194509250565b600061185382611506565b9050919050565b61186381611848565b811461186e57600080fd5b50565b6000813590506118808161185a565b92915050565b60006020828403121561189c5761189b6113dd565b5b60006118aa84828501611871565b91505092915050565b600081519050919050565b600082825260208201905092915050565b6000819050602082019050919050565b6118e88161139f565b82525050565b60006118fa83836118df565b60208301905092915050565b6000602082019050919050565b600061191e826118b3565b61192881856118be565b9350611933836118cf565b8060005b8381101561196457815161194b88826118ee565b975061195683611906565b925050600181019050611937565b5085935050505092915050565b600061012082019050611987600083018c611538565b611994602083018b6113a9565b81810360408301526119a6818a611913565b90506119b560608301896113a9565b6119c260808301886113a9565b81810360a08301526119d481876114cd565b905081810360c08301526119e881866114cd565b90506119f760e08301856113a9565b611a0561010083018461161e565b9a9950505050505050505050565b7f4f6e6c7920636f6e7472696275746f72732063616e20766f746520666f72207460008201527f68652063616d706169676e000000000000000000000000000000000000000000602082015250565b6000611a6f602b83611481565b9150611a7a82611a13565b604082019050919050565b60006020820190508181036000830152611a9e81611a62565b9050919050565b7f596f75766520766f74656420666f7220746869732063616d706169676e000000600082015250565b6000611adb601d83611481565b9150611ae682611aa5565b602082019050919050565b60006020820190508181036000830152611b0a81611ace565b9050919050565b7f4e487b7100000000000000000000000000000000000000000000000000000000600052601160045260246000fd5b6000611b4b8261139f565b9150611b568361139f565b9250828201905080821115611b6e57611b6d611b11565b5b92915050565b611b7d81611848565b82525050565b6000604082019050611b986000830185611b74565b611ba560208301846113a9565b9392505050565b7f496e76616c696420537461746521000000000000000000000000000000000000600082015250565b6000611be2600e83611481565b9150611bed82611bac565b602082019050919050565b60006020820190508181036000830152611c1181611bd5565b9050919050565b7f596f757220636f6e747269627574696f6e20746f20746869732070726f6a656360008201527f7420697320302100000000000000000000000000000000000000000000000000602082015250565b6000611c74602783611481565b9150611c7f82611c18565b604082019050919050565b60006020820190508181036000830152611ca381611c67565b9050919050565b6000611cb58261139f565b9150611cc08361139f565b9250828203905081811115611cd857611cd7611b11565b5b92915050565b7f4e6f204163636573732100000000000000000000000000000000000000000000600082015250565b6000611d14600a83611481565b9150611d1f82611cde565b602082019050919050565b60006020820190508181036000830152611d4381611d07565b9050919050565b7f5265717565737420436f6d706c6574656420616c726561647900000000000000600082015250565b6000611d80601983611481565b9150611d8b82611d4a565b602082019050919050565b60006020820190508181036000830152611daf81611d73565b9050919050565b7f4e487b7100000000000000000000000000000000000000000000000000000000600052601260045260246000fd5b6000611df08261139f565b9150611dfb8361139f565b925082611e0b57611e0a611db6565b5b828204905092915050565b7f566f74652070657263656e74616765206973206c657373207468616e2035302560008201527f2063616e6e6f742077697468647261772066756e640000000000000000000000602082015250565b6000611e72603583611481565b9150611e7d82611e16565b604082019050919050565b60006020820190508181036000830152611ea181611e65565b9050919050565b7f4e487b7100000000000000000000000000000000000000000000000000000000600052602260045260246000fd5b60006002820490506001821680611eef57607f821691505b602082108103611f0257611f01611ea8565b5b50919050565b60008190508160005260206000209050919050565b60008154611f2a81611ed7565b611f348186611481565b94506001821660008114611f4f5760018114611f6557611f98565b60ff198316865281151560200286019350611f98565b611f6e85611f08565b60005b83811015611f9057815481890152600182019150602081019050611f71565b808801955050505b50505092915050565b6000819050919050565b6000611fc6611fc1611fbc84611506565b611fa1565b611506565b9050919050565b6000611fd882611fab565b9050919050565b6000611fea82611fcd565b9050919050565b611ffa81611fdf565b82525050565b600060e082019050612015600083018a6113a9565b81810360208301526120278189611f1d565b9050818103604083015261203b8188611f1d565b905061204a60608301876113a9565b61205760808301866113a9565b61206460a083018561144c565b61207160c0830184611ff1565b98975050505050505050565b7f43616e6e6f742077697468647261772066756e647320616c6c2072657175657360008201527f7420686173206265656e20636f6d706c65746564000000000000000000000000602082015250565b60006120d9603483611481565b91506120e48261207d565b604082019050919050565b60006020820190508181036000830152612108816120cc565b9050919050565b60006020601f8301049050919050565b600082821b905092915050565b60006008830261215c7fffffffffffffffffffffffffffffffffffffffffffffffffffffffffffffffff8261211f565b612166868361211f565b95508019841693508086168417925050509392505050565b600061219961219461218f8461139f565b611fa1565b61139f565b9050919050565b6000819050919050565b6121b38361217e565b6121c76121bf826121a0565b84845461212c565b825550505050565b600090565b6121dc6121cf565b6121e78184846121aa565b505050565b5b8181101561220b576122006000826121d4565b6001810190506121ed565b5050565b601f8211156122505761222181611f08565b61222a8461210f565b81016020851015612239578190505b61224d6122458561210f565b8301826121ec565b50505b505050565b600082821c905092915050565b600061227360001984600802612255565b1980831691505092915050565b600061228c8383612262565b9150826002028217905092915050565b6122a582611476565b67ffffffffffffffff8111156122be576122bd611652565b5b6122c88254611ed7565b6122d382828561220f565b600060209050601f83116001811461230657600084156122f4578287015190505b6122fe8582612280565b865550612366565b601f19841661231486611f08565b60005b8281101561233c57848901518255600182019150602085019450602081019050612317565b868310156123595784890151612355601f891682612262565b8355505b6001600288020188555050505b505050505050565b6000819050919050565b600061239361238e6123898461236e565b611fa1565b61139f565b9050919050565b6123a381612378565b82525050565b600060e0820190506123be600083018a6113a9565b81810360208301526123d081896114cd565b905081810360408301526123e481886114cd565b90506123f360608301876113a9565b612400608083018661239a565b61240d60a083018561144c565b61241a60c0830184611ff1565b98975050505050505050565b60006124318261139f565b91507fffffffffffffffffffffffffffffffffffffffffffffffffffffffffffffffff820361246357612462611b11565b5b600182019050919050565b7f496e76616c69642053746174652043616e6e6f7420496e7665737420696e207460008201527f6869732063616d706169676e0000000000000000000000000000000000000000602082015250565b60006124ca602c83611481565b91506124d58261246e565b604082019050919050565b600060208201905081810360008301526124f9816124bd565b9050919050565b7f446561646c696e65205061737365642100000000000000000000000000000000600082015250565b6000612536601083611481565b915061254182612500565b602082019050919050565b6000602082019050818103600083015261256581612529565b9050919050565b7f436f6e747269627574696f6e20616d6f756e7420746f6f206c6f772021000000600082015250565b60006125a2601d83611481565b91506125ad8261256c565b602082019050919050565b600060208201905081810360008301526125d181612595565b9050919050565b60006060820190506125ed6000830186611b74565b6125fa60208301856113a9565b61260760408301846113a9565b94935050505056fea26469706673582212206fcde3b36415d1ea005fff765e066d66b46651bc9c404d0641f8f4dc3c4d3cdd64736f6c63430008110033",
  "linkReferences": {},
  "deployedLinkReferences": {}
}