{
  "_format": "hh-sol-artifact-1",
  "contractName": "CrowdFund",
  "sourceName": "contracts/CrowdFund.sol",
  "abi": [
    {
      "anonymous": false,
      "inputs": [
        {
          "indexed": false,
          "internalType": "contract Project",
          "name": "projectAddress",
          "type": "address"
        },
        {
          "indexed": false,
          "internalType": "uint256",
          "name": "amountRecieved",
          "type": "uint256"
        },
        {
          "indexed": true,
          "internalType": "address",
          "name": "contributor",
          "type": "address"
        }
      ],
      "name": "fundingReceived",
      "type": "event"
    },
    {
      "anonymous": false,
      "inputs": [
        {
          "indexed": false,
          "internalType": "contract Project",
          "name": "projectAddress",
          "type": "address"
        },
        {
          "indexed": false,
          "internalType": "address",
          "name": "projectCreator",
          "type": "address"
        },
        {
          "indexed": false,
          "internalType": "string",
          "name": "projectName",
          "type": "string"
        },
        {
          "indexed": false,
          "internalType": "string",
          "name": "projectDescription",
          "type": "string"
        },
        {
          "indexed": false,
          "internalType": "uint256[]",
          "name": "timeline",
          "type": "uint256[]"
        },
        {
          "indexed": false,
          "internalType": "uint256",
          "name": "targetAmount",
          "type": "uint256"
        },
        {
          "indexed": false,
          "internalType": "uint256",
          "name": "minimumContribution",
          "type": "uint256"
        },
        {
          "indexed": false,
          "internalType": "uint256",
          "name": "numberOfContributors",
          "type": "uint256"
        },
        {
          "indexed": false,
          "internalType": "uint256",
          "name": "raisedAmount",
          "type": "uint256"
        },
        {
          "indexed": false,
          "internalType": "uint256",
          "name": "fundraisingDeadline",
          "type": "uint256"
        },
        {
          "indexed": false,
          "internalType": "uint256",
          "name": "CurrentState",
          "type": "uint256"
        }
      ],
      "name": "projectStarted",
      "type": "event"
    },
    {
      "inputs": [
        {
          "internalType": "string",
          "name": "_description",
          "type": "string"
        },
        {
          "internalType": "string",
          "name": "_IPFSfileHash",
          "type": "string"
        },
        {
          "internalType": "uint256",
          "name": "_amount",
          "type": "uint256"
        }
      ],
      "name": "CreateFundRequest",
      "outputs": [],
      "stateMutability": "nonpayable",
      "type": "function"
    },
    {
      "inputs": [
        {
          "internalType": "contract Project",
          "name": "_projectAddress",
          "type": "address"
        }
      ],
      "name": "contribute",
      "outputs": [],
      "stateMutability": "payable",
      "type": "function"
    },
    {
      "inputs": [
        {
          "internalType": "string",
          "name": "projectName",
          "type": "string"
        },
        {
          "internalType": "string",
          "name": "projectDescription",
          "type": "string"
        },
        {
          "internalType": "uint256[]",
          "name": "timeline",
          "type": "uint256[]"
        },
        {
          "internalType": "uint256",
          "name": "targetAmount",
          "type": "uint256"
        },
        {
          "internalType": "uint256",
          "name": "minimumContribution",
          "type": "uint256"
        },
        {
          "internalType": "uint256",
          "name": "fundraisingDeadline",
          "type": "uint256"
        }
      ],
      "name": "createProject",
      "outputs": [],
      "stateMutability": "nonpayable",
      "type": "function"
    },
    {
      "inputs": [],
      "name": "createRefundRequest",
      "outputs": [],
      "stateMutability": "view",
      "type": "function"
    },
    {
      "inputs": [],
      "name": "getProjectBalance",
      "outputs": [
        {
          "internalType": "uint256",
          "name": "amount",
          "type": "uint256"
        }
      ],
      "stateMutability": "view",
      "type": "function"
    },
    {
      "inputs": [],
      "name": "getProjectInformation",
      "outputs": [
        {
          "internalType": "address payable",
          "name": "projectStarter",
          "type": "address"
        },
        {
          "internalType": "uint256",
          "name": "minContribution",
          "type": "uint256"
        },
        {
          "internalType": "uint256[]",
          "name": "projectDeadline",
          "type": "uint256[]"
        },
        {
          "internalType": "uint256",
          "name": "goalAmount",
          "type": "uint256"
        },
        {
          "internalType": "uint256",
          "name": "currentAmount",
          "type": "uint256"
        },
        {
          "internalType": "string",
          "name": "title",
          "type": "string"
        },
        {
          "internalType": "string",
          "name": "desc",
          "type": "string"
        },
        {
          "internalType": "uint256",
          "name": "fundraisingDL",
          "type": "uint256"
        },
        {
          "internalType": "enum Types.ProjectStates",
          "name": "CurrentProjectState",
          "type": "uint8"
        }
      ],
      "stateMutability": "view",
      "type": "function"
    },
    {
      "inputs": [],
      "name": "getTotalProjects",
      "outputs": [
        {
          "internalType": "contract Project[]",
          "name": "",
          "type": "address[]"
        }
      ],
      "stateMutability": "view",
      "type": "function"
    },
    {
      "inputs": [],
      "name": "objectAdd",
      "outputs": [
        {
          "internalType": "contract Project",
          "name": "",
          "type": "address"
        }
      ],
      "stateMutability": "view",
      "type": "function"
    },
    {
      "inputs": [
        {
          "internalType": "contract Project",
          "name": "p",
          "type": "address"
        }
      ],
      "name": "storeAdd",
      "outputs": [],
      "stateMutability": "nonpayable",
      "type": "function"
    },
    {
      "inputs": [
        {
          "internalType": "uint256",
          "name": "requestID",
          "type": "uint256"
        }
      ],
      "name": "withdrawAmount",
      "outputs": [],
      "stateMutability": "nonpayable",
      "type": "function"
    },
    {
      "inputs": [
        {
          "internalType": "uint256",
          "name": "requestID",
          "type": "uint256"
        }
      ],
      "name": "withdrawlVoting",
      "outputs": [],
      "stateMutability": "nonpayable",
      "type": "function"
    }
  ],
  "bytecode": "0x608060405234801561001057600080fd5b506148bc806100206000396000f3fe608060405260043610620000aa5760003560e01c806373e888fd116200006d57806373e888fd146200018b5780637a7e7a6b14620001ab5780637d7b87fe14620001d9578063812739a214620002075780639a274fff1462000237578063c4612adf146200026757620000aa565b80630562b9f714620000af578063465c2e2f14620000dd57806356eccc1f1462000115578063588c161b14620001435780635b1994751462000171575b600080fd5b348015620000bc57600080fd5b50620000db6004803603810190620000d59190620009dd565b62000297565b005b348015620000ea57600080fd5b50620000f562000331565b6040516200010c9998979695949392919062000c4d565b60405180910390f35b3480156200012257600080fd5b506200014160048036038101906200013b919062000d5a565b620003fb565b005b3480156200015057600080fd5b506200016f600480360381019062000169919062000fb8565b6200043f565b005b3480156200017e57600080fd5b506200018962000543565b005b620001a96004803603810190620001a3919062000d5a565b6200056d565b005b348015620001b857600080fd5b50620001d76004803603810190620001d19190620010b1565b620006ee565b005b348015620001e657600080fd5b50620002056004803603810190620001ff9190620009dd565b62000790565b005b3480156200021457600080fd5b506200021f6200082a565b6040516200022e919062001273565b60405180910390f35b3480156200024457600080fd5b506200024f620008ba565b6040516200025e919062001297565b60405180910390f35b3480156200027457600080fd5b506200027f6200095a565b6040516200028e9190620012c5565b60405180910390f35b6000600160009054906101000a900473ffffffffffffffffffffffffffffffffffffffff1690508073ffffffffffffffffffffffffffffffffffffffff1663698bbebd836040518263ffffffff1660e01b8152600401620002f9919062001297565b600060405180830381600087803b1580156200031457600080fd5b505af115801562000329573d6000803e3d6000fd5b505050505050565b60008060606000806060806000806000600160009054906101000a900473ffffffffffffffffffffffffffffffffffffffff1690508073ffffffffffffffffffffffffffffffffffffffff1663ff3a9c7e6040518163ffffffff1660e01b8152600401600060405180830381865afa158015620003b2573d6000803e3d6000fd5b505050506040513d6000823e3d601f19601f82011682018060405250810190620003dd919062001477565b99509950995099509950995099509950995050909192939495969798565b80600160006101000a81548173ffffffffffffffffffffffffffffffffffffffff021916908373ffffffffffffffffffffffffffffffffffffffff16021790555050565b600033878787878787604051620004569062000980565b620004689796959493929190620015b3565b604051809103906000f08015801562000485573d6000803e3d6000fd5b5090506000819080600181540180825580915050600190039060005260206000200160009091909190916101000a81548173ffffffffffffffffffffffffffffffffffffffff021916908373ffffffffffffffffffffffffffffffffffffffff1602179055507fe6f3128472ef91f58238da75a82272efe3f70d8c65f039111eb0785fde6fcfda813389898989896000808b6000604051620005329b9a9998979695949392919062001699565b60405180910390a150505050505050565b6000600160009054906101000a900473ffffffffffffffffffffffffffffffffffffffff16905050565b60008173ffffffffffffffffffffffffffffffffffffffff1663937e09b16040518163ffffffff1660e01b8152600401602060405180830381865afa158015620005bb573d6000803e3d6000fd5b505050506040513d601f19601f82011682018060405250810190620005e191906200176f565b905080341162000628576040517f08c379a00000000000000000000000000000000000000000000000000000000081526004016200061f90620017f1565b60405180910390fd5b8173ffffffffffffffffffffffffffffffffffffffff1663e2dc431034336040518363ffffffff1660e01b815260040162000664919062001813565b6000604051808303818588803b1580156200067e57600080fd5b505af115801562000693573d6000803e3d6000fd5b50505050503373ffffffffffffffffffffffffffffffffffffffff167ff3f0d2aef319d16a4cabe88719456ccd50d3e118a22c76e59bc7a344926fda388334604051620006e292919062001830565b60405180910390a25050565b6000600160009054906101000a900473ffffffffffffffffffffffffffffffffffffffff1690508073ffffffffffffffffffffffffffffffffffffffff1663d61ba69d858585336040518563ffffffff1660e01b81526004016200075694939291906200185d565b600060405180830381600087803b1580156200077157600080fd5b505af115801562000786573d6000803e3d6000fd5b5050505050505050565b6000600160009054906101000a900473ffffffffffffffffffffffffffffffffffffffff1690508073ffffffffffffffffffffffffffffffffffffffff1663286426a1836040518263ffffffff1660e01b8152600401620007f2919062001297565b600060405180830381600087803b1580156200080d57600080fd5b505af115801562000822573d6000803e3d6000fd5b505050505050565b60606000805480602002602001604051908101604052809291908181526020018280548015620008b057602002820191906000526020600020905b8160009054906101000a900473ffffffffffffffffffffffffffffffffffffffff1673ffffffffffffffffffffffffffffffffffffffff168152602001906001019080831162000865575b5050505050905090565b600080600160009054906101000a900473ffffffffffffffffffffffffffffffffffffffff1690508073ffffffffffffffffffffffffffffffffffffffff1663c59ee1dc6040518163ffffffff1660e01b8152600401602060405180830381865afa1580156200092e573d6000803e3d6000fd5b505050506040513d601f19601f820116820180604052508101906200095491906200176f565b91505090565b600160009054906101000a900473ffffffffffffffffffffffffffffffffffffffff1681565b612fce80620018b983390190565b6000604051905090565b600080fd5b600080fd5b6000819050919050565b620009b781620009a2565b8114620009c357600080fd5b50565b600081359050620009d781620009ac565b92915050565b600060208284031215620009f657620009f562000998565b5b600062000a0684828501620009c6565b91505092915050565b600073ffffffffffffffffffffffffffffffffffffffff82169050919050565b600062000a3c8262000a0f565b9050919050565b62000a4e8162000a2f565b82525050565b62000a5f81620009a2565b82525050565b600081519050919050565b600082825260208201905092915050565b6000819050602082019050919050565b62000a9c81620009a2565b82525050565b600062000ab0838362000a91565b60208301905092915050565b6000602082019050919050565b600062000ad68262000a65565b62000ae2818562000a70565b935062000aef8362000a81565b8060005b8381101562000b2657815162000b0a888262000aa2565b975062000b178362000abc565b92505060018101905062000af3565b5085935050505092915050565b600081519050919050565b600082825260208201905092915050565b60005b8381101562000b6f57808201518184015260208101905062000b52565b60008484015250505050565b6000601f19601f8301169050919050565b600062000b998262000b33565b62000ba5818562000b3e565b935062000bb781856020860162000b4f565b62000bc28162000b7b565b840191505092915050565b7f4e487b7100000000000000000000000000000000000000000000000000000000600052602160045260246000fd5b6003811062000c105762000c0f62000bcd565b5b50565b600081905062000c238262000bfc565b919050565b600062000c358262000c13565b9050919050565b62000c478162000c28565b82525050565b60006101208201905062000c65600083018c62000a43565b62000c74602083018b62000a54565b818103604083015262000c88818a62000ac9565b905062000c99606083018962000a54565b62000ca8608083018862000a54565b81810360a083015262000cbc818762000b8c565b905081810360c083015262000cd2818662000b8c565b905062000ce360e083018562000a54565b62000cf361010083018462000c3c565b9a9950505050505050505050565b600062000d0e8262000a0f565b9050919050565b600062000d228262000d01565b9050919050565b62000d348162000d15565b811462000d4057600080fd5b50565b60008135905062000d548162000d29565b92915050565b60006020828403121562000d735762000d7262000998565b5b600062000d838482850162000d43565b91505092915050565b600080fd5b600080fd5b7f4e487b7100000000000000000000000000000000000000000000000000000000600052604160045260246000fd5b62000dd08262000b7b565b810181811067ffffffffffffffff8211171562000df25762000df162000d96565b5b80604052505050565b600062000e076200098e565b905062000e15828262000dc5565b919050565b600067ffffffffffffffff82111562000e385762000e3762000d96565b5b62000e438262000b7b565b9050602081019050919050565b82818337600083830152505050565b600062000e7662000e708462000e1a565b62000dfb565b90508281526020810184848401111562000e955762000e9462000d91565b5b62000ea284828562000e50565b509392505050565b600082601f83011262000ec25762000ec162000d8c565b5b813562000ed484826020860162000e5f565b91505092915050565b600067ffffffffffffffff82111562000efb5762000efa62000d96565b5b602082029050602081019050919050565b600080fd5b600062000f2862000f228462000edd565b62000dfb565b9050808382526020820190506020840283018581111562000f4e5762000f4d62000f0c565b5b835b8181101562000f7b578062000f668882620009c6565b84526020840193505060208101905062000f50565b5050509392505050565b600082601f83011262000f9d5762000f9c62000d8c565b5b813562000faf84826020860162000f11565b91505092915050565b60008060008060008060c0878903121562000fd85762000fd762000998565b5b600087013567ffffffffffffffff81111562000ff95762000ff86200099d565b5b6200100789828a0162000eaa565b965050602087013567ffffffffffffffff8111156200102b576200102a6200099d565b5b6200103989828a0162000eaa565b955050604087013567ffffffffffffffff8111156200105d576200105c6200099d565b5b6200106b89828a0162000f85565b94505060606200107e89828a01620009c6565b93505060806200109189828a01620009c6565b92505060a0620010a489828a01620009c6565b9150509295509295509295565b600080600060608486031215620010cd57620010cc62000998565b5b600084013567ffffffffffffffff811115620010ee57620010ed6200099d565b5b620010fc8682870162000eaa565b935050602084013567ffffffffffffffff81111562001120576200111f6200099d565b5b6200112e8682870162000eaa565b92505060406200114186828701620009c6565b9150509250925092565b600081519050919050565b600082825260208201905092915050565b6000819050602082019050919050565b6000819050919050565b6000620011a26200119c620011968462000a0f565b62001177565b62000a0f565b9050919050565b6000620011b68262001181565b9050919050565b6000620011ca82620011a9565b9050919050565b620011dc81620011bd565b82525050565b6000620011f08383620011d1565b60208301905092915050565b6000602082019050919050565b600062001216826200114b565b62001222818562001156565b93506200122f8362001167565b8060005b83811015620012665781516200124a8882620011e2565b97506200125783620011fc565b92505060018101905062001233565b5085935050505092915050565b600060208201905081810360008301526200128f818462001209565b905092915050565b6000602082019050620012ae600083018462000a54565b92915050565b620012bf81620011bd565b82525050565b6000602082019050620012dc6000830184620012b4565b92915050565b620012ed8162000a2f565b8114620012f957600080fd5b50565b6000815190506200130d81620012e2565b92915050565b6000815190506200132481620009ac565b92915050565b6000620013416200133b8462000edd565b62000dfb565b9050808382526020820190506020840283018581111562001367576200136662000f0c565b5b835b818110156200139457806200137f888262001313565b84526020840193505060208101905062001369565b5050509392505050565b600082601f830112620013b657620013b562000d8c565b5b8151620013c88482602086016200132a565b91505092915050565b6000620013e8620013e28462000e1a565b62000dfb565b90508281526020810184848401111562001407576200140662000d91565b5b6200141484828562000b4f565b509392505050565b600082601f83011262001434576200143362000d8c565b5b815162001446848260208601620013d1565b91505092915050565b600381106200145d57600080fd5b50565b60008151905062001471816200144f565b92915050565b60008060008060008060008060006101208a8c0312156200149d576200149c62000998565b5b6000620014ad8c828d01620012fc565b9950506020620014c08c828d0162001313565b98505060408a015167ffffffffffffffff811115620014e457620014e36200099d565b5b620014f28c828d016200139e565b9750506060620015058c828d0162001313565b9650506080620015188c828d0162001313565b95505060a08a015167ffffffffffffffff8111156200153c576200153b6200099d565b5b6200154a8c828d016200141c565b94505060c08a015167ffffffffffffffff8111156200156e576200156d6200099d565b5b6200157c8c828d016200141c565b93505060e06200158f8c828d0162001313565b925050610100620015a38c828d0162001460565b9150509295985092959850929598565b600060e082019050620015ca600083018a62000a43565b8181036020830152620015de818962000b8c565b90508181036040830152620015f4818862000b8c565b905081810360608301526200160a818762000ac9565b90506200161b608083018662000a54565b6200162a60a083018562000a54565b6200163960c083018462000a54565b98975050505050505050565b620016508162000d01565b82525050565b6000819050919050565b6000620016816200167b620016758462001656565b62001177565b620009a2565b9050919050565b620016938162001660565b82525050565b600061016082019050620016b1600083018e620012b4565b620016c0602083018d62001645565b8181036040830152620016d4818c62000b8c565b90508181036060830152620016ea818b62000b8c565b9050818103608083015262001700818a62000ac9565b90506200171160a083018962000a54565b6200172060c083018862000a54565b6200172f60e083018762001688565b6200173f61010083018662001688565b6200174f61012083018562000a54565b6200175f61014083018462001688565b9c9b505050505050505050505050565b60006020828403121562001788576200178762000998565b5b6000620017988482850162001313565b91505092915050565b7f436f6e747269627574696f6e20616d6f756e74206973206c6f77202100000000600082015250565b6000620017d9601c8362000b3e565b9150620017e682620017a1565b602082019050919050565b600060208201905081810360008301526200180c81620017ca565b9050919050565b60006020820190506200182a600083018462001645565b92915050565b6000604082019050620018476000830185620012b4565b62001856602083018462000a54565b9392505050565b6000608082019050818103600083015262001879818762000b8c565b905081810360208301526200188f818662000b8c565b9050620018a0604083018562000a54565b620018af606083018462000a43565b9594505050505056fe60806040526000600960006101000a81548160ff021916908360028111156200002d576200002c62000185565b5b02179055506000600c55600754600d556000600e553480156200004f57600080fd5b5060405162002fce38038062002fce8339818101604052810190620000759190620004c2565b866000806101000a81548173ffffffffffffffffffffffffffffffffffffffff021916908373ffffffffffffffffffffffffffffffffffffffff1602179055508560019081620000c6919062000813565b508460029081620000d8919062000813565b508360039080519060200190620000f192919062000114565b5082600481905550816005819055508060088190555050505050505050620008fa565b82805482825590600052602060002090810192821562000153579160200282015b828111156200015257825182559160200191906001019062000135565b5b50905062000162919062000166565b5090565b5b808211156200018157600081600090555060010162000167565b5090565b7f4e487b7100000000000000000000000000000000000000000000000000000000600052602160045260246000fd5b6000604051905090565b600080fd5b600080fd5b600073ffffffffffffffffffffffffffffffffffffffff82169050919050565b6000620001f582620001c8565b9050919050565b6200020781620001e8565b81146200021357600080fd5b50565b6000815190506200022781620001fc565b92915050565b600080fd5b600080fd5b6000601f19601f8301169050919050565b7f4e487b7100000000000000000000000000000000000000000000000000000000600052604160045260246000fd5b620002828262000237565b810181811067ffffffffffffffff82111715620002a457620002a362000248565b5b80604052505050565b6000620002b9620001b4565b9050620002c7828262000277565b919050565b600067ffffffffffffffff821115620002ea57620002e962000248565b5b620002f58262000237565b9050602081019050919050565b60005b838110156200032257808201518184015260208101905062000305565b60008484015250505050565b6000620003456200033f84620002cc565b620002ad565b90508281526020810184848401111562000364576200036362000232565b5b6200037184828562000302565b509392505050565b600082601f8301126200039157620003906200022d565b5b8151620003a38482602086016200032e565b91505092915050565b600067ffffffffffffffff821115620003ca57620003c962000248565b5b602082029050602081019050919050565b600080fd5b6000819050919050565b620003f581620003e0565b81146200040157600080fd5b50565b6000815190506200041581620003ea565b92915050565b6000620004326200042c84620003ac565b620002ad565b90508083825260208201905060208402830185811115620004585762000457620003db565b5b835b8181101562000485578062000470888262000404565b8452602084019350506020810190506200045a565b5050509392505050565b600082601f830112620004a757620004a66200022d565b5b8151620004b98482602086016200041b565b91505092915050565b600080600080600080600060e0888a031215620004e457620004e3620001be565b5b6000620004f48a828b0162000216565b975050602088015167ffffffffffffffff811115620005185762000517620001c3565b5b620005268a828b0162000379565b965050604088015167ffffffffffffffff8111156200054a5762000549620001c3565b5b620005588a828b0162000379565b955050606088015167ffffffffffffffff8111156200057c576200057b620001c3565b5b6200058a8a828b016200048f565b94505060806200059d8a828b0162000404565b93505060a0620005b08a828b0162000404565b92505060c0620005c38a828b0162000404565b91505092959891949750929550565b600081519050919050565b7f4e487b7100000000000000000000000000000000000000000000000000000000600052602260045260246000fd5b600060028204905060018216806200062557607f821691505b6020821081036200063b576200063a620005dd565b5b50919050565b60008190508160005260206000209050919050565b60006020601f8301049050919050565b600082821b905092915050565b600060088302620006a57fffffffffffffffffffffffffffffffffffffffffffffffffffffffffffffffff8262000666565b620006b1868362000666565b95508019841693508086168417925050509392505050565b6000819050919050565b6000620006f4620006ee620006e884620003e0565b620006c9565b620003e0565b9050919050565b6000819050919050565b6200071083620006d3565b620007286200071f82620006fb565b84845462000673565b825550505050565b600090565b6200073f62000730565b6200074c81848462000705565b505050565b5b8181101562000774576200076860008262000735565b60018101905062000752565b5050565b601f821115620007c3576200078d8162000641565b620007988462000656565b81016020851015620007a8578190505b620007c0620007b78562000656565b83018262000751565b50505b505050565b600082821c905092915050565b6000620007e860001984600802620007c8565b1980831691505092915050565b6000620008038383620007d5565b9150826002028217905092915050565b6200081e82620005d2565b67ffffffffffffffff8111156200083a576200083962000248565b5b6200084682546200060c565b6200085382828562000778565b600060209050601f8311600181146200088b576000841562000876578287015190505b620008828582620007f5565b865550620008f2565b601f1984166200089b8662000641565b60005b82811015620008c5578489015182556001820191506020850194506020810190506200089e565b86831015620008e55784890151620008e1601f891682620007d5565b8355505b6001600288020188555050505b505050505050565b6126c4806200090a6000396000f3fe6080604052600436106100fe5760003560e01c8063992a7dfb11610095578063d61ba69d11610064578063d61ba69d1461031a578063e2dc431014610343578063f106501d1461035f578063f7ffbd851461039c578063ff3a9c7e146103c7576100fe565b8063992a7dfb14610257578063b40141bf14610299578063c59ee1dc146102c4578063c5debbd7146102ef576100fe565b80633410452a116100d15780633410452a146101ad5780634377cf65146101d8578063698bbebd14610203578063937e09b11461022c576100fe565b806311174a2914610103578063286426a11461012e5780632de0ec02146101575780633293943f14610182575b600080fd5b34801561010f57600080fd5b506101186103fa565b60405161012591906113f5565b60405180910390f35b34801561013a57600080fd5b5061015560048036038101906101509190611450565b610404565b005b34801561016357600080fd5b5061016c6105fb565b6040516101799190611498565b60405180910390f35b34801561018e57600080fd5b5061019761082f565b6040516101a491906113f5565b60405180910390f35b3480156101b957600080fd5b506101c2610835565b6040516101cf91906113f5565b60405180910390f35b3480156101e457600080fd5b506101ed61083f565b6040516101fa91906113f5565b60405180910390f35b34801561020f57600080fd5b5061022a60048036038101906102259190611450565b610845565b005b34801561023857600080fd5b50610241610b34565b60405161024e91906113f5565b60405180910390f35b34801561026357600080fd5b5061027e60048036038101906102799190611450565b610b3a565b60405161029096959493929190611584565b60405180910390f35b3480156102a557600080fd5b506102ae610cb3565b6040516102bb91906113f5565b60405180910390f35b3480156102d057600080fd5b506102d9610cb9565b6040516102e691906113f5565b60405180910390f35b3480156102fb57600080fd5b50610304610cbf565b604051610311919061166a565b60405180910390f35b34801561032657600080fd5b50610341600480360381019061033c91906117e6565b610cd2565b005b61035d600480360381019061035891906118c3565b610f4b565b005b34801561036b57600080fd5b50610386600480360381019061038191906118c3565b61117c565b60405161039391906113f5565b60405180910390f35b3480156103a857600080fd5b506103b1611194565b6040516103be91906113f5565b60405180910390f35b3480156103d357600080fd5b506103dc61119a565b6040516103f1999897969594939291906119ae565b60405180910390f35b6000600654905090565b6000600a60003373ffffffffffffffffffffffffffffffffffffffff1673ffffffffffffffffffffffffffffffffffffffff1681526020019081526020016000205411610486576040517f08c379a000000000000000000000000000000000000000000000000000000000815260040161047d90611ac2565b60405180910390fd5b6000600b60008381526020019081526020016000209050600015158160040160003373ffffffffffffffffffffffffffffffffffffffff1673ffffffffffffffffffffffffffffffffffffffff16815260200190815260200160002060009054906101000a900460ff16151514610532576040517f08c379a000000000000000000000000000000000000000000000000000000000815260040161052990611b2e565b60405180910390fd5b600115158160040160003373ffffffffffffffffffffffffffffffffffffffff1673ffffffffffffffffffffffffffffffffffffffff16815260200190815260200160002060009054906101000a9050505060018160030160008282546105999190611b7d565b925050819055506001600e60008282546105b39190611b7d565b925050819055507fc7f661ec8f5684e1d1153dfc3e2ddd03f7af0a5deaabd856d97eb83b37c0e92d3382600301546040516105ef929190611bc0565b60405180910390a15050565b60006001610607611369565b80600281111561061a576106196115f3565b5b600960009054906101000a900460ff16600281111561063c5761063b6115f3565b5b1461067c576040517f08c379a000000000000000000000000000000000000000000000000000000000815260040161067390611c35565b60405180910390fd5b6000600a60003373ffffffffffffffffffffffffffffffffffffffff1673ffffffffffffffffffffffffffffffffffffffff16815260200190815260200160002054116106fe576040517f08c379a00000000000000000000000000000000000000000000000000000000081526004016106f590611cc7565b60405180910390fd5b60003390508073ffffffffffffffffffffffffffffffffffffffff166108fc600a60003373ffffffffffffffffffffffffffffffffffffffff1673ffffffffffffffffffffffffffffffffffffffff168152602001908152602001600020549081150290604051600060405180830381858888f19350505050158015610788573d6000803e3d6000fd5b50600a60003373ffffffffffffffffffffffffffffffffffffffff1673ffffffffffffffffffffffffffffffffffffffff16815260200190815260200160002054600760008282546107da9190611ce7565b925050819055506000600a60003373ffffffffffffffffffffffffffffffffffffffff1673ffffffffffffffffffffffffffffffffffffffff1681526020019081526020016000208190555060019250505090565b600e5481565b6000600c54905090565b60065481565b60008054906101000a900473ffffffffffffffffffffffffffffffffffffffff1673ffffffffffffffffffffffffffffffffffffffff163373ffffffffffffffffffffffffffffffffffffffff16146108d3576040517f08c379a00000000000000000000000000000000000000000000000000000000081526004016108ca90611d67565b60405180910390fd5b60026108dd611369565b8060028111156108f0576108ef6115f3565b5b600960009054906101000a900460ff166002811115610912576109116115f3565b5b14610952576040517f08c379a000000000000000000000000000000000000000000000000000000000815260040161094990611c35565b60405180910390fd5b6000600b60008481526020019081526020016000209050600015158160050160009054906101000a900460ff161515146109c1576040517f08c379a00000000000000000000000000000000000000000000000000000000081526004016109b890611dd3565b60405180910390fd5b60026006546109d09190611e22565b816003015411610a15576040517f08c379a0000000000000000000000000000000000000000000000000000000008152600401610a0c90611ec5565b60405180910390fd5b8060050160019054906101000a900473ffffffffffffffffffffffffffffffffffffffff1673ffffffffffffffffffffffffffffffffffffffff166108fc82600201549081150290604051600060405180830381858888f19350505050158015610a83573d6000803e3d6000fd5b508060020154600754610a969190611ce7565b60078190555060018160050160006101000a81548160ff0219169083151502179055507f6fa21e9816e98d602d534c8241a2d8842692354498b6011947abe1ab92916b788382600001836001018460020154856003015460018760050160019054906101000a900473ffffffffffffffffffffffffffffffffffffffff16604051610b27979695949392919061203d565b60405180910390a1505050565b60055481565b600b602052806000526040600020600091509050806000018054610b5d90611f14565b80601f0160208091040260200160405190810160405280929190818152602001828054610b8990611f14565b8015610bd65780601f10610bab57610100808354040283529160200191610bd6565b820191906000526020600020905b815481529060010190602001808311610bb957829003601f168201915b505050505090806001018054610beb90611f14565b80601f0160208091040260200160405190810160405280929190818152602001828054610c1790611f14565b8015610c645780601f10610c3957610100808354040283529160200191610c64565b820191906000526020600020905b815481529060010190602001808311610c4757829003601f168201915b5050505050908060020154908060030154908060050160009054906101000a900460ff16908060050160019054906101000a900473ffffffffffffffffffffffffffffffffffffffff16905086565b600c5481565b60075481565b600960009054906101000a900460ff1681565b60008054906101000a900473ffffffffffffffffffffffffffffffffffffffff1673ffffffffffffffffffffffffffffffffffffffff163373ffffffffffffffffffffffffffffffffffffffff1614610d60576040517f08c379a0000000000000000000000000000000000000000000000000000000008152600401610d5790611d67565b60405180910390fd5b6002610d6a611369565b806002811115610d7d57610d7c6115f3565b5b600960009054906101000a900460ff166002811115610d9f57610d9e6115f3565b5b14610ddf576040517f08c379a0000000000000000000000000000000000000000000000000000000008152600401610dd690611c35565b60405180910390fd5b600c546002600380549050610df491906120ba565b1015610e35576040517f08c379a0000000000000000000000000000000000000000000000000000000008152600401610e2c9061216e565b60405180910390fd5b6000600b6000600c548152602001908152602001600020905085816000019081610e5f919061231b565b5084816001019081610e71919061231b565b508381600201819055506000816003018190555060008160050160006101000a81548160ff021916908315150217905550828160050160016101000a81548173ffffffffffffffffffffffffffffffffffffffff021916908373ffffffffffffffffffffffffffffffffffffffff1602179055507f82ac0fa26ae14b275cc011645161e6fc2c4901ad8cac2b1697b4d3290a602136600c5487878760008089604051610f239796959493929190612428565b60405180910390a1600c6000815480929190610f3e906124a5565b9190505550505050505050565b6000806002811115610f6057610f5f6115f3565b5b600960009054906101000a900460ff166002811115610f8257610f816115f3565b5b14610fc2576040517f08c379a0000000000000000000000000000000000000000000000000000000008152600401610fb99061255f565b60405180910390fd5b6008544210611006576040517f08c379a0000000000000000000000000000000000000000000000000000000008152600401610ffd906125cb565b60405180910390fd5b60055434118015611025575060026004546110219190611e22565b3411155b611064576040517f08c379a000000000000000000000000000000000000000000000000000000000815260040161105b90612637565b60405180910390fd5b6000600a60008473ffffffffffffffffffffffffffffffffffffffff1673ffffffffffffffffffffffffffffffffffffffff16815260200190815260200160002054036110c457600660008154809291906110be906124a5565b91905055505b34600a60008473ffffffffffffffffffffffffffffffffffffffff1673ffffffffffffffffffffffffffffffffffffffff16815260200190815260200160002060008282546111139190611b7d565b92505081905550346007600082825461112c9190611b7d565b925050819055507f5cdc4ab8d637538ead6cc1904d4160343656c8c82bd266635cfd31ac008fffe0823460075460405161116893929190612657565b60405180910390a1611178611369565b5050565b600a6020528060005260406000206000915090505481565b600d5481565b600080606060008060608060008060008054906101000a900473ffffffffffffffffffffffffffffffffffffffff1698506005549750600380548060200260200160405190810160405280929190818152602001828054801561121c57602002820191906000526020600020905b815481526020019060010190808311611208575b50505050509650600454955060075494506001805461123a90611f14565b80601f016020809104026020016040519081016040528092919081815260200182805461126690611f14565b80156112b35780601f10611288576101008083540402835291602001916112b3565b820191906000526020600020905b81548152906001019060200180831161129657829003601f168201915b50505050509350600280546112c790611f14565b80601f01602080910402602001604051908101604052809291908181526020018280546112f390611f14565b80156113405780601f1061131557610100808354040283529160200191611340565b820191906000526020600020905b81548152906001019060200180831161132357829003601f168201915b505050505092506008549150600960009054906101000a900460ff169050909192939495969798565b600454600754106113a4576002600960006101000a81548160ff0219169083600281111561139a576113996115f3565b5b02179055506113da565b60085442106113d9576001600960006101000a81548160ff021916908360028111156113d3576113d26115f3565b5b02179055505b5b565b6000819050919050565b6113ef816113dc565b82525050565b600060208201905061140a60008301846113e6565b92915050565b6000604051905090565b600080fd5b600080fd5b61142d816113dc565b811461143857600080fd5b50565b60008135905061144a81611424565b92915050565b6000602082840312156114665761146561141a565b5b60006114748482850161143b565b91505092915050565b60008115159050919050565b6114928161147d565b82525050565b60006020820190506114ad6000830184611489565b92915050565b600081519050919050565b600082825260208201905092915050565b60005b838110156114ed5780820151818401526020810190506114d2565b60008484015250505050565b6000601f19601f8301169050919050565b6000611515826114b3565b61151f81856114be565b935061152f8185602086016114cf565b611538816114f9565b840191505092915050565b600073ffffffffffffffffffffffffffffffffffffffff82169050919050565b600061156e82611543565b9050919050565b61157e81611563565b82525050565b600060c082019050818103600083015261159e818961150a565b905081810360208301526115b2818861150a565b90506115c160408301876113e6565b6115ce60608301866113e6565b6115db6080830185611489565b6115e860a0830184611575565b979650505050505050565b7f4e487b7100000000000000000000000000000000000000000000000000000000600052602160045260246000fd5b60038110611633576116326115f3565b5b50565b600081905061164482611622565b919050565b600061165482611636565b9050919050565b61166481611649565b82525050565b600060208201905061167f600083018461165b565b92915050565b600080fd5b600080fd5b7f4e487b7100000000000000000000000000000000000000000000000000000000600052604160045260246000fd5b6116c7826114f9565b810181811067ffffffffffffffff821117156116e6576116e561168f565b5b80604052505050565b60006116f9611410565b905061170582826116be565b919050565b600067ffffffffffffffff8211156117255761172461168f565b5b61172e826114f9565b9050602081019050919050565b82818337600083830152505050565b600061175d6117588461170a565b6116ef565b9050828152602081018484840111156117795761177861168a565b5b61178484828561173b565b509392505050565b600082601f8301126117a1576117a0611685565b5b81356117b184826020860161174a565b91505092915050565b6117c381611563565b81146117ce57600080fd5b50565b6000813590506117e0816117ba565b92915050565b60008060008060808587031215611800576117ff61141a565b5b600085013567ffffffffffffffff81111561181e5761181d61141f565b5b61182a8782880161178c565b945050602085013567ffffffffffffffff81111561184b5761184a61141f565b5b6118578782880161178c565b93505060406118688782880161143b565b9250506060611879878288016117d1565b91505092959194509250565b600061189082611543565b9050919050565b6118a081611885565b81146118ab57600080fd5b50565b6000813590506118bd81611897565b92915050565b6000602082840312156118d9576118d861141a565b5b60006118e7848285016118ae565b91505092915050565b600081519050919050565b600082825260208201905092915050565b6000819050602082019050919050565b611925816113dc565b82525050565b6000611937838361191c565b60208301905092915050565b6000602082019050919050565b600061195b826118f0565b61196581856118fb565b93506119708361190c565b8060005b838110156119a1578151611988888261192b565b975061199383611943565b925050600181019050611974565b5085935050505092915050565b6000610120820190506119c4600083018c611575565b6119d1602083018b6113e6565b81810360408301526119e3818a611950565b90506119f260608301896113e6565b6119ff60808301886113e6565b81810360a0830152611a11818761150a565b905081810360c0830152611a25818661150a565b9050611a3460e08301856113e6565b611a4261010083018461165b565b9a9950505050505050505050565b7f4f6e6c7920636f6e7472696275746f72732063616e20766f746520666f72207460008201527f68652063616d706169676e000000000000000000000000000000000000000000602082015250565b6000611aac602b836114be565b9150611ab782611a50565b604082019050919050565b60006020820190508181036000830152611adb81611a9f565b9050919050565b7f596f75766520766f74656420666f7220746869732063616d706169676e000000600082015250565b6000611b18601d836114be565b9150611b2382611ae2565b602082019050919050565b60006020820190508181036000830152611b4781611b0b565b9050919050565b7f4e487b7100000000000000000000000000000000000000000000000000000000600052601160045260246000fd5b6000611b88826113dc565b9150611b93836113dc565b9250828201905080821115611bab57611baa611b4e565b5b92915050565b611bba81611885565b82525050565b6000604082019050611bd56000830185611bb1565b611be260208301846113e6565b9392505050565b7f496e76616c696420537461746521000000000000000000000000000000000000600082015250565b6000611c1f600e836114be565b9150611c2a82611be9565b602082019050919050565b60006020820190508181036000830152611c4e81611c12565b9050919050565b7f596f757220636f6e747269627574696f6e20746f20746869732070726f6a656360008201527f7420697320302100000000000000000000000000000000000000000000000000602082015250565b6000611cb16027836114be565b9150611cbc82611c55565b604082019050919050565b60006020820190508181036000830152611ce081611ca4565b9050919050565b6000611cf2826113dc565b9150611cfd836113dc565b9250828203905081811115611d1557611d14611b4e565b5b92915050565b7f4e6f204163636573732100000000000000000000000000000000000000000000600082015250565b6000611d51600a836114be565b9150611d5c82611d1b565b602082019050919050565b60006020820190508181036000830152611d8081611d44565b9050919050565b7f5265717565737420436f6d706c6574656420616c726561647900000000000000600082015250565b6000611dbd6019836114be565b9150611dc882611d87565b602082019050919050565b60006020820190508181036000830152611dec81611db0565b9050919050565b7f4e487b7100000000000000000000000000000000000000000000000000000000600052601260045260246000fd5b6000611e2d826113dc565b9150611e38836113dc565b925082611e4857611e47611df3565b5b828204905092915050565b7f566f74652070657263656e74616765206973206c657373207468616e2035302560008201527f2063616e6e6f742077697468647261772066756e640000000000000000000000602082015250565b6000611eaf6035836114be565b9150611eba82611e53565b604082019050919050565b60006020820190508181036000830152611ede81611ea2565b9050919050565b7f4e487b7100000000000000000000000000000000000000000000000000000000600052602260045260246000fd5b60006002820490506001821680611f2c57607f821691505b602082108103611f3f57611f3e611ee5565b5b50919050565b60008190508160005260206000209050919050565b60008154611f6781611f14565b611f7181866114be565b94506001821660008114611f8c5760018114611fa257611fd5565b60ff198316865281151560200286019350611fd5565b611fab85611f45565b60005b83811015611fcd57815481890152600182019150602081019050611fae565b808801955050505b50505092915050565b6000819050919050565b6000612003611ffe611ff984611543565b611fde565b611543565b9050919050565b600061201582611fe8565b9050919050565b60006120278261200a565b9050919050565b6120378161201c565b82525050565b600060e082019050612052600083018a6113e6565b81810360208301526120648189611f5a565b905081810360408301526120788188611f5a565b905061208760608301876113e6565b61209460808301866113e6565b6120a160a0830185611489565b6120ae60c083018461202e565b98975050505050505050565b60006120c5826113dc565b91506120d0836113dc565b92508282026120de816113dc565b915082820484148315176120f5576120f4611b4e565b5b5092915050565b7f43616e6e6f742077697468647261772066756e647320616c6c2072657175657360008201527f7420686173206265656e20636f6d706c65746564000000000000000000000000602082015250565b60006121586034836114be565b9150612163826120fc565b604082019050919050565b600060208201905081810360008301526121878161214b565b9050919050565b60006020601f8301049050919050565b600082821b905092915050565b6000600883026121db7fffffffffffffffffffffffffffffffffffffffffffffffffffffffffffffffff8261219e565b6121e5868361219e565b95508019841693508086168417925050509392505050565b600061221861221361220e846113dc565b611fde565b6113dc565b9050919050565b6000819050919050565b612232836121fd565b61224661223e8261221f565b8484546121ab565b825550505050565b600090565b61225b61224e565b612266818484612229565b505050565b5b8181101561228a5761227f600082612253565b60018101905061226c565b5050565b601f8211156122cf576122a081611f45565b6122a98461218e565b810160208510156122b8578190505b6122cc6122c48561218e565b83018261226b565b50505b505050565b600082821c905092915050565b60006122f2600019846008026122d4565b1980831691505092915050565b600061230b83836122e1565b9150826002028217905092915050565b612324826114b3565b67ffffffffffffffff81111561233d5761233c61168f565b5b6123478254611f14565b61235282828561228e565b600060209050601f8311600181146123855760008415612373578287015190505b61237d85826122ff565b8655506123e5565b601f19841661239386611f45565b60005b828110156123bb57848901518255600182019150602085019450602081019050612396565b868310156123d857848901516123d4601f8916826122e1565b8355505b6001600288020188555050505b505050505050565b6000819050919050565b600061241261240d612408846123ed565b611fde565b6113dc565b9050919050565b612422816123f7565b82525050565b600060e08201905061243d600083018a6113e6565b818103602083015261244f818961150a565b90508181036040830152612463818861150a565b905061247260608301876113e6565b61247f6080830186612419565b61248c60a0830185611489565b61249960c083018461202e565b98975050505050505050565b60006124b0826113dc565b91507fffffffffffffffffffffffffffffffffffffffffffffffffffffffffffffffff82036124e2576124e1611b4e565b5b600182019050919050565b7f496e76616c69642053746174652043616e6e6f7420496e7665737420696e207460008201527f6869732063616d706169676e0000000000000000000000000000000000000000602082015250565b6000612549602c836114be565b9150612554826124ed565b604082019050919050565b600060208201905081810360008301526125788161253c565b9050919050565b7f446561646c696e65205061737365642100000000000000000000000000000000600082015250565b60006125b56010836114be565b91506125c08261257f565b602082019050919050565b600060208201905081810360008301526125e4816125a8565b9050919050565b7f436f6e747269627574696f6e20616d6f756e7420746f6f206c6f772021000000600082015250565b6000612621601d836114be565b915061262c826125eb565b602082019050919050565b6000602082019050818103600083015261265081612614565b9050919050565b600060608201905061266c6000830186611bb1565b61267960208301856113e6565b61268660408301846113e6565b94935050505056fea2646970667358221220b5dc48f9ed7784d19214b3ba82a44853b36bbad9a5646ac4fa86b53f5f60561264736f6c63430008110033a26469706673582212204e814df3887835a8f5ac0a2ea92ae710280b61f77a8a6bc10bed16d3e0d7e6dd64736f6c63430008110033",
  "linkReferences": {},
  "deployedLinkReferences": {}
}