{"contracts/CrowdFund.sol":{"CrowdFund":{"abi":[{"anonymous":false,"inputs":[{"indexed":false,"internalType":"contract Project","name":"projectAddress","type":"address"},{"indexed":false,"internalType":"uint256","name":"amountRecieved","type":"uint256"},{"indexed":true,"internalType":"address","name":"contributor","type":"address"}],"name":"fundingReceived","type":"event"},{"anonymous":false,"inputs":[{"indexed":false,"internalType":"contract Project","name":"projectAddress","type":"address"},{"indexed":false,"internalType":"address","name":"projectCreator","type":"address"},{"indexed":false,"internalType":"string","name":"projectName","type":"string"},{"indexed":false,"internalType":"string","name":"projectDescription","type":"string"},{"indexed":false,"internalType":"uint256[]","name":"timeline","type":"uint256[]"},{"indexed":false,"internalType":"uint256","name":"targetAmount","type":"uint256"},{"indexed":false,"internalType":"uint256","name":"minimumContribution","type":"uint256"},{"indexed":false,"internalType":"uint256","name":"numberOfContributors","type":"uint256"},{"indexed":false,"internalType":"uint256","name":"raisedAmount","type":"uint256"},{"indexed":false,"internalType":"uint256","name":"fundraisingDeadline","type":"uint256"},{"indexed":false,"internalType":"uint256","name":"CurrentState","type":"uint256"}],"name":"projectStarted","type":"event"},{"inputs":[{"internalType":"string","name":"_description","type":"string"},{"internalType":"string","name":"_IPFSfileHash","type":"string"},{"internalType":"uint256","name":"_amount","type":"uint256"}],"name":"CreateFundRequest","outputs":[],"stateMutability":"nonpayable","type":"function"},{"inputs":[{"internalType":"contract Project","name":"_projectAddress","type":"address"}],"name":"contribute","outputs":[],"stateMutability":"payable","type":"function"},{"inputs":[{"internalType":"string","name":"projectName","type":"string"},{"internalType":"string","name":"projectDescription","type":"string"},{"internalType":"uint256[]","name":"timeline","type":"uint256[]"},{"internalType":"uint256","name":"targetAmount","type":"uint256"},{"internalType":"uint256","name":"minimumContribution","type":"uint256"},{"internalType":"uint256","name":"fundraisingDeadline","type":"uint256"}],"name":"createProject","outputs":[],"stateMutability":"nonpayable","type":"function"},{"inputs":[],"name":"createRefundRequest","outputs":[],"stateMutability":"view","type":"function"},{"inputs":[],"name":"getProjectBalance","outputs":[{"internalType":"uint256","name":"amount","type":"uint256"}],"stateMutability":"view","type":"function"},{"inputs":[],"name":"getProjectInformation","outputs":[{"internalType":"address payable","name":"projectStarter","type":"address"},{"internalType":"uint256","name":"minContribution","type":"uint256"},{"internalType":"uint256[]","name":"projectDeadline","type":"uint256[]"},{"internalType":"uint256","name":"goalAmount","type":"uint256"},{"internalType":"uint256","name":"currentAmount","type":"uint256"},{"internalType":"string","name":"title","type":"string"},{"internalType":"string","name":"desc","type":"string"},{"internalType":"uint256","name":"fundraisingDL","type":"uint256"},{"internalType":"enum Types.ProjectStates","name":"CurrentProjectState","type":"uint8"}],"stateMutability":"view","type":"function"},{"inputs":[],"name":"getTotalProjects","outputs":[{"internalType":"contract Project[]","name":"","type":"address[]"}],"stateMutability":"view","type":"function"},{"inputs":[],"name":"objectAdd","outputs":[{"internalType":"contract Project","name":"","type":"address"}],"stateMutability":"view","type":"function"},{"inputs":[{"internalType":"contract Project","name":"p","type":"address"}],"name":"storeAdd","outputs":[],"stateMutability":"nonpayable","type":"function"},{"inputs":[{"internalType":"uint256","name":"requestID","type":"uint256"}],"name":"withdrawAmount","outputs":[],"stateMutability":"nonpayable","type":"function"},{"inputs":[{"internalType":"uint256","name":"requestID","type":"uint256"}],"name":"withdrawlVoting","outputs":[],"stateMutability":"nonpayable","type":"function"}],"evm":{"bytecode":{"linkReferences":{},"object":"608060405234801561001057600080fd5b5061483d806100206000396000f3fe608060405260043610620000aa5760003560e01c806373e888fd116200006d57806373e888fd146200018b5780637a7e7a6b14620001ab5780637d7b87fe14620001d9578063812739a214620002075780639a274fff1462000237578063c4612adf146200026757620000aa565b80630562b9f714620000af578063465c2e2f14620000dd57806356eccc1f1462000115578063588c161b14620001435780635b1994751462000171575b600080fd5b348015620000bc57600080fd5b50620000db6004803603810190620000d59190620009dd565b62000297565b005b348015620000ea57600080fd5b50620000f562000331565b6040516200010c9998979695949392919062000c4d565b60405180910390f35b3480156200012257600080fd5b506200014160048036038101906200013b919062000d5a565b620003fb565b005b3480156200015057600080fd5b506200016f600480360381019062000169919062000fb8565b6200043f565b005b3480156200017e57600080fd5b506200018962000543565b005b620001a96004803603810190620001a3919062000d5a565b6200056d565b005b348015620001b857600080fd5b50620001d76004803603810190620001d19190620010b1565b620006ee565b005b348015620001e657600080fd5b50620002056004803603810190620001ff9190620009dd565b62000790565b005b3480156200021457600080fd5b506200021f6200082a565b6040516200022e919062001273565b60405180910390f35b3480156200024457600080fd5b506200024f620008ba565b6040516200025e919062001297565b60405180910390f35b3480156200027457600080fd5b506200027f6200095a565b6040516200028e9190620012c5565b60405180910390f35b6000600160009054906101000a900473ffffffffffffffffffffffffffffffffffffffff1690508073ffffffffffffffffffffffffffffffffffffffff1663698bbebd836040518263ffffffff1660e01b8152600401620002f9919062001297565b600060405180830381600087803b1580156200031457600080fd5b505af115801562000329573d6000803e3d6000fd5b505050505050565b60008060606000806060806000806000600160009054906101000a900473ffffffffffffffffffffffffffffffffffffffff1690508073ffffffffffffffffffffffffffffffffffffffff1663ff3a9c7e6040518163ffffffff1660e01b8152600401600060405180830381865afa158015620003b2573d6000803e3d6000fd5b505050506040513d6000823e3d601f19601f82011682018060405250810190620003dd919062001477565b99509950995099509950995099509950995050909192939495969798565b80600160006101000a81548173ffffffffffffffffffffffffffffffffffffffff021916908373ffffffffffffffffffffffffffffffffffffffff16021790555050565b600033878787878787604051620004569062000980565b620004689796959493929190620015b3565b604051809103906000f08015801562000485573d6000803e3d6000fd5b5090506000819080600181540180825580915050600190039060005260206000200160009091909190916101000a81548173ffffffffffffffffffffffffffffffffffffffff021916908373ffffffffffffffffffffffffffffffffffffffff1602179055507fe6f3128472ef91f58238da75a82272efe3f70d8c65f039111eb0785fde6fcfda813389898989896000808b6000604051620005329b9a9998979695949392919062001699565b60405180910390a150505050505050565b6000600160009054906101000a900473ffffffffffffffffffffffffffffffffffffffff16905050565b60008173ffffffffffffffffffffffffffffffffffffffff1663937e09b16040518163ffffffff1660e01b8152600401602060405180830381865afa158015620005bb573d6000803e3d6000fd5b505050506040513d601f19601f82011682018060405250810190620005e191906200176f565b905080341162000628576040517f08c379a00000000000000000000000000000000000000000000000000000000081526004016200061f90620017f1565b60405180910390fd5b8173ffffffffffffffffffffffffffffffffffffffff1663e2dc431034336040518363ffffffff1660e01b815260040162000664919062001813565b6000604051808303818588803b1580156200067e57600080fd5b505af115801562000693573d6000803e3d6000fd5b50505050503373ffffffffffffffffffffffffffffffffffffffff167ff3f0d2aef319d16a4cabe88719456ccd50d3e118a22c76e59bc7a344926fda388334604051620006e292919062001830565b60405180910390a25050565b6000600160009054906101000a900473ffffffffffffffffffffffffffffffffffffffff1690508073ffffffffffffffffffffffffffffffffffffffff1663d61ba69d858585336040518563ffffffff1660e01b81526004016200075694939291906200185d565b600060405180830381600087803b1580156200077157600080fd5b505af115801562000786573d6000803e3d6000fd5b5050505050505050565b6000600160009054906101000a900473ffffffffffffffffffffffffffffffffffffffff1690508073ffffffffffffffffffffffffffffffffffffffff1663286426a1836040518263ffffffff1660e01b8152600401620007f2919062001297565b600060405180830381600087803b1580156200080d57600080fd5b505af115801562000822573d6000803e3d6000fd5b505050505050565b60606000805480602002602001604051908101604052809291908181526020018280548015620008b057602002820191906000526020600020905b8160009054906101000a900473ffffffffffffffffffffffffffffffffffffffff1673ffffffffffffffffffffffffffffffffffffffff168152602001906001019080831162000865575b5050505050905090565b600080600160009054906101000a900473ffffffffffffffffffffffffffffffffffffffff1690508073ffffffffffffffffffffffffffffffffffffffff1663c59ee1dc6040518163ffffffff1660e01b8152600401602060405180830381865afa1580156200092e573d6000803e3d6000fd5b505050506040513d601f19601f820116820180604052508101906200095491906200176f565b91505090565b600160009054906101000a900473ffffffffffffffffffffffffffffffffffffffff1681565b612f4f80620018b983390190565b6000604051905090565b600080fd5b600080fd5b6000819050919050565b620009b781620009a2565b8114620009c357600080fd5b50565b600081359050620009d781620009ac565b92915050565b600060208284031215620009f657620009f562000998565b5b600062000a0684828501620009c6565b91505092915050565b600073ffffffffffffffffffffffffffffffffffffffff82169050919050565b600062000a3c8262000a0f565b9050919050565b62000a4e8162000a2f565b82525050565b62000a5f81620009a2565b82525050565b600081519050919050565b600082825260208201905092915050565b6000819050602082019050919050565b62000a9c81620009a2565b82525050565b600062000ab0838362000a91565b60208301905092915050565b6000602082019050919050565b600062000ad68262000a65565b62000ae2818562000a70565b935062000aef8362000a81565b8060005b8381101562000b2657815162000b0a888262000aa2565b975062000b178362000abc565b92505060018101905062000af3565b5085935050505092915050565b600081519050919050565b600082825260208201905092915050565b60005b8381101562000b6f57808201518184015260208101905062000b52565b60008484015250505050565b6000601f19601f8301169050919050565b600062000b998262000b33565b62000ba5818562000b3e565b935062000bb781856020860162000b4f565b62000bc28162000b7b565b840191505092915050565b7f4e487b7100000000000000000000000000000000000000000000000000000000600052602160045260246000fd5b6003811062000c105762000c0f62000bcd565b5b50565b600081905062000c238262000bfc565b919050565b600062000c358262000c13565b9050919050565b62000c478162000c28565b82525050565b60006101208201905062000c65600083018c62000a43565b62000c74602083018b62000a54565b818103604083015262000c88818a62000ac9565b905062000c99606083018962000a54565b62000ca8608083018862000a54565b81810360a083015262000cbc818762000b8c565b905081810360c083015262000cd2818662000b8c565b905062000ce360e083018562000a54565b62000cf361010083018462000c3c565b9a9950505050505050505050565b600062000d0e8262000a0f565b9050919050565b600062000d228262000d01565b9050919050565b62000d348162000d15565b811462000d4057600080fd5b50565b60008135905062000d548162000d29565b92915050565b60006020828403121562000d735762000d7262000998565b5b600062000d838482850162000d43565b91505092915050565b600080fd5b600080fd5b7f4e487b7100000000000000000000000000000000000000000000000000000000600052604160045260246000fd5b62000dd08262000b7b565b810181811067ffffffffffffffff8211171562000df25762000df162000d96565b5b80604052505050565b600062000e076200098e565b905062000e15828262000dc5565b919050565b600067ffffffffffffffff82111562000e385762000e3762000d96565b5b62000e438262000b7b565b9050602081019050919050565b82818337600083830152505050565b600062000e7662000e708462000e1a565b62000dfb565b90508281526020810184848401111562000e955762000e9462000d91565b5b62000ea284828562000e50565b509392505050565b600082601f83011262000ec25762000ec162000d8c565b5b813562000ed484826020860162000e5f565b91505092915050565b600067ffffffffffffffff82111562000efb5762000efa62000d96565b5b602082029050602081019050919050565b600080fd5b600062000f2862000f228462000edd565b62000dfb565b9050808382526020820190506020840283018581111562000f4e5762000f4d62000f0c565b5b835b8181101562000f7b578062000f668882620009c6565b84526020840193505060208101905062000f50565b5050509392505050565b600082601f83011262000f9d5762000f9c62000d8c565b5b813562000faf84826020860162000f11565b91505092915050565b60008060008060008060c0878903121562000fd85762000fd762000998565b5b600087013567ffffffffffffffff81111562000ff95762000ff86200099d565b5b6200100789828a0162000eaa565b965050602087013567ffffffffffffffff8111156200102b576200102a6200099d565b5b6200103989828a0162000eaa565b955050604087013567ffffffffffffffff8111156200105d576200105c6200099d565b5b6200106b89828a0162000f85565b94505060606200107e89828a01620009c6565b93505060806200109189828a01620009c6565b92505060a0620010a489828a01620009c6565b9150509295509295509295565b600080600060608486031215620010cd57620010cc62000998565b5b600084013567ffffffffffffffff811115620010ee57620010ed6200099d565b5b620010fc8682870162000eaa565b935050602084013567ffffffffffffffff81111562001120576200111f6200099d565b5b6200112e8682870162000eaa565b92505060406200114186828701620009c6565b9150509250925092565b600081519050919050565b600082825260208201905092915050565b6000819050602082019050919050565b6000819050919050565b6000620011a26200119c620011968462000a0f565b62001177565b62000a0f565b9050919050565b6000620011b68262001181565b9050919050565b6000620011ca82620011a9565b9050919050565b620011dc81620011bd565b82525050565b6000620011f08383620011d1565b60208301905092915050565b6000602082019050919050565b600062001216826200114b565b62001222818562001156565b93506200122f8362001167565b8060005b83811015620012665781516200124a8882620011e2565b97506200125783620011fc565b92505060018101905062001233565b5085935050505092915050565b600060208201905081810360008301526200128f818462001209565b905092915050565b6000602082019050620012ae600083018462000a54565b92915050565b620012bf81620011bd565b82525050565b6000602082019050620012dc6000830184620012b4565b92915050565b620012ed8162000a2f565b8114620012f957600080fd5b50565b6000815190506200130d81620012e2565b92915050565b6000815190506200132481620009ac565b92915050565b6000620013416200133b8462000edd565b62000dfb565b9050808382526020820190506020840283018581111562001367576200136662000f0c565b5b835b818110156200139457806200137f888262001313565b84526020840193505060208101905062001369565b5050509392505050565b600082601f830112620013b657620013b562000d8c565b5b8151620013c88482602086016200132a565b91505092915050565b6000620013e8620013e28462000e1a565b62000dfb565b90508281526020810184848401111562001407576200140662000d91565b5b6200141484828562000b4f565b509392505050565b600082601f83011262001434576200143362000d8c565b5b815162001446848260208601620013d1565b91505092915050565b600381106200145d57600080fd5b50565b60008151905062001471816200144f565b92915050565b60008060008060008060008060006101208a8c0312156200149d576200149c62000998565b5b6000620014ad8c828d01620012fc565b9950506020620014c08c828d0162001313565b98505060408a015167ffffffffffffffff811115620014e457620014e36200099d565b5b620014f28c828d016200139e565b9750506060620015058c828d0162001313565b9650506080620015188c828d0162001313565b95505060a08a015167ffffffffffffffff8111156200153c576200153b6200099d565b5b6200154a8c828d016200141c565b94505060c08a015167ffffffffffffffff8111156200156e576200156d6200099d565b5b6200157c8c828d016200141c565b93505060e06200158f8c828d0162001313565b925050610100620015a38c828d0162001460565b9150509295985092959850929598565b600060e082019050620015ca600083018a62000a43565b8181036020830152620015de818962000b8c565b90508181036040830152620015f4818862000b8c565b905081810360608301526200160a818762000ac9565b90506200161b608083018662000a54565b6200162a60a083018562000a54565b6200163960c083018462000a54565b98975050505050505050565b620016508162000d01565b82525050565b6000819050919050565b6000620016816200167b620016758462001656565b62001177565b620009a2565b9050919050565b620016938162001660565b82525050565b600061016082019050620016b1600083018e620012b4565b620016c0602083018d62001645565b8181036040830152620016d4818c62000b8c565b90508181036060830152620016ea818b62000b8c565b9050818103608083015262001700818a62000ac9565b90506200171160a083018962000a54565b6200172060c083018862000a54565b6200172f60e083018762001688565b6200173f61010083018662001688565b6200174f61012083018562000a54565b6200175f61014083018462001688565b9c9b505050505050505050505050565b60006020828403121562001788576200178762000998565b5b6000620017988482850162001313565b91505092915050565b7f436f6e747269627574696f6e20616d6f756e74206973206c6f77202100000000600082015250565b6000620017d9601c8362000b3e565b9150620017e682620017a1565b602082019050919050565b600060208201905081810360008301526200180c81620017ca565b9050919050565b60006020820190506200182a600083018462001645565b92915050565b6000604082019050620018476000830185620012b4565b62001856602083018462000a54565b9392505050565b6000608082019050818103600083015262001879818762000b8c565b905081810360208301526200188f818662000b8c565b9050620018a0604083018562000a54565b620018af606083018462000a43565b9594505050505056fe60806040526000600960006101000a81548160ff021916908360028111156200002d576200002c62000185565b5b02179055506000600c55600754600d556000600e553480156200004f57600080fd5b5060405162002f4f38038062002f4f8339818101604052810190620000759190620004c2565b866000806101000a81548173ffffffffffffffffffffffffffffffffffffffff021916908373ffffffffffffffffffffffffffffffffffffffff1602179055508560019081620000c6919062000813565b508460029081620000d8919062000813565b508360039080519060200190620000f192919062000114565b5082600481905550816005819055508060088190555050505050505050620008fa565b82805482825590600052602060002090810192821562000153579160200282015b828111156200015257825182559160200191906001019062000135565b5b50905062000162919062000166565b5090565b5b808211156200018157600081600090555060010162000167565b5090565b7f4e487b7100000000000000000000000000000000000000000000000000000000600052602160045260246000fd5b6000604051905090565b600080fd5b600080fd5b600073ffffffffffffffffffffffffffffffffffffffff82169050919050565b6000620001f582620001c8565b9050919050565b6200020781620001e8565b81146200021357600080fd5b50565b6000815190506200022781620001fc565b92915050565b600080fd5b600080fd5b6000601f19601f8301169050919050565b7f4e487b7100000000000000000000000000000000000000000000000000000000600052604160045260246000fd5b620002828262000237565b810181811067ffffffffffffffff82111715620002a457620002a362000248565b5b80604052505050565b6000620002b9620001b4565b9050620002c7828262000277565b919050565b600067ffffffffffffffff821115620002ea57620002e962000248565b5b620002f58262000237565b9050602081019050919050565b60005b838110156200032257808201518184015260208101905062000305565b60008484015250505050565b6000620003456200033f84620002cc565b620002ad565b90508281526020810184848401111562000364576200036362000232565b5b6200037184828562000302565b509392505050565b600082601f8301126200039157620003906200022d565b5b8151620003a38482602086016200032e565b91505092915050565b600067ffffffffffffffff821115620003ca57620003c962000248565b5b602082029050602081019050919050565b600080fd5b6000819050919050565b620003f581620003e0565b81146200040157600080fd5b50565b6000815190506200041581620003ea565b92915050565b6000620004326200042c84620003ac565b620002ad565b90508083825260208201905060208402830185811115620004585762000457620003db565b5b835b8181101562000485578062000470888262000404565b8452602084019350506020810190506200045a565b5050509392505050565b600082601f830112620004a757620004a66200022d565b5b8151620004b98482602086016200041b565b91505092915050565b600080600080600080600060e0888a031215620004e457620004e3620001be565b5b6000620004f48a828b0162000216565b975050602088015167ffffffffffffffff811115620005185762000517620001c3565b5b620005268a828b0162000379565b965050604088015167ffffffffffffffff8111156200054a5762000549620001c3565b5b620005588a828b0162000379565b955050606088015167ffffffffffffffff8111156200057c576200057b620001c3565b5b6200058a8a828b016200048f565b94505060806200059d8a828b0162000404565b93505060a0620005b08a828b0162000404565b92505060c0620005c38a828b0162000404565b91505092959891949750929550565b600081519050919050565b7f4e487b7100000000000000000000000000000000000000000000000000000000600052602260045260246000fd5b600060028204905060018216806200062557607f821691505b6020821081036200063b576200063a620005dd565b5b50919050565b60008190508160005260206000209050919050565b60006020601f8301049050919050565b600082821b905092915050565b600060088302620006a57fffffffffffffffffffffffffffffffffffffffffffffffffffffffffffffffff8262000666565b620006b1868362000666565b95508019841693508086168417925050509392505050565b6000819050919050565b6000620006f4620006ee620006e884620003e0565b620006c9565b620003e0565b9050919050565b6000819050919050565b6200071083620006d3565b620007286200071f82620006fb565b84845462000673565b825550505050565b600090565b6200073f62000730565b6200074c81848462000705565b505050565b5b8181101562000774576200076860008262000735565b60018101905062000752565b5050565b601f821115620007c3576200078d8162000641565b620007988462000656565b81016020851015620007a8578190505b620007c0620007b78562000656565b83018262000751565b50505b505050565b600082821c905092915050565b6000620007e860001984600802620007c8565b1980831691505092915050565b6000620008038383620007d5565b9150826002028217905092915050565b6200081e82620005d2565b67ffffffffffffffff8111156200083a576200083962000248565b5b6200084682546200060c565b6200085382828562000778565b600060209050601f8311600181146200088b576000841562000876578287015190505b620008828582620007f5565b865550620008f2565b601f1984166200089b8662000641565b60005b82811015620008c5578489015182556001820191506020850194506020810190506200089e565b86831015620008e55784890151620008e1601f891682620007d5565b8355505b6001600288020188555050505b505050505050565b612645806200090a6000396000f3fe6080604052600436106100fe5760003560e01c8063992a7dfb11610095578063d61ba69d11610064578063d61ba69d1461031a578063e2dc431014610343578063f106501d1461035f578063f7ffbd851461039c578063ff3a9c7e146103c7576100fe565b8063992a7dfb14610257578063b40141bf14610299578063c59ee1dc146102c4578063c5debbd7146102ef576100fe565b80633410452a116100d15780633410452a146101ad5780634377cf65146101d8578063698bbebd14610203578063937e09b11461022c576100fe565b806311174a2914610103578063286426a11461012e5780632de0ec02146101575780633293943f14610182575b600080fd5b34801561010f57600080fd5b506101186103fa565b60405161012591906113b8565b60405180910390f35b34801561013a57600080fd5b5061015560048036038101906101509190611413565b610404565b005b34801561016357600080fd5b5061016c6105fb565b604051610179919061145b565b60405180910390f35b34801561018e57600080fd5b5061019761082f565b6040516101a491906113b8565b60405180910390f35b3480156101b957600080fd5b506101c2610835565b6040516101cf91906113b8565b60405180910390f35b3480156101e457600080fd5b506101ed61083f565b6040516101fa91906113b8565b60405180910390f35b34801561020f57600080fd5b5061022a60048036038101906102259190611413565b610845565b005b34801561023857600080fd5b50610241610b1c565b60405161024e91906113b8565b60405180910390f35b34801561026357600080fd5b5061027e60048036038101906102799190611413565b610b22565b60405161029096959493929190611547565b60405180910390f35b3480156102a557600080fd5b506102ae610c9b565b6040516102bb91906113b8565b60405180910390f35b3480156102d057600080fd5b506102d9610ca1565b6040516102e691906113b8565b60405180910390f35b3480156102fb57600080fd5b50610304610ca7565b604051610311919061162d565b60405180910390f35b34801561032657600080fd5b50610341600480360381019061033c91906117a9565b610cba565b005b61035d60048036038101906103589190611886565b610f27565b005b34801561036b57600080fd5b5061038660048036038101906103819190611886565b61113f565b60405161039391906113b8565b60405180910390f35b3480156103a857600080fd5b506103b1611157565b6040516103be91906113b8565b60405180910390f35b3480156103d357600080fd5b506103dc61115d565b6040516103f199989796959493929190611971565b60405180910390f35b6000600654905090565b6000600a60003373ffffffffffffffffffffffffffffffffffffffff1673ffffffffffffffffffffffffffffffffffffffff1681526020019081526020016000205411610486576040517f08c379a000000000000000000000000000000000000000000000000000000000815260040161047d90611a85565b60405180910390fd5b6000600b60008381526020019081526020016000209050600015158160040160003373ffffffffffffffffffffffffffffffffffffffff1673ffffffffffffffffffffffffffffffffffffffff16815260200190815260200160002060009054906101000a900460ff16151514610532576040517f08c379a000000000000000000000000000000000000000000000000000000000815260040161052990611af1565b60405180910390fd5b600115158160040160003373ffffffffffffffffffffffffffffffffffffffff1673ffffffffffffffffffffffffffffffffffffffff16815260200190815260200160002060009054906101000a9050505060018160030160008282546105999190611b40565b925050819055506001600e60008282546105b39190611b40565b925050819055507fc7f661ec8f5684e1d1153dfc3e2ddd03f7af0a5deaabd856d97eb83b37c0e92d3382600301546040516105ef929190611b83565b60405180910390a15050565b6000600161060761132c565b80600281111561061a576106196115b6565b5b600960009054906101000a900460ff16600281111561063c5761063b6115b6565b5b1461067c576040517f08c379a000000000000000000000000000000000000000000000000000000000815260040161067390611bf8565b60405180910390fd5b6000600a60003373ffffffffffffffffffffffffffffffffffffffff1673ffffffffffffffffffffffffffffffffffffffff16815260200190815260200160002054116106fe576040517f08c379a00000000000000000000000000000000000000000000000000000000081526004016106f590611c8a565b60405180910390fd5b60003390508073ffffffffffffffffffffffffffffffffffffffff166108fc600a60003373ffffffffffffffffffffffffffffffffffffffff1673ffffffffffffffffffffffffffffffffffffffff168152602001908152602001600020549081150290604051600060405180830381858888f19350505050158015610788573d6000803e3d6000fd5b50600a60003373ffffffffffffffffffffffffffffffffffffffff1673ffffffffffffffffffffffffffffffffffffffff16815260200190815260200160002054600760008282546107da9190611caa565b925050819055506000600a60003373ffffffffffffffffffffffffffffffffffffffff1673ffffffffffffffffffffffffffffffffffffffff1681526020019081526020016000208190555060019250505090565b600e5481565b6000600c54905090565b60065481565b60008054906101000a900473ffffffffffffffffffffffffffffffffffffffff1673ffffffffffffffffffffffffffffffffffffffff163373ffffffffffffffffffffffffffffffffffffffff16146108d3576040517f08c379a00000000000000000000000000000000000000000000000000000000081526004016108ca90611d2a565b60405180910390fd5b60026108dd61132c565b8060028111156108f0576108ef6115b6565b5b600960009054906101000a900460ff166002811115610912576109116115b6565b5b14610952576040517f08c379a000000000000000000000000000000000000000000000000000000000815260040161094990611bf8565b60405180910390fd5b6000600b60008481526020019081526020016000209050600015158160050160009054906101000a900460ff161515146109c1576040517f08c379a00000000000000000000000000000000000000000000000000000000081526004016109b890611d96565b60405180910390fd5b60026006546109d09190611de5565b816003015411610a15576040517f08c379a0000000000000000000000000000000000000000000000000000000008152600401610a0c90611e88565b60405180910390fd5b8060050160019054906101000a900473ffffffffffffffffffffffffffffffffffffffff1673ffffffffffffffffffffffffffffffffffffffff166108fc82600201549081150290604051600060405180830381858888f19350505050158015610a83573d6000803e3d6000fd5b5060018160050160006101000a81548160ff0219169083151502179055507f6fa21e9816e98d602d534c8241a2d8842692354498b6011947abe1ab92916b788382600001836001018460020154856003015460018760050160019054906101000a900473ffffffffffffffffffffffffffffffffffffffff16604051610b0f9796959493929190612000565b60405180910390a1505050565b60055481565b600b602052806000526040600020600091509050806000018054610b4590611ed7565b80601f0160208091040260200160405190810160405280929190818152602001828054610b7190611ed7565b8015610bbe5780601f10610b9357610100808354040283529160200191610bbe565b820191906000526020600020905b815481529060010190602001808311610ba157829003601f168201915b505050505090806001018054610bd390611ed7565b80601f0160208091040260200160405190810160405280929190818152602001828054610bff90611ed7565b8015610c4c5780601f10610c2157610100808354040283529160200191610c4c565b820191906000526020600020905b815481529060010190602001808311610c2f57829003601f168201915b5050505050908060020154908060030154908060050160009054906101000a900460ff16908060050160019054906101000a900473ffffffffffffffffffffffffffffffffffffffff16905086565b600c5481565b60075481565b600960009054906101000a900460ff1681565b60008054906101000a900473ffffffffffffffffffffffffffffffffffffffff1673ffffffffffffffffffffffffffffffffffffffff163373ffffffffffffffffffffffffffffffffffffffff1614610d48576040517f08c379a0000000000000000000000000000000000000000000000000000000008152600401610d3f90611d2a565b60405180910390fd5b6002610d5261132c565b806002811115610d6557610d646115b6565b5b600960009054906101000a900460ff166002811115610d8757610d866115b6565b5b14610dc7576040517f08c379a0000000000000000000000000000000000000000000000000000000008152600401610dbe90611bf8565b60405180910390fd5b600c546003805490501015610e11576040517f08c379a0000000000000000000000000000000000000000000000000000000008152600401610e08906120ef565b60405180910390fd5b6000600b6000600c548152602001908152602001600020905085816000019081610e3b919061229c565b5084816001019081610e4d919061229c565b508381600201819055506000816003018190555060008160050160006101000a81548160ff021916908315150217905550828160050160016101000a81548173ffffffffffffffffffffffffffffffffffffffff021916908373ffffffffffffffffffffffffffffffffffffffff1602179055507f82ac0fa26ae14b275cc011645161e6fc2c4901ad8cac2b1697b4d3290a602136600c5487878760008089604051610eff97969594939291906123a9565b60405180910390a1600c6000815480929190610f1a90612426565b9190505550505050505050565b6000806002811115610f3c57610f3b6115b6565b5b600960009054906101000a900460ff166002811115610f5e57610f5d6115b6565b5b14610f9e576040517f08c379a0000000000000000000000000000000000000000000000000000000008152600401610f95906124e0565b60405180910390fd5b6008544210610fe2576040517f08c379a0000000000000000000000000000000000000000000000000000000008152600401610fd99061254c565b60405180910390fd5b600554341015611027576040517f08c379a000000000000000000000000000000000000000000000000000000000815260040161101e906125b8565b60405180910390fd5b6000600a60008473ffffffffffffffffffffffffffffffffffffffff1673ffffffffffffffffffffffffffffffffffffffff1681526020019081526020016000205403611087576006600081548092919061108190612426565b91905055505b34600a60008473ffffffffffffffffffffffffffffffffffffffff1673ffffffffffffffffffffffffffffffffffffffff16815260200190815260200160002060008282546110d69190611b40565b9250508190555034600760008282546110ef9190611b40565b925050819055507f5cdc4ab8d637538ead6cc1904d4160343656c8c82bd266635cfd31ac008fffe0823460075460405161112b939291906125d8565b60405180910390a161113b61132c565b5050565b600a6020528060005260406000206000915090505481565b600d5481565b600080606060008060608060008060008054906101000a900473ffffffffffffffffffffffffffffffffffffffff169850600554975060038054806020026020016040519081016040528092919081815260200182805480156111df57602002820191906000526020600020905b8154815260200190600101908083116111cb575b5050505050965060045495506007549450600180546111fd90611ed7565b80601f016020809104026020016040519081016040528092919081815260200182805461122990611ed7565b80156112765780601f1061124b57610100808354040283529160200191611276565b820191906000526020600020905b81548152906001019060200180831161125957829003601f168201915b505050505093506002805461128a90611ed7565b80601f01602080910402602001604051908101604052809291908181526020018280546112b690611ed7565b80156113035780601f106112d857610100808354040283529160200191611303565b820191906000526020600020905b8154815290600101906020018083116112e657829003601f168201915b505050505092506008549150600960009054906101000a900460ff169050909192939495969798565b60045460075410611367576002600960006101000a81548160ff0219169083600281111561135d5761135c6115b6565b5b021790555061139d565b600854421061139c576001600960006101000a81548160ff02191690836002811115611396576113956115b6565b5b02179055505b5b565b6000819050919050565b6113b28161139f565b82525050565b60006020820190506113cd60008301846113a9565b92915050565b6000604051905090565b600080fd5b600080fd5b6113f08161139f565b81146113fb57600080fd5b50565b60008135905061140d816113e7565b92915050565b600060208284031215611429576114286113dd565b5b6000611437848285016113fe565b91505092915050565b60008115159050919050565b61145581611440565b82525050565b6000602082019050611470600083018461144c565b92915050565b600081519050919050565b600082825260208201905092915050565b60005b838110156114b0578082015181840152602081019050611495565b60008484015250505050565b6000601f19601f8301169050919050565b60006114d882611476565b6114e28185611481565b93506114f2818560208601611492565b6114fb816114bc565b840191505092915050565b600073ffffffffffffffffffffffffffffffffffffffff82169050919050565b600061153182611506565b9050919050565b61154181611526565b82525050565b600060c082019050818103600083015261156181896114cd565b9050818103602083015261157581886114cd565b905061158460408301876113a9565b61159160608301866113a9565b61159e608083018561144c565b6115ab60a0830184611538565b979650505050505050565b7f4e487b7100000000000000000000000000000000000000000000000000000000600052602160045260246000fd5b600381106115f6576115f56115b6565b5b50565b6000819050611607826115e5565b919050565b6000611617826115f9565b9050919050565b6116278161160c565b82525050565b6000602082019050611642600083018461161e565b92915050565b600080fd5b600080fd5b7f4e487b7100000000000000000000000000000000000000000000000000000000600052604160045260246000fd5b61168a826114bc565b810181811067ffffffffffffffff821117156116a9576116a8611652565b5b80604052505050565b60006116bc6113d3565b90506116c88282611681565b919050565b600067ffffffffffffffff8211156116e8576116e7611652565b5b6116f1826114bc565b9050602081019050919050565b82818337600083830152505050565b600061172061171b846116cd565b6116b2565b90508281526020810184848401111561173c5761173b61164d565b5b6117478482856116fe565b509392505050565b600082601f83011261176457611763611648565b5b813561177484826020860161170d565b91505092915050565b61178681611526565b811461179157600080fd5b50565b6000813590506117a38161177d565b92915050565b600080600080608085870312156117c3576117c26113dd565b5b600085013567ffffffffffffffff8111156117e1576117e06113e2565b5b6117ed8782880161174f565b945050602085013567ffffffffffffffff81111561180e5761180d6113e2565b5b61181a8782880161174f565b935050604061182b878288016113fe565b925050606061183c87828801611794565b91505092959194509250565b600061185382611506565b9050919050565b61186381611848565b811461186e57600080fd5b50565b6000813590506118808161185a565b92915050565b60006020828403121561189c5761189b6113dd565b5b60006118aa84828501611871565b91505092915050565b600081519050919050565b600082825260208201905092915050565b6000819050602082019050919050565b6118e88161139f565b82525050565b60006118fa83836118df565b60208301905092915050565b6000602082019050919050565b600061191e826118b3565b61192881856118be565b9350611933836118cf565b8060005b8381101561196457815161194b88826118ee565b975061195683611906565b925050600181019050611937565b5085935050505092915050565b600061012082019050611987600083018c611538565b611994602083018b6113a9565b81810360408301526119a6818a611913565b90506119b560608301896113a9565b6119c260808301886113a9565b81810360a08301526119d481876114cd565b905081810360c08301526119e881866114cd565b90506119f760e08301856113a9565b611a0561010083018461161e565b9a9950505050505050505050565b7f4f6e6c7920636f6e7472696275746f72732063616e20766f746520666f72207460008201527f68652063616d706169676e000000000000000000000000000000000000000000602082015250565b6000611a6f602b83611481565b9150611a7a82611a13565b604082019050919050565b60006020820190508181036000830152611a9e81611a62565b9050919050565b7f596f75766520766f74656420666f7220746869732063616d706169676e000000600082015250565b6000611adb601d83611481565b9150611ae682611aa5565b602082019050919050565b60006020820190508181036000830152611b0a81611ace565b9050919050565b7f4e487b7100000000000000000000000000000000000000000000000000000000600052601160045260246000fd5b6000611b4b8261139f565b9150611b568361139f565b9250828201905080821115611b6e57611b6d611b11565b5b92915050565b611b7d81611848565b82525050565b6000604082019050611b986000830185611b74565b611ba560208301846113a9565b9392505050565b7f496e76616c696420537461746521000000000000000000000000000000000000600082015250565b6000611be2600e83611481565b9150611bed82611bac565b602082019050919050565b60006020820190508181036000830152611c1181611bd5565b9050919050565b7f596f757220636f6e747269627574696f6e20746f20746869732070726f6a656360008201527f7420697320302100000000000000000000000000000000000000000000000000602082015250565b6000611c74602783611481565b9150611c7f82611c18565b604082019050919050565b60006020820190508181036000830152611ca381611c67565b9050919050565b6000611cb58261139f565b9150611cc08361139f565b9250828203905081811115611cd857611cd7611b11565b5b92915050565b7f4e6f204163636573732100000000000000000000000000000000000000000000600082015250565b6000611d14600a83611481565b9150611d1f82611cde565b602082019050919050565b60006020820190508181036000830152611d4381611d07565b9050919050565b7f5265717565737420436f6d706c6574656420616c726561647900000000000000600082015250565b6000611d80601983611481565b9150611d8b82611d4a565b602082019050919050565b60006020820190508181036000830152611daf81611d73565b9050919050565b7f4e487b7100000000000000000000000000000000000000000000000000000000600052601260045260246000fd5b6000611df08261139f565b9150611dfb8361139f565b925082611e0b57611e0a611db6565b5b828204905092915050565b7f566f74652070657263656e74616765206973206c657373207468616e2035302560008201527f2063616e6e6f742077697468647261772066756e640000000000000000000000602082015250565b6000611e72603583611481565b9150611e7d82611e16565b604082019050919050565b60006020820190508181036000830152611ea181611e65565b9050919050565b7f4e487b7100000000000000000000000000000000000000000000000000000000600052602260045260246000fd5b60006002820490506001821680611eef57607f821691505b602082108103611f0257611f01611ea8565b5b50919050565b60008190508160005260206000209050919050565b60008154611f2a81611ed7565b611f348186611481565b94506001821660008114611f4f5760018114611f6557611f98565b60ff198316865281151560200286019350611f98565b611f6e85611f08565b60005b83811015611f9057815481890152600182019150602081019050611f71565b808801955050505b50505092915050565b6000819050919050565b6000611fc6611fc1611fbc84611506565b611fa1565b611506565b9050919050565b6000611fd882611fab565b9050919050565b6000611fea82611fcd565b9050919050565b611ffa81611fdf565b82525050565b600060e082019050612015600083018a6113a9565b81810360208301526120278189611f1d565b9050818103604083015261203b8188611f1d565b905061204a60608301876113a9565b61205760808301866113a9565b61206460a083018561144c565b61207160c0830184611ff1565b98975050505050505050565b7f43616e6e6f742077697468647261772066756e647320616c6c2072657175657360008201527f7420686173206265656e20636f6d706c65746564000000000000000000000000602082015250565b60006120d9603483611481565b91506120e48261207d565b604082019050919050565b60006020820190508181036000830152612108816120cc565b9050919050565b60006020601f8301049050919050565b600082821b905092915050565b60006008830261215c7fffffffffffffffffffffffffffffffffffffffffffffffffffffffffffffffff8261211f565b612166868361211f565b95508019841693508086168417925050509392505050565b600061219961219461218f8461139f565b611fa1565b61139f565b9050919050565b6000819050919050565b6121b38361217e565b6121c76121bf826121a0565b84845461212c565b825550505050565b600090565b6121dc6121cf565b6121e78184846121aa565b505050565b5b8181101561220b576122006000826121d4565b6001810190506121ed565b5050565b601f8211156122505761222181611f08565b61222a8461210f565b81016020851015612239578190505b61224d6122458561210f565b8301826121ec565b50505b505050565b600082821c905092915050565b600061227360001984600802612255565b1980831691505092915050565b600061228c8383612262565b9150826002028217905092915050565b6122a582611476565b67ffffffffffffffff8111156122be576122bd611652565b5b6122c88254611ed7565b6122d382828561220f565b600060209050601f83116001811461230657600084156122f4578287015190505b6122fe8582612280565b865550612366565b601f19841661231486611f08565b60005b8281101561233c57848901518255600182019150602085019450602081019050612317565b868310156123595784890151612355601f891682612262565b8355505b6001600288020188555050505b505050505050565b6000819050919050565b600061239361238e6123898461236e565b611fa1565b61139f565b9050919050565b6123a381612378565b82525050565b600060e0820190506123be600083018a6113a9565b81810360208301526123d081896114cd565b905081810360408301526123e481886114cd565b90506123f360608301876113a9565b612400608083018661239a565b61240d60a083018561144c565b61241a60c0830184611ff1565b98975050505050505050565b60006124318261139f565b91507fffffffffffffffffffffffffffffffffffffffffffffffffffffffffffffffff820361246357612462611b11565b5b600182019050919050565b7f496e76616c69642053746174652043616e6e6f7420496e7665737420696e207460008201527f6869732063616d706169676e0000000000000000000000000000000000000000602082015250565b60006124ca602c83611481565b91506124d58261246e565b604082019050919050565b600060208201905081810360008301526124f9816124bd565b9050919050565b7f446561646c696e65205061737365642100000000000000000000000000000000600082015250565b6000612536601083611481565b915061254182612500565b602082019050919050565b6000602082019050818103600083015261256581612529565b9050919050565b7f436f6e747269627574696f6e20616d6f756e7420746f6f206c6f772021000000600082015250565b60006125a2601d83611481565b91506125ad8261256c565b602082019050919050565b600060208201905081810360008301526125d181612595565b9050919050565b60006060820190506125ed6000830186611b74565b6125fa60208301856113a9565b61260760408301846113a9565b94935050505056fea26469706673582212206fcde3b36415d1ea005fff765e066d66b46651bc9c404d0641f8f4dc3c4d3cdd64736f6c63430008110033a264697066735822122001ba4a504f37ba4c73583e11c6e2383c254738a302ff5a961af55b75b45d670864736f6c63430008110033","opcodes":"PUSH1 0x80 PUSH1 0x40 MSTORE CALLVALUE DUP1 ISZERO PUSH2 0x10 JUMPI PUSH1 0x0 DUP1 REVERT JUMPDEST POP PUSH2 0x483D DUP1 PUSH2 0x20 PUSH1 0x0 CODECOPY PUSH1 0x0 RETURN INVALID PUSH1 0x80 PUSH1 0x40 MSTORE PUSH1 0x4 CALLDATASIZE LT PUSH3 0xAA JUMPI PUSH1 0x0 CALLDATALOAD PUSH1 0xE0 SHR DUP1 PUSH4 0x73E888FD GT PUSH3 0x6D JUMPI DUP1 PUSH4 0x73E888FD EQ PUSH3 0x18B JUMPI DUP1 PUSH4 0x7A7E7A6B EQ PUSH3 0x1AB JUMPI DUP1 PUSH4 0x7D7B87FE EQ PUSH3 0x1D9 JUMPI DUP1 PUSH4 0x812739A2 EQ PUSH3 0x207 JUMPI DUP1 PUSH4 0x9A274FFF EQ PUSH3 0x237 JUMPI DUP1 PUSH4 0xC4612ADF EQ PUSH3 0x267 JUMPI PUSH3 0xAA JUMP JUMPDEST DUP1 PUSH4 0x562B9F7 EQ PUSH3 0xAF JUMPI DUP1 PUSH4 0x465C2E2F EQ PUSH3 0xDD JUMPI DUP1 PUSH4 0x56ECCC1F EQ PUSH3 0x115 JUMPI DUP1 PUSH4 0x588C161B EQ PUSH3 0x143 JUMPI DUP1 PUSH4 0x5B199475 EQ PUSH3 0x171 JUMPI JUMPDEST PUSH1 0x0 DUP1 REVERT JUMPDEST CALLVALUE DUP1 ISZERO PUSH3 0xBC JUMPI PUSH1 0x0 DUP1 REVERT JUMPDEST POP PUSH3 0xDB PUSH1 0x4 DUP1 CALLDATASIZE SUB DUP2 ADD SWAP1 PUSH3 0xD5 SWAP2 SWAP1 PUSH3 0x9DD JUMP JUMPDEST PUSH3 0x297 JUMP JUMPDEST STOP JUMPDEST CALLVALUE DUP1 ISZERO PUSH3 0xEA JUMPI PUSH1 0x0 DUP1 REVERT JUMPDEST POP PUSH3 0xF5 PUSH3 0x331 JUMP JUMPDEST PUSH1 0x40 MLOAD PUSH3 0x10C SWAP10 SWAP9 SWAP8 SWAP7 SWAP6 SWAP5 SWAP4 SWAP3 SWAP2 SWAP1 PUSH3 0xC4D JUMP JUMPDEST PUSH1 0x40 MLOAD DUP1 SWAP2 SUB SWAP1 RETURN JUMPDEST CALLVALUE DUP1 ISZERO PUSH3 0x122 JUMPI PUSH1 0x0 DUP1 REVERT JUMPDEST POP PUSH3 0x141 PUSH1 0x4 DUP1 CALLDATASIZE SUB DUP2 ADD SWAP1 PUSH3 0x13B SWAP2 SWAP1 PUSH3 0xD5A JUMP JUMPDEST PUSH3 0x3FB JUMP JUMPDEST STOP JUMPDEST CALLVALUE DUP1 ISZERO PUSH3 0x150 JUMPI PUSH1 0x0 DUP1 REVERT JUMPDEST POP PUSH3 0x16F PUSH1 0x4 DUP1 CALLDATASIZE SUB DUP2 ADD SWAP1 PUSH3 0x169 SWAP2 SWAP1 PUSH3 0xFB8 JUMP JUMPDEST PUSH3 0x43F JUMP JUMPDEST STOP JUMPDEST CALLVALUE DUP1 ISZERO PUSH3 0x17E JUMPI PUSH1 0x0 DUP1 REVERT JUMPDEST POP PUSH3 0x189 PUSH3 0x543 JUMP JUMPDEST STOP JUMPDEST PUSH3 0x1A9 PUSH1 0x4 DUP1 CALLDATASIZE SUB DUP2 ADD SWAP1 PUSH3 0x1A3 SWAP2 SWAP1 PUSH3 0xD5A JUMP JUMPDEST PUSH3 0x56D JUMP JUMPDEST STOP JUMPDEST CALLVALUE DUP1 ISZERO PUSH3 0x1B8 JUMPI PUSH1 0x0 DUP1 REVERT JUMPDEST POP PUSH3 0x1D7 PUSH1 0x4 DUP1 CALLDATASIZE SUB DUP2 ADD SWAP1 PUSH3 0x1D1 SWAP2 SWAP1 PUSH3 0x10B1 JUMP JUMPDEST PUSH3 0x6EE JUMP JUMPDEST STOP JUMPDEST CALLVALUE DUP1 ISZERO PUSH3 0x1E6 JUMPI PUSH1 0x0 DUP1 REVERT JUMPDEST POP PUSH3 0x205 PUSH1 0x4 DUP1 CALLDATASIZE SUB DUP2 ADD SWAP1 PUSH3 0x1FF SWAP2 SWAP1 PUSH3 0x9DD JUMP JUMPDEST PUSH3 0x790 JUMP JUMPDEST STOP JUMPDEST CALLVALUE DUP1 ISZERO PUSH3 0x214 JUMPI PUSH1 0x0 DUP1 REVERT JUMPDEST POP PUSH3 0x21F PUSH3 0x82A JUMP JUMPDEST PUSH1 0x40 MLOAD PUSH3 0x22E SWAP2 SWAP1 PUSH3 0x1273 JUMP JUMPDEST PUSH1 0x40 MLOAD DUP1 SWAP2 SUB SWAP1 RETURN JUMPDEST CALLVALUE DUP1 ISZERO PUSH3 0x244 JUMPI PUSH1 0x0 DUP1 REVERT JUMPDEST POP PUSH3 0x24F PUSH3 0x8BA JUMP JUMPDEST PUSH1 0x40 MLOAD PUSH3 0x25E SWAP2 SWAP1 PUSH3 0x1297 JUMP JUMPDEST PUSH1 0x40 MLOAD DUP1 SWAP2 SUB SWAP1 RETURN JUMPDEST CALLVALUE DUP1 ISZERO PUSH3 0x274 JUMPI PUSH1 0x0 DUP1 REVERT JUMPDEST POP PUSH3 0x27F PUSH3 0x95A JUMP JUMPDEST PUSH1 0x40 MLOAD PUSH3 0x28E SWAP2 SWAP1 PUSH3 0x12C5 JUMP JUMPDEST PUSH1 0x40 MLOAD DUP1 SWAP2 SUB SWAP1 RETURN JUMPDEST PUSH1 0x0 PUSH1 0x1 PUSH1 0x0 SWAP1 SLOAD SWAP1 PUSH2 0x100 EXP SWAP1 DIV PUSH20 0xFFFFFFFFFFFFFFFFFFFFFFFFFFFFFFFFFFFFFFFF AND SWAP1 POP DUP1 PUSH20 0xFFFFFFFFFFFFFFFFFFFFFFFFFFFFFFFFFFFFFFFF AND PUSH4 0x698BBEBD DUP4 PUSH1 0x40 MLOAD DUP3 PUSH4 0xFFFFFFFF AND PUSH1 0xE0 SHL DUP2 MSTORE PUSH1 0x4 ADD PUSH3 0x2F9 SWAP2 SWAP1 PUSH3 0x1297 JUMP JUMPDEST PUSH1 0x0 PUSH1 0x40 MLOAD DUP1 DUP4 SUB DUP2 PUSH1 0x0 DUP8 DUP1 EXTCODESIZE ISZERO DUP1 ISZERO PUSH3 0x314 JUMPI PUSH1 0x0 DUP1 REVERT JUMPDEST POP GAS CALL ISZERO DUP1 ISZERO PUSH3 0x329 JUMPI RETURNDATASIZE PUSH1 0x0 DUP1 RETURNDATACOPY RETURNDATASIZE PUSH1 0x0 REVERT JUMPDEST POP POP POP POP POP POP JUMP JUMPDEST PUSH1 0x0 DUP1 PUSH1 0x60 PUSH1 0x0 DUP1 PUSH1 0x60 DUP1 PUSH1 0x0 DUP1 PUSH1 0x0 PUSH1 0x1 PUSH1 0x0 SWAP1 SLOAD SWAP1 PUSH2 0x100 EXP SWAP1 DIV PUSH20 0xFFFFFFFFFFFFFFFFFFFFFFFFFFFFFFFFFFFFFFFF AND SWAP1 POP DUP1 PUSH20 0xFFFFFFFFFFFFFFFFFFFFFFFFFFFFFFFFFFFFFFFF AND PUSH4 0xFF3A9C7E PUSH1 0x40 MLOAD DUP2 PUSH4 0xFFFFFFFF AND PUSH1 0xE0 SHL DUP2 MSTORE PUSH1 0x4 ADD PUSH1 0x0 PUSH1 0x40 MLOAD DUP1 DUP4 SUB DUP2 DUP7 GAS STATICCALL ISZERO DUP1 ISZERO PUSH3 0x3B2 JUMPI RETURNDATASIZE PUSH1 0x0 DUP1 RETURNDATACOPY RETURNDATASIZE PUSH1 0x0 REVERT JUMPDEST POP POP POP POP PUSH1 0x40 MLOAD RETURNDATASIZE PUSH1 0x0 DUP3 RETURNDATACOPY RETURNDATASIZE PUSH1 0x1F NOT PUSH1 0x1F DUP3 ADD AND DUP3 ADD DUP1 PUSH1 0x40 MSTORE POP DUP2 ADD SWAP1 PUSH3 0x3DD SWAP2 SWAP1 PUSH3 0x1477 JUMP JUMPDEST SWAP10 POP SWAP10 POP SWAP10 POP SWAP10 POP SWAP10 POP SWAP10 POP SWAP10 POP SWAP10 POP SWAP10 POP POP SWAP1 SWAP2 SWAP3 SWAP4 SWAP5 SWAP6 SWAP7 SWAP8 SWAP9 JUMP JUMPDEST DUP1 PUSH1 0x1 PUSH1 0x0 PUSH2 0x100 EXP DUP2 SLOAD DUP2 PUSH20 0xFFFFFFFFFFFFFFFFFFFFFFFFFFFFFFFFFFFFFFFF MUL NOT AND SWAP1 DUP4 PUSH20 0xFFFFFFFFFFFFFFFFFFFFFFFFFFFFFFFFFFFFFFFF AND MUL OR SWAP1 SSTORE POP POP JUMP JUMPDEST PUSH1 0x0 CALLER DUP8 DUP8 DUP8 DUP8 DUP8 DUP8 PUSH1 0x40 MLOAD PUSH3 0x456 SWAP1 PUSH3 0x980 JUMP JUMPDEST PUSH3 0x468 SWAP8 SWAP7 SWAP6 SWAP5 SWAP4 SWAP3 SWAP2 SWAP1 PUSH3 0x15B3 JUMP JUMPDEST PUSH1 0x40 MLOAD DUP1 SWAP2 SUB SWAP1 PUSH1 0x0 CREATE DUP1 ISZERO DUP1 ISZERO PUSH3 0x485 JUMPI RETURNDATASIZE PUSH1 0x0 DUP1 RETURNDATACOPY RETURNDATASIZE PUSH1 0x0 REVERT JUMPDEST POP SWAP1 POP PUSH1 0x0 DUP2 SWAP1 DUP1 PUSH1 0x1 DUP2 SLOAD ADD DUP1 DUP3 SSTORE DUP1 SWAP2 POP POP PUSH1 0x1 SWAP1 SUB SWAP1 PUSH1 0x0 MSTORE PUSH1 0x20 PUSH1 0x0 KECCAK256 ADD PUSH1 0x0 SWAP1 SWAP2 SWAP1 SWAP2 SWAP1 SWAP2 PUSH2 0x100 EXP DUP2 SLOAD DUP2 PUSH20 0xFFFFFFFFFFFFFFFFFFFFFFFFFFFFFFFFFFFFFFFF MUL NOT AND SWAP1 DUP4 PUSH20 0xFFFFFFFFFFFFFFFFFFFFFFFFFFFFFFFFFFFFFFFF AND MUL OR SWAP1 SSTORE POP PUSH32 0xE6F3128472EF91F58238DA75A82272EFE3F70D8C65F039111EB0785FDE6FCFDA DUP2 CALLER DUP10 DUP10 DUP10 DUP10 DUP10 PUSH1 0x0 DUP1 DUP12 PUSH1 0x0 PUSH1 0x40 MLOAD PUSH3 0x532 SWAP12 SWAP11 SWAP10 SWAP9 SWAP8 SWAP7 SWAP6 SWAP5 SWAP4 SWAP3 SWAP2 SWAP1 PUSH3 0x1699 JUMP JUMPDEST PUSH1 0x40 MLOAD DUP1 SWAP2 SUB SWAP1 LOG1 POP POP POP POP POP POP POP JUMP JUMPDEST PUSH1 0x0 PUSH1 0x1 PUSH1 0x0 SWAP1 SLOAD SWAP1 PUSH2 0x100 EXP SWAP1 DIV PUSH20 0xFFFFFFFFFFFFFFFFFFFFFFFFFFFFFFFFFFFFFFFF AND SWAP1 POP POP JUMP JUMPDEST PUSH1 0x0 DUP2 PUSH20 0xFFFFFFFFFFFFFFFFFFFFFFFFFFFFFFFFFFFFFFFF AND PUSH4 0x937E09B1 PUSH1 0x40 MLOAD DUP2 PUSH4 0xFFFFFFFF AND PUSH1 0xE0 SHL DUP2 MSTORE PUSH1 0x4 ADD PUSH1 0x20 PUSH1 0x40 MLOAD DUP1 DUP4 SUB DUP2 DUP7 GAS STATICCALL ISZERO DUP1 ISZERO PUSH3 0x5BB JUMPI RETURNDATASIZE PUSH1 0x0 DUP1 RETURNDATACOPY RETURNDATASIZE PUSH1 0x0 REVERT JUMPDEST POP POP POP POP PUSH1 0x40 MLOAD RETURNDATASIZE PUSH1 0x1F NOT PUSH1 0x1F DUP3 ADD AND DUP3 ADD DUP1 PUSH1 0x40 MSTORE POP DUP2 ADD SWAP1 PUSH3 0x5E1 SWAP2 SWAP1 PUSH3 0x176F JUMP JUMPDEST SWAP1 POP DUP1 CALLVALUE GT PUSH3 0x628 JUMPI PUSH1 0x40 MLOAD PUSH32 0x8C379A000000000000000000000000000000000000000000000000000000000 DUP2 MSTORE PUSH1 0x4 ADD PUSH3 0x61F SWAP1 PUSH3 0x17F1 JUMP JUMPDEST PUSH1 0x40 MLOAD DUP1 SWAP2 SUB SWAP1 REVERT JUMPDEST DUP2 PUSH20 0xFFFFFFFFFFFFFFFFFFFFFFFFFFFFFFFFFFFFFFFF AND PUSH4 0xE2DC4310 CALLVALUE CALLER PUSH1 0x40 MLOAD DUP4 PUSH4 0xFFFFFFFF AND PUSH1 0xE0 SHL DUP2 MSTORE PUSH1 0x4 ADD PUSH3 0x664 SWAP2 SWAP1 PUSH3 0x1813 JUMP JUMPDEST PUSH1 0x0 PUSH1 0x40 MLOAD DUP1 DUP4 SUB DUP2 DUP6 DUP9 DUP1 EXTCODESIZE ISZERO DUP1 ISZERO PUSH3 0x67E JUMPI PUSH1 0x0 DUP1 REVERT JUMPDEST POP GAS CALL ISZERO DUP1 ISZERO PUSH3 0x693 JUMPI RETURNDATASIZE PUSH1 0x0 DUP1 RETURNDATACOPY RETURNDATASIZE PUSH1 0x0 REVERT JUMPDEST POP POP POP POP POP CALLER PUSH20 0xFFFFFFFFFFFFFFFFFFFFFFFFFFFFFFFFFFFFFFFF AND PUSH32 0xF3F0D2AEF319D16A4CABE88719456CCD50D3E118A22C76E59BC7A344926FDA38 DUP4 CALLVALUE PUSH1 0x40 MLOAD PUSH3 0x6E2 SWAP3 SWAP2 SWAP1 PUSH3 0x1830 JUMP JUMPDEST PUSH1 0x40 MLOAD DUP1 SWAP2 SUB SWAP1 LOG2 POP POP JUMP JUMPDEST PUSH1 0x0 PUSH1 0x1 PUSH1 0x0 SWAP1 SLOAD SWAP1 PUSH2 0x100 EXP SWAP1 DIV PUSH20 0xFFFFFFFFFFFFFFFFFFFFFFFFFFFFFFFFFFFFFFFF AND SWAP1 POP DUP1 PUSH20 0xFFFFFFFFFFFFFFFFFFFFFFFFFFFFFFFFFFFFFFFF AND PUSH4 0xD61BA69D DUP6 DUP6 DUP6 CALLER PUSH1 0x40 MLOAD DUP6 PUSH4 0xFFFFFFFF AND PUSH1 0xE0 SHL DUP2 MSTORE PUSH1 0x4 ADD PUSH3 0x756 SWAP5 SWAP4 SWAP3 SWAP2 SWAP1 PUSH3 0x185D JUMP JUMPDEST PUSH1 0x0 PUSH1 0x40 MLOAD DUP1 DUP4 SUB DUP2 PUSH1 0x0 DUP8 DUP1 EXTCODESIZE ISZERO DUP1 ISZERO PUSH3 0x771 JUMPI PUSH1 0x0 DUP1 REVERT JUMPDEST POP GAS CALL ISZERO DUP1 ISZERO PUSH3 0x786 JUMPI RETURNDATASIZE PUSH1 0x0 DUP1 RETURNDATACOPY RETURNDATASIZE PUSH1 0x0 REVERT JUMPDEST POP POP POP POP POP POP POP POP JUMP JUMPDEST PUSH1 0x0 PUSH1 0x1 PUSH1 0x0 SWAP1 SLOAD SWAP1 PUSH2 0x100 EXP SWAP1 DIV PUSH20 0xFFFFFFFFFFFFFFFFFFFFFFFFFFFFFFFFFFFFFFFF AND SWAP1 POP DUP1 PUSH20 0xFFFFFFFFFFFFFFFFFFFFFFFFFFFFFFFFFFFFFFFF AND PUSH4 0x286426A1 DUP4 PUSH1 0x40 MLOAD DUP3 PUSH4 0xFFFFFFFF AND PUSH1 0xE0 SHL DUP2 MSTORE PUSH1 0x4 ADD PUSH3 0x7F2 SWAP2 SWAP1 PUSH3 0x1297 JUMP JUMPDEST PUSH1 0x0 PUSH1 0x40 MLOAD DUP1 DUP4 SUB DUP2 PUSH1 0x0 DUP8 DUP1 EXTCODESIZE ISZERO DUP1 ISZERO PUSH3 0x80D JUMPI PUSH1 0x0 DUP1 REVERT JUMPDEST POP GAS CALL ISZERO DUP1 ISZERO PUSH3 0x822 JUMPI RETURNDATASIZE PUSH1 0x0 DUP1 RETURNDATACOPY RETURNDATASIZE PUSH1 0x0 REVERT JUMPDEST POP POP POP POP POP POP JUMP JUMPDEST PUSH1 0x60 PUSH1 0x0 DUP1 SLOAD DUP1 PUSH1 0x20 MUL PUSH1 0x20 ADD PUSH1 0x40 MLOAD SWAP1 DUP2 ADD PUSH1 0x40 MSTORE DUP1 SWAP3 SWAP2 SWAP1 DUP2 DUP2 MSTORE PUSH1 0x20 ADD DUP3 DUP1 SLOAD DUP1 ISZERO PUSH3 0x8B0 JUMPI PUSH1 0x20 MUL DUP3 ADD SWAP2 SWAP1 PUSH1 0x0 MSTORE PUSH1 0x20 PUSH1 0x0 KECCAK256 SWAP1 JUMPDEST DUP2 PUSH1 0x0 SWAP1 SLOAD SWAP1 PUSH2 0x100 EXP SWAP1 DIV PUSH20 0xFFFFFFFFFFFFFFFFFFFFFFFFFFFFFFFFFFFFFFFF AND PUSH20 0xFFFFFFFFFFFFFFFFFFFFFFFFFFFFFFFFFFFFFFFF AND DUP2 MSTORE PUSH1 0x20 ADD SWAP1 PUSH1 0x1 ADD SWAP1 DUP1 DUP4 GT PUSH3 0x865 JUMPI JUMPDEST POP POP POP POP POP SWAP1 POP SWAP1 JUMP JUMPDEST PUSH1 0x0 DUP1 PUSH1 0x1 PUSH1 0x0 SWAP1 SLOAD SWAP1 PUSH2 0x100 EXP SWAP1 DIV PUSH20 0xFFFFFFFFFFFFFFFFFFFFFFFFFFFFFFFFFFFFFFFF AND SWAP1 POP DUP1 PUSH20 0xFFFFFFFFFFFFFFFFFFFFFFFFFFFFFFFFFFFFFFFF AND PUSH4 0xC59EE1DC PUSH1 0x40 MLOAD DUP2 PUSH4 0xFFFFFFFF AND PUSH1 0xE0 SHL DUP2 MSTORE PUSH1 0x4 ADD PUSH1 0x20 PUSH1 0x40 MLOAD DUP1 DUP4 SUB DUP2 DUP7 GAS STATICCALL ISZERO DUP1 ISZERO PUSH3 0x92E JUMPI RETURNDATASIZE PUSH1 0x0 DUP1 RETURNDATACOPY RETURNDATASIZE PUSH1 0x0 REVERT JUMPDEST POP POP POP POP PUSH1 0x40 MLOAD RETURNDATASIZE PUSH1 0x1F NOT PUSH1 0x1F DUP3 ADD AND DUP3 ADD DUP1 PUSH1 0x40 MSTORE POP DUP2 ADD SWAP1 PUSH3 0x954 SWAP2 SWAP1 PUSH3 0x176F JUMP JUMPDEST SWAP2 POP POP SWAP1 JUMP JUMPDEST PUSH1 0x1 PUSH1 0x0 SWAP1 SLOAD SWAP1 PUSH2 0x100 EXP SWAP1 DIV PUSH20 0xFFFFFFFFFFFFFFFFFFFFFFFFFFFFFFFFFFFFFFFF AND DUP2 JUMP JUMPDEST PUSH2 0x2F4F DUP1 PUSH3 0x18B9 DUP4 CODECOPY ADD SWAP1 JUMP JUMPDEST PUSH1 0x0 PUSH1 0x40 MLOAD SWAP1 POP SWAP1 JUMP JUMPDEST PUSH1 0x0 DUP1 REVERT JUMPDEST PUSH1 0x0 DUP1 REVERT JUMPDEST PUSH1 0x0 DUP2 SWAP1 POP SWAP2 SWAP1 POP JUMP JUMPDEST PUSH3 0x9B7 DUP2 PUSH3 0x9A2 JUMP JUMPDEST DUP2 EQ PUSH3 0x9C3 JUMPI PUSH1 0x0 DUP1 REVERT JUMPDEST POP JUMP JUMPDEST PUSH1 0x0 DUP2 CALLDATALOAD SWAP1 POP PUSH3 0x9D7 DUP2 PUSH3 0x9AC JUMP JUMPDEST SWAP3 SWAP2 POP POP JUMP JUMPDEST PUSH1 0x0 PUSH1 0x20 DUP3 DUP5 SUB SLT ISZERO PUSH3 0x9F6 JUMPI PUSH3 0x9F5 PUSH3 0x998 JUMP JUMPDEST JUMPDEST PUSH1 0x0 PUSH3 0xA06 DUP5 DUP3 DUP6 ADD PUSH3 0x9C6 JUMP JUMPDEST SWAP2 POP POP SWAP3 SWAP2 POP POP JUMP JUMPDEST PUSH1 0x0 PUSH20 0xFFFFFFFFFFFFFFFFFFFFFFFFFFFFFFFFFFFFFFFF DUP3 AND SWAP1 POP SWAP2 SWAP1 POP JUMP JUMPDEST PUSH1 0x0 PUSH3 0xA3C DUP3 PUSH3 0xA0F JUMP JUMPDEST SWAP1 POP SWAP2 SWAP1 POP JUMP JUMPDEST PUSH3 0xA4E DUP2 PUSH3 0xA2F JUMP JUMPDEST DUP3 MSTORE POP POP JUMP JUMPDEST PUSH3 0xA5F DUP2 PUSH3 0x9A2 JUMP JUMPDEST DUP3 MSTORE POP POP JUMP JUMPDEST PUSH1 0x0 DUP2 MLOAD SWAP1 POP SWAP2 SWAP1 POP JUMP JUMPDEST PUSH1 0x0 DUP3 DUP3 MSTORE PUSH1 0x20 DUP3 ADD SWAP1 POP SWAP3 SWAP2 POP POP JUMP JUMPDEST PUSH1 0x0 DUP2 SWAP1 POP PUSH1 0x20 DUP3 ADD SWAP1 POP SWAP2 SWAP1 POP JUMP JUMPDEST PUSH3 0xA9C DUP2 PUSH3 0x9A2 JUMP JUMPDEST DUP3 MSTORE POP POP JUMP JUMPDEST PUSH1 0x0 PUSH3 0xAB0 DUP4 DUP4 PUSH3 0xA91 JUMP JUMPDEST PUSH1 0x20 DUP4 ADD SWAP1 POP SWAP3 SWAP2 POP POP JUMP JUMPDEST PUSH1 0x0 PUSH1 0x20 DUP3 ADD SWAP1 POP SWAP2 SWAP1 POP JUMP JUMPDEST PUSH1 0x0 PUSH3 0xAD6 DUP3 PUSH3 0xA65 JUMP JUMPDEST PUSH3 0xAE2 DUP2 DUP6 PUSH3 0xA70 JUMP JUMPDEST SWAP4 POP PUSH3 0xAEF DUP4 PUSH3 0xA81 JUMP JUMPDEST DUP1 PUSH1 0x0 JUMPDEST DUP4 DUP2 LT ISZERO PUSH3 0xB26 JUMPI DUP2 MLOAD PUSH3 0xB0A DUP9 DUP3 PUSH3 0xAA2 JUMP JUMPDEST SWAP8 POP PUSH3 0xB17 DUP4 PUSH3 0xABC JUMP JUMPDEST SWAP3 POP POP PUSH1 0x1 DUP2 ADD SWAP1 POP PUSH3 0xAF3 JUMP JUMPDEST POP DUP6 SWAP4 POP POP POP POP SWAP3 SWAP2 POP POP JUMP JUMPDEST PUSH1 0x0 DUP2 MLOAD SWAP1 POP SWAP2 SWAP1 POP JUMP JUMPDEST PUSH1 0x0 DUP3 DUP3 MSTORE PUSH1 0x20 DUP3 ADD SWAP1 POP SWAP3 SWAP2 POP POP JUMP JUMPDEST PUSH1 0x0 JUMPDEST DUP4 DUP2 LT ISZERO PUSH3 0xB6F JUMPI DUP1 DUP3 ADD MLOAD DUP2 DUP5 ADD MSTORE PUSH1 0x20 DUP2 ADD SWAP1 POP PUSH3 0xB52 JUMP JUMPDEST PUSH1 0x0 DUP5 DUP5 ADD MSTORE POP POP POP POP JUMP JUMPDEST PUSH1 0x0 PUSH1 0x1F NOT PUSH1 0x1F DUP4 ADD AND SWAP1 POP SWAP2 SWAP1 POP JUMP JUMPDEST PUSH1 0x0 PUSH3 0xB99 DUP3 PUSH3 0xB33 JUMP JUMPDEST PUSH3 0xBA5 DUP2 DUP6 PUSH3 0xB3E JUMP JUMPDEST SWAP4 POP PUSH3 0xBB7 DUP2 DUP6 PUSH1 0x20 DUP7 ADD PUSH3 0xB4F JUMP JUMPDEST PUSH3 0xBC2 DUP2 PUSH3 0xB7B JUMP JUMPDEST DUP5 ADD SWAP2 POP POP SWAP3 SWAP2 POP POP JUMP JUMPDEST PUSH32 0x4E487B7100000000000000000000000000000000000000000000000000000000 PUSH1 0x0 MSTORE PUSH1 0x21 PUSH1 0x4 MSTORE PUSH1 0x24 PUSH1 0x0 REVERT JUMPDEST PUSH1 0x3 DUP2 LT PUSH3 0xC10 JUMPI PUSH3 0xC0F PUSH3 0xBCD JUMP JUMPDEST JUMPDEST POP JUMP JUMPDEST PUSH1 0x0 DUP2 SWAP1 POP PUSH3 0xC23 DUP3 PUSH3 0xBFC JUMP JUMPDEST SWAP2 SWAP1 POP JUMP JUMPDEST PUSH1 0x0 PUSH3 0xC35 DUP3 PUSH3 0xC13 JUMP JUMPDEST SWAP1 POP SWAP2 SWAP1 POP JUMP JUMPDEST PUSH3 0xC47 DUP2 PUSH3 0xC28 JUMP JUMPDEST DUP3 MSTORE POP POP JUMP JUMPDEST PUSH1 0x0 PUSH2 0x120 DUP3 ADD SWAP1 POP PUSH3 0xC65 PUSH1 0x0 DUP4 ADD DUP13 PUSH3 0xA43 JUMP JUMPDEST PUSH3 0xC74 PUSH1 0x20 DUP4 ADD DUP12 PUSH3 0xA54 JUMP JUMPDEST DUP2 DUP2 SUB PUSH1 0x40 DUP4 ADD MSTORE PUSH3 0xC88 DUP2 DUP11 PUSH3 0xAC9 JUMP JUMPDEST SWAP1 POP PUSH3 0xC99 PUSH1 0x60 DUP4 ADD DUP10 PUSH3 0xA54 JUMP JUMPDEST PUSH3 0xCA8 PUSH1 0x80 DUP4 ADD DUP9 PUSH3 0xA54 JUMP JUMPDEST DUP2 DUP2 SUB PUSH1 0xA0 DUP4 ADD MSTORE PUSH3 0xCBC DUP2 DUP8 PUSH3 0xB8C JUMP JUMPDEST SWAP1 POP DUP2 DUP2 SUB PUSH1 0xC0 DUP4 ADD MSTORE PUSH3 0xCD2 DUP2 DUP7 PUSH3 0xB8C JUMP JUMPDEST SWAP1 POP PUSH3 0xCE3 PUSH1 0xE0 DUP4 ADD DUP6 PUSH3 0xA54 JUMP JUMPDEST PUSH3 0xCF3 PUSH2 0x100 DUP4 ADD DUP5 PUSH3 0xC3C JUMP JUMPDEST SWAP11 SWAP10 POP POP POP POP POP POP POP POP POP POP JUMP JUMPDEST PUSH1 0x0 PUSH3 0xD0E DUP3 PUSH3 0xA0F JUMP JUMPDEST SWAP1 POP SWAP2 SWAP1 POP JUMP JUMPDEST PUSH1 0x0 PUSH3 0xD22 DUP3 PUSH3 0xD01 JUMP JUMPDEST SWAP1 POP SWAP2 SWAP1 POP JUMP JUMPDEST PUSH3 0xD34 DUP2 PUSH3 0xD15 JUMP JUMPDEST DUP2 EQ PUSH3 0xD40 JUMPI PUSH1 0x0 DUP1 REVERT JUMPDEST POP JUMP JUMPDEST PUSH1 0x0 DUP2 CALLDATALOAD SWAP1 POP PUSH3 0xD54 DUP2 PUSH3 0xD29 JUMP JUMPDEST SWAP3 SWAP2 POP POP JUMP JUMPDEST PUSH1 0x0 PUSH1 0x20 DUP3 DUP5 SUB SLT ISZERO PUSH3 0xD73 JUMPI PUSH3 0xD72 PUSH3 0x998 JUMP JUMPDEST JUMPDEST PUSH1 0x0 PUSH3 0xD83 DUP5 DUP3 DUP6 ADD PUSH3 0xD43 JUMP JUMPDEST SWAP2 POP POP SWAP3 SWAP2 POP POP JUMP JUMPDEST PUSH1 0x0 DUP1 REVERT JUMPDEST PUSH1 0x0 DUP1 REVERT JUMPDEST PUSH32 0x4E487B7100000000000000000000000000000000000000000000000000000000 PUSH1 0x0 MSTORE PUSH1 0x41 PUSH1 0x4 MSTORE PUSH1 0x24 PUSH1 0x0 REVERT JUMPDEST PUSH3 0xDD0 DUP3 PUSH3 0xB7B JUMP JUMPDEST DUP2 ADD DUP2 DUP2 LT PUSH8 0xFFFFFFFFFFFFFFFF DUP3 GT OR ISZERO PUSH3 0xDF2 JUMPI PUSH3 0xDF1 PUSH3 0xD96 JUMP JUMPDEST JUMPDEST DUP1 PUSH1 0x40 MSTORE POP POP POP JUMP JUMPDEST PUSH1 0x0 PUSH3 0xE07 PUSH3 0x98E JUMP JUMPDEST SWAP1 POP PUSH3 0xE15 DUP3 DUP3 PUSH3 0xDC5 JUMP JUMPDEST SWAP2 SWAP1 POP JUMP JUMPDEST PUSH1 0x0 PUSH8 0xFFFFFFFFFFFFFFFF DUP3 GT ISZERO PUSH3 0xE38 JUMPI PUSH3 0xE37 PUSH3 0xD96 JUMP JUMPDEST JUMPDEST PUSH3 0xE43 DUP3 PUSH3 0xB7B JUMP JUMPDEST SWAP1 POP PUSH1 0x20 DUP2 ADD SWAP1 POP SWAP2 SWAP1 POP JUMP JUMPDEST DUP3 DUP2 DUP4 CALLDATACOPY PUSH1 0x0 DUP4 DUP4 ADD MSTORE POP POP POP JUMP JUMPDEST PUSH1 0x0 PUSH3 0xE76 PUSH3 0xE70 DUP5 PUSH3 0xE1A JUMP JUMPDEST PUSH3 0xDFB JUMP JUMPDEST SWAP1 POP DUP3 DUP2 MSTORE PUSH1 0x20 DUP2 ADD DUP5 DUP5 DUP5 ADD GT ISZERO PUSH3 0xE95 JUMPI PUSH3 0xE94 PUSH3 0xD91 JUMP JUMPDEST JUMPDEST PUSH3 0xEA2 DUP5 DUP3 DUP6 PUSH3 0xE50 JUMP JUMPDEST POP SWAP4 SWAP3 POP POP POP JUMP JUMPDEST PUSH1 0x0 DUP3 PUSH1 0x1F DUP4 ADD SLT PUSH3 0xEC2 JUMPI PUSH3 0xEC1 PUSH3 0xD8C JUMP JUMPDEST JUMPDEST DUP2 CALLDATALOAD PUSH3 0xED4 DUP5 DUP3 PUSH1 0x20 DUP7 ADD PUSH3 0xE5F JUMP JUMPDEST SWAP2 POP POP SWAP3 SWAP2 POP POP JUMP JUMPDEST PUSH1 0x0 PUSH8 0xFFFFFFFFFFFFFFFF DUP3 GT ISZERO PUSH3 0xEFB JUMPI PUSH3 0xEFA PUSH3 0xD96 JUMP JUMPDEST JUMPDEST PUSH1 0x20 DUP3 MUL SWAP1 POP PUSH1 0x20 DUP2 ADD SWAP1 POP SWAP2 SWAP1 POP JUMP JUMPDEST PUSH1 0x0 DUP1 REVERT JUMPDEST PUSH1 0x0 PUSH3 0xF28 PUSH3 0xF22 DUP5 PUSH3 0xEDD JUMP JUMPDEST PUSH3 0xDFB JUMP JUMPDEST SWAP1 POP DUP1 DUP4 DUP3 MSTORE PUSH1 0x20 DUP3 ADD SWAP1 POP PUSH1 0x20 DUP5 MUL DUP4 ADD DUP6 DUP2 GT ISZERO PUSH3 0xF4E JUMPI PUSH3 0xF4D PUSH3 0xF0C JUMP JUMPDEST JUMPDEST DUP4 JUMPDEST DUP2 DUP2 LT ISZERO PUSH3 0xF7B JUMPI DUP1 PUSH3 0xF66 DUP9 DUP3 PUSH3 0x9C6 JUMP JUMPDEST DUP5 MSTORE PUSH1 0x20 DUP5 ADD SWAP4 POP POP PUSH1 0x20 DUP2 ADD SWAP1 POP PUSH3 0xF50 JUMP JUMPDEST POP POP POP SWAP4 SWAP3 POP POP POP JUMP JUMPDEST PUSH1 0x0 DUP3 PUSH1 0x1F DUP4 ADD SLT PUSH3 0xF9D JUMPI PUSH3 0xF9C PUSH3 0xD8C JUMP JUMPDEST JUMPDEST DUP2 CALLDATALOAD PUSH3 0xFAF DUP5 DUP3 PUSH1 0x20 DUP7 ADD PUSH3 0xF11 JUMP JUMPDEST SWAP2 POP POP SWAP3 SWAP2 POP POP JUMP JUMPDEST PUSH1 0x0 DUP1 PUSH1 0x0 DUP1 PUSH1 0x0 DUP1 PUSH1 0xC0 DUP8 DUP10 SUB SLT ISZERO PUSH3 0xFD8 JUMPI PUSH3 0xFD7 PUSH3 0x998 JUMP JUMPDEST JUMPDEST PUSH1 0x0 DUP8 ADD CALLDATALOAD PUSH8 0xFFFFFFFFFFFFFFFF DUP2 GT ISZERO PUSH3 0xFF9 JUMPI PUSH3 0xFF8 PUSH3 0x99D JUMP JUMPDEST JUMPDEST PUSH3 0x1007 DUP10 DUP3 DUP11 ADD PUSH3 0xEAA JUMP JUMPDEST SWAP7 POP POP PUSH1 0x20 DUP8 ADD CALLDATALOAD PUSH8 0xFFFFFFFFFFFFFFFF DUP2 GT ISZERO PUSH3 0x102B JUMPI PUSH3 0x102A PUSH3 0x99D JUMP JUMPDEST JUMPDEST PUSH3 0x1039 DUP10 DUP3 DUP11 ADD PUSH3 0xEAA JUMP JUMPDEST SWAP6 POP POP PUSH1 0x40 DUP8 ADD CALLDATALOAD PUSH8 0xFFFFFFFFFFFFFFFF DUP2 GT ISZERO PUSH3 0x105D JUMPI PUSH3 0x105C PUSH3 0x99D JUMP JUMPDEST JUMPDEST PUSH3 0x106B DUP10 DUP3 DUP11 ADD PUSH3 0xF85 JUMP JUMPDEST SWAP5 POP POP PUSH1 0x60 PUSH3 0x107E DUP10 DUP3 DUP11 ADD PUSH3 0x9C6 JUMP JUMPDEST SWAP4 POP POP PUSH1 0x80 PUSH3 0x1091 DUP10 DUP3 DUP11 ADD PUSH3 0x9C6 JUMP JUMPDEST SWAP3 POP POP PUSH1 0xA0 PUSH3 0x10A4 DUP10 DUP3 DUP11 ADD PUSH3 0x9C6 JUMP JUMPDEST SWAP2 POP POP SWAP3 SWAP6 POP SWAP3 SWAP6 POP SWAP3 SWAP6 JUMP JUMPDEST PUSH1 0x0 DUP1 PUSH1 0x0 PUSH1 0x60 DUP5 DUP7 SUB SLT ISZERO PUSH3 0x10CD JUMPI PUSH3 0x10CC PUSH3 0x998 JUMP JUMPDEST JUMPDEST PUSH1 0x0 DUP5 ADD CALLDATALOAD PUSH8 0xFFFFFFFFFFFFFFFF DUP2 GT ISZERO PUSH3 0x10EE JUMPI PUSH3 0x10ED PUSH3 0x99D JUMP JUMPDEST JUMPDEST PUSH3 0x10FC DUP7 DUP3 DUP8 ADD PUSH3 0xEAA JUMP JUMPDEST SWAP4 POP POP PUSH1 0x20 DUP5 ADD CALLDATALOAD PUSH8 0xFFFFFFFFFFFFFFFF DUP2 GT ISZERO PUSH3 0x1120 JUMPI PUSH3 0x111F PUSH3 0x99D JUMP JUMPDEST JUMPDEST PUSH3 0x112E DUP7 DUP3 DUP8 ADD PUSH3 0xEAA JUMP JUMPDEST SWAP3 POP POP PUSH1 0x40 PUSH3 0x1141 DUP7 DUP3 DUP8 ADD PUSH3 0x9C6 JUMP JUMPDEST SWAP2 POP POP SWAP3 POP SWAP3 POP SWAP3 JUMP JUMPDEST PUSH1 0x0 DUP2 MLOAD SWAP1 POP SWAP2 SWAP1 POP JUMP JUMPDEST PUSH1 0x0 DUP3 DUP3 MSTORE PUSH1 0x20 DUP3 ADD SWAP1 POP SWAP3 SWAP2 POP POP JUMP JUMPDEST PUSH1 0x0 DUP2 SWAP1 POP PUSH1 0x20 DUP3 ADD SWAP1 POP SWAP2 SWAP1 POP JUMP JUMPDEST PUSH1 0x0 DUP2 SWAP1 POP SWAP2 SWAP1 POP JUMP JUMPDEST PUSH1 0x0 PUSH3 0x11A2 PUSH3 0x119C PUSH3 0x1196 DUP5 PUSH3 0xA0F JUMP JUMPDEST PUSH3 0x1177 JUMP JUMPDEST PUSH3 0xA0F JUMP JUMPDEST SWAP1 POP SWAP2 SWAP1 POP JUMP JUMPDEST PUSH1 0x0 PUSH3 0x11B6 DUP3 PUSH3 0x1181 JUMP JUMPDEST SWAP1 POP SWAP2 SWAP1 POP JUMP JUMPDEST PUSH1 0x0 PUSH3 0x11CA DUP3 PUSH3 0x11A9 JUMP JUMPDEST SWAP1 POP SWAP2 SWAP1 POP JUMP JUMPDEST PUSH3 0x11DC DUP2 PUSH3 0x11BD JUMP JUMPDEST DUP3 MSTORE POP POP JUMP JUMPDEST PUSH1 0x0 PUSH3 0x11F0 DUP4 DUP4 PUSH3 0x11D1 JUMP JUMPDEST PUSH1 0x20 DUP4 ADD SWAP1 POP SWAP3 SWAP2 POP POP JUMP JUMPDEST PUSH1 0x0 PUSH1 0x20 DUP3 ADD SWAP1 POP SWAP2 SWAP1 POP JUMP JUMPDEST PUSH1 0x0 PUSH3 0x1216 DUP3 PUSH3 0x114B JUMP JUMPDEST PUSH3 0x1222 DUP2 DUP6 PUSH3 0x1156 JUMP JUMPDEST SWAP4 POP PUSH3 0x122F DUP4 PUSH3 0x1167 JUMP JUMPDEST DUP1 PUSH1 0x0 JUMPDEST DUP4 DUP2 LT ISZERO PUSH3 0x1266 JUMPI DUP2 MLOAD PUSH3 0x124A DUP9 DUP3 PUSH3 0x11E2 JUMP JUMPDEST SWAP8 POP PUSH3 0x1257 DUP4 PUSH3 0x11FC JUMP JUMPDEST SWAP3 POP POP PUSH1 0x1 DUP2 ADD SWAP1 POP PUSH3 0x1233 JUMP JUMPDEST POP DUP6 SWAP4 POP POP POP POP SWAP3 SWAP2 POP POP JUMP JUMPDEST PUSH1 0x0 PUSH1 0x20 DUP3 ADD SWAP1 POP DUP2 DUP2 SUB PUSH1 0x0 DUP4 ADD MSTORE PUSH3 0x128F DUP2 DUP5 PUSH3 0x1209 JUMP JUMPDEST SWAP1 POP SWAP3 SWAP2 POP POP JUMP JUMPDEST PUSH1 0x0 PUSH1 0x20 DUP3 ADD SWAP1 POP PUSH3 0x12AE PUSH1 0x0 DUP4 ADD DUP5 PUSH3 0xA54 JUMP JUMPDEST SWAP3 SWAP2 POP POP JUMP JUMPDEST PUSH3 0x12BF DUP2 PUSH3 0x11BD JUMP JUMPDEST DUP3 MSTORE POP POP JUMP JUMPDEST PUSH1 0x0 PUSH1 0x20 DUP3 ADD SWAP1 POP PUSH3 0x12DC PUSH1 0x0 DUP4 ADD DUP5 PUSH3 0x12B4 JUMP JUMPDEST SWAP3 SWAP2 POP POP JUMP JUMPDEST PUSH3 0x12ED DUP2 PUSH3 0xA2F JUMP JUMPDEST DUP2 EQ PUSH3 0x12F9 JUMPI PUSH1 0x0 DUP1 REVERT JUMPDEST POP JUMP JUMPDEST PUSH1 0x0 DUP2 MLOAD SWAP1 POP PUSH3 0x130D DUP2 PUSH3 0x12E2 JUMP JUMPDEST SWAP3 SWAP2 POP POP JUMP JUMPDEST PUSH1 0x0 DUP2 MLOAD SWAP1 POP PUSH3 0x1324 DUP2 PUSH3 0x9AC JUMP JUMPDEST SWAP3 SWAP2 POP POP JUMP JUMPDEST PUSH1 0x0 PUSH3 0x1341 PUSH3 0x133B DUP5 PUSH3 0xEDD JUMP JUMPDEST PUSH3 0xDFB JUMP JUMPDEST SWAP1 POP DUP1 DUP4 DUP3 MSTORE PUSH1 0x20 DUP3 ADD SWAP1 POP PUSH1 0x20 DUP5 MUL DUP4 ADD DUP6 DUP2 GT ISZERO PUSH3 0x1367 JUMPI PUSH3 0x1366 PUSH3 0xF0C JUMP JUMPDEST JUMPDEST DUP4 JUMPDEST DUP2 DUP2 LT ISZERO PUSH3 0x1394 JUMPI DUP1 PUSH3 0x137F DUP9 DUP3 PUSH3 0x1313 JUMP JUMPDEST DUP5 MSTORE PUSH1 0x20 DUP5 ADD SWAP4 POP POP PUSH1 0x20 DUP2 ADD SWAP1 POP PUSH3 0x1369 JUMP JUMPDEST POP POP POP SWAP4 SWAP3 POP POP POP JUMP JUMPDEST PUSH1 0x0 DUP3 PUSH1 0x1F DUP4 ADD SLT PUSH3 0x13B6 JUMPI PUSH3 0x13B5 PUSH3 0xD8C JUMP JUMPDEST JUMPDEST DUP2 MLOAD PUSH3 0x13C8 DUP5 DUP3 PUSH1 0x20 DUP7 ADD PUSH3 0x132A JUMP JUMPDEST SWAP2 POP POP SWAP3 SWAP2 POP POP JUMP JUMPDEST PUSH1 0x0 PUSH3 0x13E8 PUSH3 0x13E2 DUP5 PUSH3 0xE1A JUMP JUMPDEST PUSH3 0xDFB JUMP JUMPDEST SWAP1 POP DUP3 DUP2 MSTORE PUSH1 0x20 DUP2 ADD DUP5 DUP5 DUP5 ADD GT ISZERO PUSH3 0x1407 JUMPI PUSH3 0x1406 PUSH3 0xD91 JUMP JUMPDEST JUMPDEST PUSH3 0x1414 DUP5 DUP3 DUP6 PUSH3 0xB4F JUMP JUMPDEST POP SWAP4 SWAP3 POP POP POP JUMP JUMPDEST PUSH1 0x0 DUP3 PUSH1 0x1F DUP4 ADD SLT PUSH3 0x1434 JUMPI PUSH3 0x1433 PUSH3 0xD8C JUMP JUMPDEST JUMPDEST DUP2 MLOAD PUSH3 0x1446 DUP5 DUP3 PUSH1 0x20 DUP7 ADD PUSH3 0x13D1 JUMP JUMPDEST SWAP2 POP POP SWAP3 SWAP2 POP POP JUMP JUMPDEST PUSH1 0x3 DUP2 LT PUSH3 0x145D JUMPI PUSH1 0x0 DUP1 REVERT JUMPDEST POP JUMP JUMPDEST PUSH1 0x0 DUP2 MLOAD SWAP1 POP PUSH3 0x1471 DUP2 PUSH3 0x144F JUMP JUMPDEST SWAP3 SWAP2 POP POP JUMP JUMPDEST PUSH1 0x0 DUP1 PUSH1 0x0 DUP1 PUSH1 0x0 DUP1 PUSH1 0x0 DUP1 PUSH1 0x0 PUSH2 0x120 DUP11 DUP13 SUB SLT ISZERO PUSH3 0x149D JUMPI PUSH3 0x149C PUSH3 0x998 JUMP JUMPDEST JUMPDEST PUSH1 0x0 PUSH3 0x14AD DUP13 DUP3 DUP14 ADD PUSH3 0x12FC JUMP JUMPDEST SWAP10 POP POP PUSH1 0x20 PUSH3 0x14C0 DUP13 DUP3 DUP14 ADD PUSH3 0x1313 JUMP JUMPDEST SWAP9 POP POP PUSH1 0x40 DUP11 ADD MLOAD PUSH8 0xFFFFFFFFFFFFFFFF DUP2 GT ISZERO PUSH3 0x14E4 JUMPI PUSH3 0x14E3 PUSH3 0x99D JUMP JUMPDEST JUMPDEST PUSH3 0x14F2 DUP13 DUP3 DUP14 ADD PUSH3 0x139E JUMP JUMPDEST SWAP8 POP POP PUSH1 0x60 PUSH3 0x1505 DUP13 DUP3 DUP14 ADD PUSH3 0x1313 JUMP JUMPDEST SWAP7 POP POP PUSH1 0x80 PUSH3 0x1518 DUP13 DUP3 DUP14 ADD PUSH3 0x1313 JUMP JUMPDEST SWAP6 POP POP PUSH1 0xA0 DUP11 ADD MLOAD PUSH8 0xFFFFFFFFFFFFFFFF DUP2 GT ISZERO PUSH3 0x153C JUMPI PUSH3 0x153B PUSH3 0x99D JUMP JUMPDEST JUMPDEST PUSH3 0x154A DUP13 DUP3 DUP14 ADD PUSH3 0x141C JUMP JUMPDEST SWAP5 POP POP PUSH1 0xC0 DUP11 ADD MLOAD PUSH8 0xFFFFFFFFFFFFFFFF DUP2 GT ISZERO PUSH3 0x156E JUMPI PUSH3 0x156D PUSH3 0x99D JUMP JUMPDEST JUMPDEST PUSH3 0x157C DUP13 DUP3 DUP14 ADD PUSH3 0x141C JUMP JUMPDEST SWAP4 POP POP PUSH1 0xE0 PUSH3 0x158F DUP13 DUP3 DUP14 ADD PUSH3 0x1313 JUMP JUMPDEST SWAP3 POP POP PUSH2 0x100 PUSH3 0x15A3 DUP13 DUP3 DUP14 ADD PUSH3 0x1460 JUMP JUMPDEST SWAP2 POP POP SWAP3 SWAP6 SWAP9 POP SWAP3 SWAP6 SWAP9 POP SWAP3 SWAP6 SWAP9 JUMP JUMPDEST PUSH1 0x0 PUSH1 0xE0 DUP3 ADD SWAP1 POP PUSH3 0x15CA PUSH1 0x0 DUP4 ADD DUP11 PUSH3 0xA43 JUMP JUMPDEST DUP2 DUP2 SUB PUSH1 0x20 DUP4 ADD MSTORE PUSH3 0x15DE DUP2 DUP10 PUSH3 0xB8C JUMP JUMPDEST SWAP1 POP DUP2 DUP2 SUB PUSH1 0x40 DUP4 ADD MSTORE PUSH3 0x15F4 DUP2 DUP9 PUSH3 0xB8C JUMP JUMPDEST SWAP1 POP DUP2 DUP2 SUB PUSH1 0x60 DUP4 ADD MSTORE PUSH3 0x160A DUP2 DUP8 PUSH3 0xAC9 JUMP JUMPDEST SWAP1 POP PUSH3 0x161B PUSH1 0x80 DUP4 ADD DUP7 PUSH3 0xA54 JUMP JUMPDEST PUSH3 0x162A PUSH1 0xA0 DUP4 ADD DUP6 PUSH3 0xA54 JUMP JUMPDEST PUSH3 0x1639 PUSH1 0xC0 DUP4 ADD DUP5 PUSH3 0xA54 JUMP JUMPDEST SWAP9 SWAP8 POP POP POP POP POP POP POP POP JUMP JUMPDEST PUSH3 0x1650 DUP2 PUSH3 0xD01 JUMP JUMPDEST DUP3 MSTORE POP POP JUMP JUMPDEST PUSH1 0x0 DUP2 SWAP1 POP SWAP2 SWAP1 POP JUMP JUMPDEST PUSH1 0x0 PUSH3 0x1681 PUSH3 0x167B PUSH3 0x1675 DUP5 PUSH3 0x1656 JUMP JUMPDEST PUSH3 0x1177 JUMP JUMPDEST PUSH3 0x9A2 JUMP JUMPDEST SWAP1 POP SWAP2 SWAP1 POP JUMP JUMPDEST PUSH3 0x1693 DUP2 PUSH3 0x1660 JUMP JUMPDEST DUP3 MSTORE POP POP JUMP JUMPDEST PUSH1 0x0 PUSH2 0x160 DUP3 ADD SWAP1 POP PUSH3 0x16B1 PUSH1 0x0 DUP4 ADD DUP15 PUSH3 0x12B4 JUMP JUMPDEST PUSH3 0x16C0 PUSH1 0x20 DUP4 ADD DUP14 PUSH3 0x1645 JUMP JUMPDEST DUP2 DUP2 SUB PUSH1 0x40 DUP4 ADD MSTORE PUSH3 0x16D4 DUP2 DUP13 PUSH3 0xB8C JUMP JUMPDEST SWAP1 POP DUP2 DUP2 SUB PUSH1 0x60 DUP4 ADD MSTORE PUSH3 0x16EA DUP2 DUP12 PUSH3 0xB8C JUMP JUMPDEST SWAP1 POP DUP2 DUP2 SUB PUSH1 0x80 DUP4 ADD MSTORE PUSH3 0x1700 DUP2 DUP11 PUSH3 0xAC9 JUMP JUMPDEST SWAP1 POP PUSH3 0x1711 PUSH1 0xA0 DUP4 ADD DUP10 PUSH3 0xA54 JUMP JUMPDEST PUSH3 0x1720 PUSH1 0xC0 DUP4 ADD DUP9 PUSH3 0xA54 JUMP JUMPDEST PUSH3 0x172F PUSH1 0xE0 DUP4 ADD DUP8 PUSH3 0x1688 JUMP JUMPDEST PUSH3 0x173F PUSH2 0x100 DUP4 ADD DUP7 PUSH3 0x1688 JUMP JUMPDEST PUSH3 0x174F PUSH2 0x120 DUP4 ADD DUP6 PUSH3 0xA54 JUMP JUMPDEST PUSH3 0x175F PUSH2 0x140 DUP4 ADD DUP5 PUSH3 0x1688 JUMP JUMPDEST SWAP13 SWAP12 POP POP POP POP POP POP POP POP POP POP POP POP JUMP JUMPDEST PUSH1 0x0 PUSH1 0x20 DUP3 DUP5 SUB SLT ISZERO PUSH3 0x1788 JUMPI PUSH3 0x1787 PUSH3 0x998 JUMP JUMPDEST JUMPDEST PUSH1 0x0 PUSH3 0x1798 DUP5 DUP3 DUP6 ADD PUSH3 0x1313 JUMP JUMPDEST SWAP2 POP POP SWAP3 SWAP2 POP POP JUMP JUMPDEST PUSH32 0x436F6E747269627574696F6E20616D6F756E74206973206C6F77202100000000 PUSH1 0x0 DUP3 ADD MSTORE POP JUMP JUMPDEST PUSH1 0x0 PUSH3 0x17D9 PUSH1 0x1C DUP4 PUSH3 0xB3E JUMP JUMPDEST SWAP2 POP PUSH3 0x17E6 DUP3 PUSH3 0x17A1 JUMP JUMPDEST PUSH1 0x20 DUP3 ADD SWAP1 POP SWAP2 SWAP1 POP JUMP JUMPDEST PUSH1 0x0 PUSH1 0x20 DUP3 ADD SWAP1 POP DUP2 DUP2 SUB PUSH1 0x0 DUP4 ADD MSTORE PUSH3 0x180C DUP2 PUSH3 0x17CA JUMP JUMPDEST SWAP1 POP SWAP2 SWAP1 POP JUMP JUMPDEST PUSH1 0x0 PUSH1 0x20 DUP3 ADD SWAP1 POP PUSH3 0x182A PUSH1 0x0 DUP4 ADD DUP5 PUSH3 0x1645 JUMP JUMPDEST SWAP3 SWAP2 POP POP JUMP JUMPDEST PUSH1 0x0 PUSH1 0x40 DUP3 ADD SWAP1 POP PUSH3 0x1847 PUSH1 0x0 DUP4 ADD DUP6 PUSH3 0x12B4 JUMP JUMPDEST PUSH3 0x1856 PUSH1 0x20 DUP4 ADD DUP5 PUSH3 0xA54 JUMP JUMPDEST SWAP4 SWAP3 POP POP POP JUMP JUMPDEST PUSH1 0x0 PUSH1 0x80 DUP3 ADD SWAP1 POP DUP2 DUP2 SUB PUSH1 0x0 DUP4 ADD MSTORE PUSH3 0x1879 DUP2 DUP8 PUSH3 0xB8C JUMP JUMPDEST SWAP1 POP DUP2 DUP2 SUB PUSH1 0x20 DUP4 ADD MSTORE PUSH3 0x188F DUP2 DUP7 PUSH3 0xB8C JUMP JUMPDEST SWAP1 POP PUSH3 0x18A0 PUSH1 0x40 DUP4 ADD DUP6 PUSH3 0xA54 JUMP JUMPDEST PUSH3 0x18AF PUSH1 0x60 DUP4 ADD DUP5 PUSH3 0xA43 JUMP JUMPDEST SWAP6 SWAP5 POP POP POP POP POP JUMP INVALID PUSH1 0x80 PUSH1 0x40 MSTORE PUSH1 0x0 PUSH1 0x9 PUSH1 0x0 PUSH2 0x100 EXP DUP2 SLOAD DUP2 PUSH1 0xFF MUL NOT AND SWAP1 DUP4 PUSH1 0x2 DUP2 GT ISZERO PUSH3 0x2D JUMPI PUSH3 0x2C PUSH3 0x185 JUMP JUMPDEST JUMPDEST MUL OR SWAP1 SSTORE POP PUSH1 0x0 PUSH1 0xC SSTORE PUSH1 0x7 SLOAD PUSH1 0xD SSTORE PUSH1 0x0 PUSH1 0xE SSTORE CALLVALUE DUP1 ISZERO PUSH3 0x4F JUMPI PUSH1 0x0 DUP1 REVERT JUMPDEST POP PUSH1 0x40 MLOAD PUSH3 0x2F4F CODESIZE SUB DUP1 PUSH3 0x2F4F DUP4 CODECOPY DUP2 DUP2 ADD PUSH1 0x40 MSTORE DUP2 ADD SWAP1 PUSH3 0x75 SWAP2 SWAP1 PUSH3 0x4C2 JUMP JUMPDEST DUP7 PUSH1 0x0 DUP1 PUSH2 0x100 EXP DUP2 SLOAD DUP2 PUSH20 0xFFFFFFFFFFFFFFFFFFFFFFFFFFFFFFFFFFFFFFFF MUL NOT AND SWAP1 DUP4 PUSH20 0xFFFFFFFFFFFFFFFFFFFFFFFFFFFFFFFFFFFFFFFF AND MUL OR SWAP1 SSTORE POP DUP6 PUSH1 0x1 SWAP1 DUP2 PUSH3 0xC6 SWAP2 SWAP1 PUSH3 0x813 JUMP JUMPDEST POP DUP5 PUSH1 0x2 SWAP1 DUP2 PUSH3 0xD8 SWAP2 SWAP1 PUSH3 0x813 JUMP JUMPDEST POP DUP4 PUSH1 0x3 SWAP1 DUP1 MLOAD SWAP1 PUSH1 0x20 ADD SWAP1 PUSH3 0xF1 SWAP3 SWAP2 SWAP1 PUSH3 0x114 JUMP JUMPDEST POP DUP3 PUSH1 0x4 DUP2 SWAP1 SSTORE POP DUP2 PUSH1 0x5 DUP2 SWAP1 SSTORE POP DUP1 PUSH1 0x8 DUP2 SWAP1 SSTORE POP POP POP POP POP POP POP POP PUSH3 0x8FA JUMP JUMPDEST DUP3 DUP1 SLOAD DUP3 DUP3 SSTORE SWAP1 PUSH1 0x0 MSTORE PUSH1 0x20 PUSH1 0x0 KECCAK256 SWAP1 DUP2 ADD SWAP3 DUP3 ISZERO PUSH3 0x153 JUMPI SWAP2 PUSH1 0x20 MUL DUP3 ADD JUMPDEST DUP3 DUP2 GT ISZERO PUSH3 0x152 JUMPI DUP3 MLOAD DUP3 SSTORE SWAP2 PUSH1 0x20 ADD SWAP2 SWAP1 PUSH1 0x1 ADD SWAP1 PUSH3 0x135 JUMP JUMPDEST JUMPDEST POP SWAP1 POP PUSH3 0x162 SWAP2 SWAP1 PUSH3 0x166 JUMP JUMPDEST POP SWAP1 JUMP JUMPDEST JUMPDEST DUP1 DUP3 GT ISZERO PUSH3 0x181 JUMPI PUSH1 0x0 DUP2 PUSH1 0x0 SWAP1 SSTORE POP PUSH1 0x1 ADD PUSH3 0x167 JUMP JUMPDEST POP SWAP1 JUMP JUMPDEST PUSH32 0x4E487B7100000000000000000000000000000000000000000000000000000000 PUSH1 0x0 MSTORE PUSH1 0x21 PUSH1 0x4 MSTORE PUSH1 0x24 PUSH1 0x0 REVERT JUMPDEST PUSH1 0x0 PUSH1 0x40 MLOAD SWAP1 POP SWAP1 JUMP JUMPDEST PUSH1 0x0 DUP1 REVERT JUMPDEST PUSH1 0x0 DUP1 REVERT JUMPDEST PUSH1 0x0 PUSH20 0xFFFFFFFFFFFFFFFFFFFFFFFFFFFFFFFFFFFFFFFF DUP3 AND SWAP1 POP SWAP2 SWAP1 POP JUMP JUMPDEST PUSH1 0x0 PUSH3 0x1F5 DUP3 PUSH3 0x1C8 JUMP JUMPDEST SWAP1 POP SWAP2 SWAP1 POP JUMP JUMPDEST PUSH3 0x207 DUP2 PUSH3 0x1E8 JUMP JUMPDEST DUP2 EQ PUSH3 0x213 JUMPI PUSH1 0x0 DUP1 REVERT JUMPDEST POP JUMP JUMPDEST PUSH1 0x0 DUP2 MLOAD SWAP1 POP PUSH3 0x227 DUP2 PUSH3 0x1FC JUMP JUMPDEST SWAP3 SWAP2 POP POP JUMP JUMPDEST PUSH1 0x0 DUP1 REVERT JUMPDEST PUSH1 0x0 DUP1 REVERT JUMPDEST PUSH1 0x0 PUSH1 0x1F NOT PUSH1 0x1F DUP4 ADD AND SWAP1 POP SWAP2 SWAP1 POP JUMP JUMPDEST PUSH32 0x4E487B7100000000000000000000000000000000000000000000000000000000 PUSH1 0x0 MSTORE PUSH1 0x41 PUSH1 0x4 MSTORE PUSH1 0x24 PUSH1 0x0 REVERT JUMPDEST PUSH3 0x282 DUP3 PUSH3 0x237 JUMP JUMPDEST DUP2 ADD DUP2 DUP2 LT PUSH8 0xFFFFFFFFFFFFFFFF DUP3 GT OR ISZERO PUSH3 0x2A4 JUMPI PUSH3 0x2A3 PUSH3 0x248 JUMP JUMPDEST JUMPDEST DUP1 PUSH1 0x40 MSTORE POP POP POP JUMP JUMPDEST PUSH1 0x0 PUSH3 0x2B9 PUSH3 0x1B4 JUMP JUMPDEST SWAP1 POP PUSH3 0x2C7 DUP3 DUP3 PUSH3 0x277 JUMP JUMPDEST SWAP2 SWAP1 POP JUMP JUMPDEST PUSH1 0x0 PUSH8 0xFFFFFFFFFFFFFFFF DUP3 GT ISZERO PUSH3 0x2EA JUMPI PUSH3 0x2E9 PUSH3 0x248 JUMP JUMPDEST JUMPDEST PUSH3 0x2F5 DUP3 PUSH3 0x237 JUMP JUMPDEST SWAP1 POP PUSH1 0x20 DUP2 ADD SWAP1 POP SWAP2 SWAP1 POP JUMP JUMPDEST PUSH1 0x0 JUMPDEST DUP4 DUP2 LT ISZERO PUSH3 0x322 JUMPI DUP1 DUP3 ADD MLOAD DUP2 DUP5 ADD MSTORE PUSH1 0x20 DUP2 ADD SWAP1 POP PUSH3 0x305 JUMP JUMPDEST PUSH1 0x0 DUP5 DUP5 ADD MSTORE POP POP POP POP JUMP JUMPDEST PUSH1 0x0 PUSH3 0x345 PUSH3 0x33F DUP5 PUSH3 0x2CC JUMP JUMPDEST PUSH3 0x2AD JUMP JUMPDEST SWAP1 POP DUP3 DUP2 MSTORE PUSH1 0x20 DUP2 ADD DUP5 DUP5 DUP5 ADD GT ISZERO PUSH3 0x364 JUMPI PUSH3 0x363 PUSH3 0x232 JUMP JUMPDEST JUMPDEST PUSH3 0x371 DUP5 DUP3 DUP6 PUSH3 0x302 JUMP JUMPDEST POP SWAP4 SWAP3 POP POP POP JUMP JUMPDEST PUSH1 0x0 DUP3 PUSH1 0x1F DUP4 ADD SLT PUSH3 0x391 JUMPI PUSH3 0x390 PUSH3 0x22D JUMP JUMPDEST JUMPDEST DUP2 MLOAD PUSH3 0x3A3 DUP5 DUP3 PUSH1 0x20 DUP7 ADD PUSH3 0x32E JUMP JUMPDEST SWAP2 POP POP SWAP3 SWAP2 POP POP JUMP JUMPDEST PUSH1 0x0 PUSH8 0xFFFFFFFFFFFFFFFF DUP3 GT ISZERO PUSH3 0x3CA JUMPI PUSH3 0x3C9 PUSH3 0x248 JUMP JUMPDEST JUMPDEST PUSH1 0x20 DUP3 MUL SWAP1 POP PUSH1 0x20 DUP2 ADD SWAP1 POP SWAP2 SWAP1 POP JUMP JUMPDEST PUSH1 0x0 DUP1 REVERT JUMPDEST PUSH1 0x0 DUP2 SWAP1 POP SWAP2 SWAP1 POP JUMP JUMPDEST PUSH3 0x3F5 DUP2 PUSH3 0x3E0 JUMP JUMPDEST DUP2 EQ PUSH3 0x401 JUMPI PUSH1 0x0 DUP1 REVERT JUMPDEST POP JUMP JUMPDEST PUSH1 0x0 DUP2 MLOAD SWAP1 POP PUSH3 0x415 DUP2 PUSH3 0x3EA JUMP JUMPDEST SWAP3 SWAP2 POP POP JUMP JUMPDEST PUSH1 0x0 PUSH3 0x432 PUSH3 0x42C DUP5 PUSH3 0x3AC JUMP JUMPDEST PUSH3 0x2AD JUMP JUMPDEST SWAP1 POP DUP1 DUP4 DUP3 MSTORE PUSH1 0x20 DUP3 ADD SWAP1 POP PUSH1 0x20 DUP5 MUL DUP4 ADD DUP6 DUP2 GT ISZERO PUSH3 0x458 JUMPI PUSH3 0x457 PUSH3 0x3DB JUMP JUMPDEST JUMPDEST DUP4 JUMPDEST DUP2 DUP2 LT ISZERO PUSH3 0x485 JUMPI DUP1 PUSH3 0x470 DUP9 DUP3 PUSH3 0x404 JUMP JUMPDEST DUP5 MSTORE PUSH1 0x20 DUP5 ADD SWAP4 POP POP PUSH1 0x20 DUP2 ADD SWAP1 POP PUSH3 0x45A JUMP JUMPDEST POP POP POP SWAP4 SWAP3 POP POP POP JUMP JUMPDEST PUSH1 0x0 DUP3 PUSH1 0x1F DUP4 ADD SLT PUSH3 0x4A7 JUMPI PUSH3 0x4A6 PUSH3 0x22D JUMP JUMPDEST JUMPDEST DUP2 MLOAD PUSH3 0x4B9 DUP5 DUP3 PUSH1 0x20 DUP7 ADD PUSH3 0x41B JUMP JUMPDEST SWAP2 POP POP SWAP3 SWAP2 POP POP JUMP JUMPDEST PUSH1 0x0 DUP1 PUSH1 0x0 DUP1 PUSH1 0x0 DUP1 PUSH1 0x0 PUSH1 0xE0 DUP9 DUP11 SUB SLT ISZERO PUSH3 0x4E4 JUMPI PUSH3 0x4E3 PUSH3 0x1BE JUMP JUMPDEST JUMPDEST PUSH1 0x0 PUSH3 0x4F4 DUP11 DUP3 DUP12 ADD PUSH3 0x216 JUMP JUMPDEST SWAP8 POP POP PUSH1 0x20 DUP9 ADD MLOAD PUSH8 0xFFFFFFFFFFFFFFFF DUP2 GT ISZERO PUSH3 0x518 JUMPI PUSH3 0x517 PUSH3 0x1C3 JUMP JUMPDEST JUMPDEST PUSH3 0x526 DUP11 DUP3 DUP12 ADD PUSH3 0x379 JUMP JUMPDEST SWAP7 POP POP PUSH1 0x40 DUP9 ADD MLOAD PUSH8 0xFFFFFFFFFFFFFFFF DUP2 GT ISZERO PUSH3 0x54A JUMPI PUSH3 0x549 PUSH3 0x1C3 JUMP JUMPDEST JUMPDEST PUSH3 0x558 DUP11 DUP3 DUP12 ADD PUSH3 0x379 JUMP JUMPDEST SWAP6 POP POP PUSH1 0x60 DUP9 ADD MLOAD PUSH8 0xFFFFFFFFFFFFFFFF DUP2 GT ISZERO PUSH3 0x57C JUMPI PUSH3 0x57B PUSH3 0x1C3 JUMP JUMPDEST JUMPDEST PUSH3 0x58A DUP11 DUP3 DUP12 ADD PUSH3 0x48F JUMP JUMPDEST SWAP5 POP POP PUSH1 0x80 PUSH3 0x59D DUP11 DUP3 DUP12 ADD PUSH3 0x404 JUMP JUMPDEST SWAP4 POP POP PUSH1 0xA0 PUSH3 0x5B0 DUP11 DUP3 DUP12 ADD PUSH3 0x404 JUMP JUMPDEST SWAP3 POP POP PUSH1 0xC0 PUSH3 0x5C3 DUP11 DUP3 DUP12 ADD PUSH3 0x404 JUMP JUMPDEST SWAP2 POP POP SWAP3 SWAP6 SWAP9 SWAP2 SWAP5 SWAP8 POP SWAP3 SWAP6 POP JUMP JUMPDEST PUSH1 0x0 DUP2 MLOAD SWAP1 POP SWAP2 SWAP1 POP JUMP JUMPDEST PUSH32 0x4E487B7100000000000000000000000000000000000000000000000000000000 PUSH1 0x0 MSTORE PUSH1 0x22 PUSH1 0x4 MSTORE PUSH1 0x24 PUSH1 0x0 REVERT JUMPDEST PUSH1 0x0 PUSH1 0x2 DUP3 DIV SWAP1 POP PUSH1 0x1 DUP3 AND DUP1 PUSH3 0x625 JUMPI PUSH1 0x7F DUP3 AND SWAP2 POP JUMPDEST PUSH1 0x20 DUP3 LT DUP2 SUB PUSH3 0x63B JUMPI PUSH3 0x63A PUSH3 0x5DD JUMP JUMPDEST JUMPDEST POP SWAP2 SWAP1 POP JUMP JUMPDEST PUSH1 0x0 DUP2 SWAP1 POP DUP2 PUSH1 0x0 MSTORE PUSH1 0x20 PUSH1 0x0 KECCAK256 SWAP1 POP SWAP2 SWAP1 POP JUMP JUMPDEST PUSH1 0x0 PUSH1 0x20 PUSH1 0x1F DUP4 ADD DIV SWAP1 POP SWAP2 SWAP1 POP JUMP JUMPDEST PUSH1 0x0 DUP3 DUP3 SHL SWAP1 POP SWAP3 SWAP2 POP POP JUMP JUMPDEST PUSH1 0x0 PUSH1 0x8 DUP4 MUL PUSH3 0x6A5 PUSH32 0xFFFFFFFFFFFFFFFFFFFFFFFFFFFFFFFFFFFFFFFFFFFFFFFFFFFFFFFFFFFFFFFF DUP3 PUSH3 0x666 JUMP JUMPDEST PUSH3 0x6B1 DUP7 DUP4 PUSH3 0x666 JUMP JUMPDEST SWAP6 POP DUP1 NOT DUP5 AND SWAP4 POP DUP1 DUP7 AND DUP5 OR SWAP3 POP POP POP SWAP4 SWAP3 POP POP POP JUMP JUMPDEST PUSH1 0x0 DUP2 SWAP1 POP SWAP2 SWAP1 POP JUMP JUMPDEST PUSH1 0x0 PUSH3 0x6F4 PUSH3 0x6EE PUSH3 0x6E8 DUP5 PUSH3 0x3E0 JUMP JUMPDEST PUSH3 0x6C9 JUMP JUMPDEST PUSH3 0x3E0 JUMP JUMPDEST SWAP1 POP SWAP2 SWAP1 POP JUMP JUMPDEST PUSH1 0x0 DUP2 SWAP1 POP SWAP2 SWAP1 POP JUMP JUMPDEST PUSH3 0x710 DUP4 PUSH3 0x6D3 JUMP JUMPDEST PUSH3 0x728 PUSH3 0x71F DUP3 PUSH3 0x6FB JUMP JUMPDEST DUP5 DUP5 SLOAD PUSH3 0x673 JUMP JUMPDEST DUP3 SSTORE POP POP POP POP JUMP JUMPDEST PUSH1 0x0 SWAP1 JUMP JUMPDEST PUSH3 0x73F PUSH3 0x730 JUMP JUMPDEST PUSH3 0x74C DUP2 DUP5 DUP5 PUSH3 0x705 JUMP JUMPDEST POP POP POP JUMP JUMPDEST JUMPDEST DUP2 DUP2 LT ISZERO PUSH3 0x774 JUMPI PUSH3 0x768 PUSH1 0x0 DUP3 PUSH3 0x735 JUMP JUMPDEST PUSH1 0x1 DUP2 ADD SWAP1 POP PUSH3 0x752 JUMP JUMPDEST POP POP JUMP JUMPDEST PUSH1 0x1F DUP3 GT ISZERO PUSH3 0x7C3 JUMPI PUSH3 0x78D DUP2 PUSH3 0x641 JUMP JUMPDEST PUSH3 0x798 DUP5 PUSH3 0x656 JUMP JUMPDEST DUP2 ADD PUSH1 0x20 DUP6 LT ISZERO PUSH3 0x7A8 JUMPI DUP2 SWAP1 POP JUMPDEST PUSH3 0x7C0 PUSH3 0x7B7 DUP6 PUSH3 0x656 JUMP JUMPDEST DUP4 ADD DUP3 PUSH3 0x751 JUMP JUMPDEST POP POP JUMPDEST POP POP POP JUMP JUMPDEST PUSH1 0x0 DUP3 DUP3 SHR SWAP1 POP SWAP3 SWAP2 POP POP JUMP JUMPDEST PUSH1 0x0 PUSH3 0x7E8 PUSH1 0x0 NOT DUP5 PUSH1 0x8 MUL PUSH3 0x7C8 JUMP JUMPDEST NOT DUP1 DUP4 AND SWAP2 POP POP SWAP3 SWAP2 POP POP JUMP JUMPDEST PUSH1 0x0 PUSH3 0x803 DUP4 DUP4 PUSH3 0x7D5 JUMP JUMPDEST SWAP2 POP DUP3 PUSH1 0x2 MUL DUP3 OR SWAP1 POP SWAP3 SWAP2 POP POP JUMP JUMPDEST PUSH3 0x81E DUP3 PUSH3 0x5D2 JUMP JUMPDEST PUSH8 0xFFFFFFFFFFFFFFFF DUP2 GT ISZERO PUSH3 0x83A JUMPI PUSH3 0x839 PUSH3 0x248 JUMP JUMPDEST JUMPDEST PUSH3 0x846 DUP3 SLOAD PUSH3 0x60C JUMP JUMPDEST PUSH3 0x853 DUP3 DUP3 DUP6 PUSH3 0x778 JUMP JUMPDEST PUSH1 0x0 PUSH1 0x20 SWAP1 POP PUSH1 0x1F DUP4 GT PUSH1 0x1 DUP2 EQ PUSH3 0x88B JUMPI PUSH1 0x0 DUP5 ISZERO PUSH3 0x876 JUMPI DUP3 DUP8 ADD MLOAD SWAP1 POP JUMPDEST PUSH3 0x882 DUP6 DUP3 PUSH3 0x7F5 JUMP JUMPDEST DUP7 SSTORE POP PUSH3 0x8F2 JUMP JUMPDEST PUSH1 0x1F NOT DUP5 AND PUSH3 0x89B DUP7 PUSH3 0x641 JUMP JUMPDEST PUSH1 0x0 JUMPDEST DUP3 DUP2 LT ISZERO PUSH3 0x8C5 JUMPI DUP5 DUP10 ADD MLOAD DUP3 SSTORE PUSH1 0x1 DUP3 ADD SWAP2 POP PUSH1 0x20 DUP6 ADD SWAP5 POP PUSH1 0x20 DUP2 ADD SWAP1 POP PUSH3 0x89E JUMP JUMPDEST DUP7 DUP4 LT ISZERO PUSH3 0x8E5 JUMPI DUP5 DUP10 ADD MLOAD PUSH3 0x8E1 PUSH1 0x1F DUP10 AND DUP3 PUSH3 0x7D5 JUMP JUMPDEST DUP4 SSTORE POP JUMPDEST PUSH1 0x1 PUSH1 0x2 DUP9 MUL ADD DUP9 SSTORE POP POP POP JUMPDEST POP POP POP POP POP POP JUMP JUMPDEST PUSH2 0x2645 DUP1 PUSH3 0x90A PUSH1 0x0 CODECOPY PUSH1 0x0 RETURN INVALID PUSH1 0x80 PUSH1 0x40 MSTORE PUSH1 0x4 CALLDATASIZE LT PUSH2 0xFE JUMPI PUSH1 0x0 CALLDATALOAD PUSH1 0xE0 SHR DUP1 PUSH4 0x992A7DFB GT PUSH2 0x95 JUMPI DUP1 PUSH4 0xD61BA69D GT PUSH2 0x64 JUMPI DUP1 PUSH4 0xD61BA69D EQ PUSH2 0x31A JUMPI DUP1 PUSH4 0xE2DC4310 EQ PUSH2 0x343 JUMPI DUP1 PUSH4 0xF106501D EQ PUSH2 0x35F JUMPI DUP1 PUSH4 0xF7FFBD85 EQ PUSH2 0x39C JUMPI DUP1 PUSH4 0xFF3A9C7E EQ PUSH2 0x3C7 JUMPI PUSH2 0xFE JUMP JUMPDEST DUP1 PUSH4 0x992A7DFB EQ PUSH2 0x257 JUMPI DUP1 PUSH4 0xB40141BF EQ PUSH2 0x299 JUMPI DUP1 PUSH4 0xC59EE1DC EQ PUSH2 0x2C4 JUMPI DUP1 PUSH4 0xC5DEBBD7 EQ PUSH2 0x2EF JUMPI PUSH2 0xFE JUMP JUMPDEST DUP1 PUSH4 0x3410452A GT PUSH2 0xD1 JUMPI DUP1 PUSH4 0x3410452A EQ PUSH2 0x1AD JUMPI DUP1 PUSH4 0x4377CF65 EQ PUSH2 0x1D8 JUMPI DUP1 PUSH4 0x698BBEBD EQ PUSH2 0x203 JUMPI DUP1 PUSH4 0x937E09B1 EQ PUSH2 0x22C JUMPI PUSH2 0xFE JUMP JUMPDEST DUP1 PUSH4 0x11174A29 EQ PUSH2 0x103 JUMPI DUP1 PUSH4 0x286426A1 EQ PUSH2 0x12E JUMPI DUP1 PUSH4 0x2DE0EC02 EQ PUSH2 0x157 JUMPI DUP1 PUSH4 0x3293943F EQ PUSH2 0x182 JUMPI JUMPDEST PUSH1 0x0 DUP1 REVERT JUMPDEST CALLVALUE DUP1 ISZERO PUSH2 0x10F JUMPI PUSH1 0x0 DUP1 REVERT JUMPDEST POP PUSH2 0x118 PUSH2 0x3FA JUMP JUMPDEST PUSH1 0x40 MLOAD PUSH2 0x125 SWAP2 SWAP1 PUSH2 0x13B8 JUMP JUMPDEST PUSH1 0x40 MLOAD DUP1 SWAP2 SUB SWAP1 RETURN JUMPDEST CALLVALUE DUP1 ISZERO PUSH2 0x13A JUMPI PUSH1 0x0 DUP1 REVERT JUMPDEST POP PUSH2 0x155 PUSH1 0x4 DUP1 CALLDATASIZE SUB DUP2 ADD SWAP1 PUSH2 0x150 SWAP2 SWAP1 PUSH2 0x1413 JUMP JUMPDEST PUSH2 0x404 JUMP JUMPDEST STOP JUMPDEST CALLVALUE DUP1 ISZERO PUSH2 0x163 JUMPI PUSH1 0x0 DUP1 REVERT JUMPDEST POP PUSH2 0x16C PUSH2 0x5FB JUMP JUMPDEST PUSH1 0x40 MLOAD PUSH2 0x179 SWAP2 SWAP1 PUSH2 0x145B JUMP JUMPDEST PUSH1 0x40 MLOAD DUP1 SWAP2 SUB SWAP1 RETURN JUMPDEST CALLVALUE DUP1 ISZERO PUSH2 0x18E JUMPI PUSH1 0x0 DUP1 REVERT JUMPDEST POP PUSH2 0x197 PUSH2 0x82F JUMP JUMPDEST PUSH1 0x40 MLOAD PUSH2 0x1A4 SWAP2 SWAP1 PUSH2 0x13B8 JUMP JUMPDEST PUSH1 0x40 MLOAD DUP1 SWAP2 SUB SWAP1 RETURN JUMPDEST CALLVALUE DUP1 ISZERO PUSH2 0x1B9 JUMPI PUSH1 0x0 DUP1 REVERT JUMPDEST POP PUSH2 0x1C2 PUSH2 0x835 JUMP JUMPDEST PUSH1 0x40 MLOAD PUSH2 0x1CF SWAP2 SWAP1 PUSH2 0x13B8 JUMP JUMPDEST PUSH1 0x40 MLOAD DUP1 SWAP2 SUB SWAP1 RETURN JUMPDEST CALLVALUE DUP1 ISZERO PUSH2 0x1E4 JUMPI PUSH1 0x0 DUP1 REVERT JUMPDEST POP PUSH2 0x1ED PUSH2 0x83F JUMP JUMPDEST PUSH1 0x40 MLOAD PUSH2 0x1FA SWAP2 SWAP1 PUSH2 0x13B8 JUMP JUMPDEST PUSH1 0x40 MLOAD DUP1 SWAP2 SUB SWAP1 RETURN JUMPDEST CALLVALUE DUP1 ISZERO PUSH2 0x20F JUMPI PUSH1 0x0 DUP1 REVERT JUMPDEST POP PUSH2 0x22A PUSH1 0x4 DUP1 CALLDATASIZE SUB DUP2 ADD SWAP1 PUSH2 0x225 SWAP2 SWAP1 PUSH2 0x1413 JUMP JUMPDEST PUSH2 0x845 JUMP JUMPDEST STOP JUMPDEST CALLVALUE DUP1 ISZERO PUSH2 0x238 JUMPI PUSH1 0x0 DUP1 REVERT JUMPDEST POP PUSH2 0x241 PUSH2 0xB1C JUMP JUMPDEST PUSH1 0x40 MLOAD PUSH2 0x24E SWAP2 SWAP1 PUSH2 0x13B8 JUMP JUMPDEST PUSH1 0x40 MLOAD DUP1 SWAP2 SUB SWAP1 RETURN JUMPDEST CALLVALUE DUP1 ISZERO PUSH2 0x263 JUMPI PUSH1 0x0 DUP1 REVERT JUMPDEST POP PUSH2 0x27E PUSH1 0x4 DUP1 CALLDATASIZE SUB DUP2 ADD SWAP1 PUSH2 0x279 SWAP2 SWAP1 PUSH2 0x1413 JUMP JUMPDEST PUSH2 0xB22 JUMP JUMPDEST PUSH1 0x40 MLOAD PUSH2 0x290 SWAP7 SWAP6 SWAP5 SWAP4 SWAP3 SWAP2 SWAP1 PUSH2 0x1547 JUMP JUMPDEST PUSH1 0x40 MLOAD DUP1 SWAP2 SUB SWAP1 RETURN JUMPDEST CALLVALUE DUP1 ISZERO PUSH2 0x2A5 JUMPI PUSH1 0x0 DUP1 REVERT JUMPDEST POP PUSH2 0x2AE PUSH2 0xC9B JUMP JUMPDEST PUSH1 0x40 MLOAD PUSH2 0x2BB SWAP2 SWAP1 PUSH2 0x13B8 JUMP JUMPDEST PUSH1 0x40 MLOAD DUP1 SWAP2 SUB SWAP1 RETURN JUMPDEST CALLVALUE DUP1 ISZERO PUSH2 0x2D0 JUMPI PUSH1 0x0 DUP1 REVERT JUMPDEST POP PUSH2 0x2D9 PUSH2 0xCA1 JUMP JUMPDEST PUSH1 0x40 MLOAD PUSH2 0x2E6 SWAP2 SWAP1 PUSH2 0x13B8 JUMP JUMPDEST PUSH1 0x40 MLOAD DUP1 SWAP2 SUB SWAP1 RETURN JUMPDEST CALLVALUE DUP1 ISZERO PUSH2 0x2FB JUMPI PUSH1 0x0 DUP1 REVERT JUMPDEST POP PUSH2 0x304 PUSH2 0xCA7 JUMP JUMPDEST PUSH1 0x40 MLOAD PUSH2 0x311 SWAP2 SWAP1 PUSH2 0x162D JUMP JUMPDEST PUSH1 0x40 MLOAD DUP1 SWAP2 SUB SWAP1 RETURN JUMPDEST CALLVALUE DUP1 ISZERO PUSH2 0x326 JUMPI PUSH1 0x0 DUP1 REVERT JUMPDEST POP PUSH2 0x341 PUSH1 0x4 DUP1 CALLDATASIZE SUB DUP2 ADD SWAP1 PUSH2 0x33C SWAP2 SWAP1 PUSH2 0x17A9 JUMP JUMPDEST PUSH2 0xCBA JUMP JUMPDEST STOP JUMPDEST PUSH2 0x35D PUSH1 0x4 DUP1 CALLDATASIZE SUB DUP2 ADD SWAP1 PUSH2 0x358 SWAP2 SWAP1 PUSH2 0x1886 JUMP JUMPDEST PUSH2 0xF27 JUMP JUMPDEST STOP JUMPDEST CALLVALUE DUP1 ISZERO PUSH2 0x36B JUMPI PUSH1 0x0 DUP1 REVERT JUMPDEST POP PUSH2 0x386 PUSH1 0x4 DUP1 CALLDATASIZE SUB DUP2 ADD SWAP1 PUSH2 0x381 SWAP2 SWAP1 PUSH2 0x1886 JUMP JUMPDEST PUSH2 0x113F JUMP JUMPDEST PUSH1 0x40 MLOAD PUSH2 0x393 SWAP2 SWAP1 PUSH2 0x13B8 JUMP JUMPDEST PUSH1 0x40 MLOAD DUP1 SWAP2 SUB SWAP1 RETURN JUMPDEST CALLVALUE DUP1 ISZERO PUSH2 0x3A8 JUMPI PUSH1 0x0 DUP1 REVERT JUMPDEST POP PUSH2 0x3B1 PUSH2 0x1157 JUMP JUMPDEST PUSH1 0x40 MLOAD PUSH2 0x3BE SWAP2 SWAP1 PUSH2 0x13B8 JUMP JUMPDEST PUSH1 0x40 MLOAD DUP1 SWAP2 SUB SWAP1 RETURN JUMPDEST CALLVALUE DUP1 ISZERO PUSH2 0x3D3 JUMPI PUSH1 0x0 DUP1 REVERT JUMPDEST POP PUSH2 0x3DC PUSH2 0x115D JUMP JUMPDEST PUSH1 0x40 MLOAD PUSH2 0x3F1 SWAP10 SWAP9 SWAP8 SWAP7 SWAP6 SWAP5 SWAP4 SWAP3 SWAP2 SWAP1 PUSH2 0x1971 JUMP JUMPDEST PUSH1 0x40 MLOAD DUP1 SWAP2 SUB SWAP1 RETURN JUMPDEST PUSH1 0x0 PUSH1 0x6 SLOAD SWAP1 POP SWAP1 JUMP JUMPDEST PUSH1 0x0 PUSH1 0xA PUSH1 0x0 CALLER PUSH20 0xFFFFFFFFFFFFFFFFFFFFFFFFFFFFFFFFFFFFFFFF AND PUSH20 0xFFFFFFFFFFFFFFFFFFFFFFFFFFFFFFFFFFFFFFFF AND DUP2 MSTORE PUSH1 0x20 ADD SWAP1 DUP2 MSTORE PUSH1 0x20 ADD PUSH1 0x0 KECCAK256 SLOAD GT PUSH2 0x486 JUMPI PUSH1 0x40 MLOAD PUSH32 0x8C379A000000000000000000000000000000000000000000000000000000000 DUP2 MSTORE PUSH1 0x4 ADD PUSH2 0x47D SWAP1 PUSH2 0x1A85 JUMP JUMPDEST PUSH1 0x40 MLOAD DUP1 SWAP2 SUB SWAP1 REVERT JUMPDEST PUSH1 0x0 PUSH1 0xB PUSH1 0x0 DUP4 DUP2 MSTORE PUSH1 0x20 ADD SWAP1 DUP2 MSTORE PUSH1 0x20 ADD PUSH1 0x0 KECCAK256 SWAP1 POP PUSH1 0x0 ISZERO ISZERO DUP2 PUSH1 0x4 ADD PUSH1 0x0 CALLER PUSH20 0xFFFFFFFFFFFFFFFFFFFFFFFFFFFFFFFFFFFFFFFF AND PUSH20 0xFFFFFFFFFFFFFFFFFFFFFFFFFFFFFFFFFFFFFFFF AND DUP2 MSTORE PUSH1 0x20 ADD SWAP1 DUP2 MSTORE PUSH1 0x20 ADD PUSH1 0x0 KECCAK256 PUSH1 0x0 SWAP1 SLOAD SWAP1 PUSH2 0x100 EXP SWAP1 DIV PUSH1 0xFF AND ISZERO ISZERO EQ PUSH2 0x532 JUMPI PUSH1 0x40 MLOAD PUSH32 0x8C379A000000000000000000000000000000000000000000000000000000000 DUP2 MSTORE PUSH1 0x4 ADD PUSH2 0x529 SWAP1 PUSH2 0x1AF1 JUMP JUMPDEST PUSH1 0x40 MLOAD DUP1 SWAP2 SUB SWAP1 REVERT JUMPDEST PUSH1 0x1 ISZERO ISZERO DUP2 PUSH1 0x4 ADD PUSH1 0x0 CALLER PUSH20 0xFFFFFFFFFFFFFFFFFFFFFFFFFFFFFFFFFFFFFFFF AND PUSH20 0xFFFFFFFFFFFFFFFFFFFFFFFFFFFFFFFFFFFFFFFF AND DUP2 MSTORE PUSH1 0x20 ADD SWAP1 DUP2 MSTORE PUSH1 0x20 ADD PUSH1 0x0 KECCAK256 PUSH1 0x0 SWAP1 SLOAD SWAP1 PUSH2 0x100 EXP SWAP1 POP POP POP PUSH1 0x1 DUP2 PUSH1 0x3 ADD PUSH1 0x0 DUP3 DUP3 SLOAD PUSH2 0x599 SWAP2 SWAP1 PUSH2 0x1B40 JUMP JUMPDEST SWAP3 POP POP DUP2 SWAP1 SSTORE POP PUSH1 0x1 PUSH1 0xE PUSH1 0x0 DUP3 DUP3 SLOAD PUSH2 0x5B3 SWAP2 SWAP1 PUSH2 0x1B40 JUMP JUMPDEST SWAP3 POP POP DUP2 SWAP1 SSTORE POP PUSH32 0xC7F661EC8F5684E1D1153DFC3E2DDD03F7AF0A5DEAABD856D97EB83B37C0E92D CALLER DUP3 PUSH1 0x3 ADD SLOAD PUSH1 0x40 MLOAD PUSH2 0x5EF SWAP3 SWAP2 SWAP1 PUSH2 0x1B83 JUMP JUMPDEST PUSH1 0x40 MLOAD DUP1 SWAP2 SUB SWAP1 LOG1 POP POP JUMP JUMPDEST PUSH1 0x0 PUSH1 0x1 PUSH2 0x607 PUSH2 0x132C JUMP JUMPDEST DUP1 PUSH1 0x2 DUP2 GT ISZERO PUSH2 0x61A JUMPI PUSH2 0x619 PUSH2 0x15B6 JUMP JUMPDEST JUMPDEST PUSH1 0x9 PUSH1 0x0 SWAP1 SLOAD SWAP1 PUSH2 0x100 EXP SWAP1 DIV PUSH1 0xFF AND PUSH1 0x2 DUP2 GT ISZERO PUSH2 0x63C JUMPI PUSH2 0x63B PUSH2 0x15B6 JUMP JUMPDEST JUMPDEST EQ PUSH2 0x67C JUMPI PUSH1 0x40 MLOAD PUSH32 0x8C379A000000000000000000000000000000000000000000000000000000000 DUP2 MSTORE PUSH1 0x4 ADD PUSH2 0x673 SWAP1 PUSH2 0x1BF8 JUMP JUMPDEST PUSH1 0x40 MLOAD DUP1 SWAP2 SUB SWAP1 REVERT JUMPDEST PUSH1 0x0 PUSH1 0xA PUSH1 0x0 CALLER PUSH20 0xFFFFFFFFFFFFFFFFFFFFFFFFFFFFFFFFFFFFFFFF AND PUSH20 0xFFFFFFFFFFFFFFFFFFFFFFFFFFFFFFFFFFFFFFFF AND DUP2 MSTORE PUSH1 0x20 ADD SWAP1 DUP2 MSTORE PUSH1 0x20 ADD PUSH1 0x0 KECCAK256 SLOAD GT PUSH2 0x6FE JUMPI PUSH1 0x40 MLOAD PUSH32 0x8C379A000000000000000000000000000000000000000000000000000000000 DUP2 MSTORE PUSH1 0x4 ADD PUSH2 0x6F5 SWAP1 PUSH2 0x1C8A JUMP JUMPDEST PUSH1 0x40 MLOAD DUP1 SWAP2 SUB SWAP1 REVERT JUMPDEST PUSH1 0x0 CALLER SWAP1 POP DUP1 PUSH20 0xFFFFFFFFFFFFFFFFFFFFFFFFFFFFFFFFFFFFFFFF AND PUSH2 0x8FC PUSH1 0xA PUSH1 0x0 CALLER PUSH20 0xFFFFFFFFFFFFFFFFFFFFFFFFFFFFFFFFFFFFFFFF AND PUSH20 0xFFFFFFFFFFFFFFFFFFFFFFFFFFFFFFFFFFFFFFFF AND DUP2 MSTORE PUSH1 0x20 ADD SWAP1 DUP2 MSTORE PUSH1 0x20 ADD PUSH1 0x0 KECCAK256 SLOAD SWAP1 DUP2 ISZERO MUL SWAP1 PUSH1 0x40 MLOAD PUSH1 0x0 PUSH1 0x40 MLOAD DUP1 DUP4 SUB DUP2 DUP6 DUP9 DUP9 CALL SWAP4 POP POP POP POP ISZERO DUP1 ISZERO PUSH2 0x788 JUMPI RETURNDATASIZE PUSH1 0x0 DUP1 RETURNDATACOPY RETURNDATASIZE PUSH1 0x0 REVERT JUMPDEST POP PUSH1 0xA PUSH1 0x0 CALLER PUSH20 0xFFFFFFFFFFFFFFFFFFFFFFFFFFFFFFFFFFFFFFFF AND PUSH20 0xFFFFFFFFFFFFFFFFFFFFFFFFFFFFFFFFFFFFFFFF AND DUP2 MSTORE PUSH1 0x20 ADD SWAP1 DUP2 MSTORE PUSH1 0x20 ADD PUSH1 0x0 KECCAK256 SLOAD PUSH1 0x7 PUSH1 0x0 DUP3 DUP3 SLOAD PUSH2 0x7DA SWAP2 SWAP1 PUSH2 0x1CAA JUMP JUMPDEST SWAP3 POP POP DUP2 SWAP1 SSTORE POP PUSH1 0x0 PUSH1 0xA PUSH1 0x0 CALLER PUSH20 0xFFFFFFFFFFFFFFFFFFFFFFFFFFFFFFFFFFFFFFFF AND PUSH20 0xFFFFFFFFFFFFFFFFFFFFFFFFFFFFFFFFFFFFFFFF AND DUP2 MSTORE PUSH1 0x20 ADD SWAP1 DUP2 MSTORE PUSH1 0x20 ADD PUSH1 0x0 KECCAK256 DUP2 SWAP1 SSTORE POP PUSH1 0x1 SWAP3 POP POP POP SWAP1 JUMP JUMPDEST PUSH1 0xE SLOAD DUP2 JUMP JUMPDEST PUSH1 0x0 PUSH1 0xC SLOAD SWAP1 POP SWAP1 JUMP JUMPDEST PUSH1 0x6 SLOAD DUP2 JUMP JUMPDEST PUSH1 0x0 DUP1 SLOAD SWAP1 PUSH2 0x100 EXP SWAP1 DIV PUSH20 0xFFFFFFFFFFFFFFFFFFFFFFFFFFFFFFFFFFFFFFFF AND PUSH20 0xFFFFFFFFFFFFFFFFFFFFFFFFFFFFFFFFFFFFFFFF AND CALLER PUSH20 0xFFFFFFFFFFFFFFFFFFFFFFFFFFFFFFFFFFFFFFFF AND EQ PUSH2 0x8D3 JUMPI PUSH1 0x40 MLOAD PUSH32 0x8C379A000000000000000000000000000000000000000000000000000000000 DUP2 MSTORE PUSH1 0x4 ADD PUSH2 0x8CA SWAP1 PUSH2 0x1D2A JUMP JUMPDEST PUSH1 0x40 MLOAD DUP1 SWAP2 SUB SWAP1 REVERT JUMPDEST PUSH1 0x2 PUSH2 0x8DD PUSH2 0x132C JUMP JUMPDEST DUP1 PUSH1 0x2 DUP2 GT ISZERO PUSH2 0x8F0 JUMPI PUSH2 0x8EF PUSH2 0x15B6 JUMP JUMPDEST JUMPDEST PUSH1 0x9 PUSH1 0x0 SWAP1 SLOAD SWAP1 PUSH2 0x100 EXP SWAP1 DIV PUSH1 0xFF AND PUSH1 0x2 DUP2 GT ISZERO PUSH2 0x912 JUMPI PUSH2 0x911 PUSH2 0x15B6 JUMP JUMPDEST JUMPDEST EQ PUSH2 0x952 JUMPI PUSH1 0x40 MLOAD PUSH32 0x8C379A000000000000000000000000000000000000000000000000000000000 DUP2 MSTORE PUSH1 0x4 ADD PUSH2 0x949 SWAP1 PUSH2 0x1BF8 JUMP JUMPDEST PUSH1 0x40 MLOAD DUP1 SWAP2 SUB SWAP1 REVERT JUMPDEST PUSH1 0x0 PUSH1 0xB PUSH1 0x0 DUP5 DUP2 MSTORE PUSH1 0x20 ADD SWAP1 DUP2 MSTORE PUSH1 0x20 ADD PUSH1 0x0 KECCAK256 SWAP1 POP PUSH1 0x0 ISZERO ISZERO DUP2 PUSH1 0x5 ADD PUSH1 0x0 SWAP1 SLOAD SWAP1 PUSH2 0x100 EXP SWAP1 DIV PUSH1 0xFF AND ISZERO ISZERO EQ PUSH2 0x9C1 JUMPI PUSH1 0x40 MLOAD PUSH32 0x8C379A000000000000000000000000000000000000000000000000000000000 DUP2 MSTORE PUSH1 0x4 ADD PUSH2 0x9B8 SWAP1 PUSH2 0x1D96 JUMP JUMPDEST PUSH1 0x40 MLOAD DUP1 SWAP2 SUB SWAP1 REVERT JUMPDEST PUSH1 0x2 PUSH1 0x6 SLOAD PUSH2 0x9D0 SWAP2 SWAP1 PUSH2 0x1DE5 JUMP JUMPDEST DUP2 PUSH1 0x3 ADD SLOAD GT PUSH2 0xA15 JUMPI PUSH1 0x40 MLOAD PUSH32 0x8C379A000000000000000000000000000000000000000000000000000000000 DUP2 MSTORE PUSH1 0x4 ADD PUSH2 0xA0C SWAP1 PUSH2 0x1E88 JUMP JUMPDEST PUSH1 0x40 MLOAD DUP1 SWAP2 SUB SWAP1 REVERT JUMPDEST DUP1 PUSH1 0x5 ADD PUSH1 0x1 SWAP1 SLOAD SWAP1 PUSH2 0x100 EXP SWAP1 DIV PUSH20 0xFFFFFFFFFFFFFFFFFFFFFFFFFFFFFFFFFFFFFFFF AND PUSH20 0xFFFFFFFFFFFFFFFFFFFFFFFFFFFFFFFFFFFFFFFF AND PUSH2 0x8FC DUP3 PUSH1 0x2 ADD SLOAD SWAP1 DUP2 ISZERO MUL SWAP1 PUSH1 0x40 MLOAD PUSH1 0x0 PUSH1 0x40 MLOAD DUP1 DUP4 SUB DUP2 DUP6 DUP9 DUP9 CALL SWAP4 POP POP POP POP ISZERO DUP1 ISZERO PUSH2 0xA83 JUMPI RETURNDATASIZE PUSH1 0x0 DUP1 RETURNDATACOPY RETURNDATASIZE PUSH1 0x0 REVERT JUMPDEST POP PUSH1 0x1 DUP2 PUSH1 0x5 ADD PUSH1 0x0 PUSH2 0x100 EXP DUP2 SLOAD DUP2 PUSH1 0xFF MUL NOT AND SWAP1 DUP4 ISZERO ISZERO MUL OR SWAP1 SSTORE POP PUSH32 0x6FA21E9816E98D602D534C8241A2D8842692354498B6011947ABE1AB92916B78 DUP4 DUP3 PUSH1 0x0 ADD DUP4 PUSH1 0x1 ADD DUP5 PUSH1 0x2 ADD SLOAD DUP6 PUSH1 0x3 ADD SLOAD PUSH1 0x1 DUP8 PUSH1 0x5 ADD PUSH1 0x1 SWAP1 SLOAD SWAP1 PUSH2 0x100 EXP SWAP1 DIV PUSH20 0xFFFFFFFFFFFFFFFFFFFFFFFFFFFFFFFFFFFFFFFF AND PUSH1 0x40 MLOAD PUSH2 0xB0F SWAP8 SWAP7 SWAP6 SWAP5 SWAP4 SWAP3 SWAP2 SWAP1 PUSH2 0x2000 JUMP JUMPDEST PUSH1 0x40 MLOAD DUP1 SWAP2 SUB SWAP1 LOG1 POP POP POP JUMP JUMPDEST PUSH1 0x5 SLOAD DUP2 JUMP JUMPDEST PUSH1 0xB PUSH1 0x20 MSTORE DUP1 PUSH1 0x0 MSTORE PUSH1 0x40 PUSH1 0x0 KECCAK256 PUSH1 0x0 SWAP2 POP SWAP1 POP DUP1 PUSH1 0x0 ADD DUP1 SLOAD PUSH2 0xB45 SWAP1 PUSH2 0x1ED7 JUMP JUMPDEST DUP1 PUSH1 0x1F ADD PUSH1 0x20 DUP1 SWAP2 DIV MUL PUSH1 0x20 ADD PUSH1 0x40 MLOAD SWAP1 DUP2 ADD PUSH1 0x40 MSTORE DUP1 SWAP3 SWAP2 SWAP1 DUP2 DUP2 MSTORE PUSH1 0x20 ADD DUP3 DUP1 SLOAD PUSH2 0xB71 SWAP1 PUSH2 0x1ED7 JUMP JUMPDEST DUP1 ISZERO PUSH2 0xBBE JUMPI DUP1 PUSH1 0x1F LT PUSH2 0xB93 JUMPI PUSH2 0x100 DUP1 DUP4 SLOAD DIV MUL DUP4 MSTORE SWAP2 PUSH1 0x20 ADD SWAP2 PUSH2 0xBBE JUMP JUMPDEST DUP3 ADD SWAP2 SWAP1 PUSH1 0x0 MSTORE PUSH1 0x20 PUSH1 0x0 KECCAK256 SWAP1 JUMPDEST DUP2 SLOAD DUP2 MSTORE SWAP1 PUSH1 0x1 ADD SWAP1 PUSH1 0x20 ADD DUP1 DUP4 GT PUSH2 0xBA1 JUMPI DUP3 SWAP1 SUB PUSH1 0x1F AND DUP3 ADD SWAP2 JUMPDEST POP POP POP POP POP SWAP1 DUP1 PUSH1 0x1 ADD DUP1 SLOAD PUSH2 0xBD3 SWAP1 PUSH2 0x1ED7 JUMP JUMPDEST DUP1 PUSH1 0x1F ADD PUSH1 0x20 DUP1 SWAP2 DIV MUL PUSH1 0x20 ADD PUSH1 0x40 MLOAD SWAP1 DUP2 ADD PUSH1 0x40 MSTORE DUP1 SWAP3 SWAP2 SWAP1 DUP2 DUP2 MSTORE PUSH1 0x20 ADD DUP3 DUP1 SLOAD PUSH2 0xBFF SWAP1 PUSH2 0x1ED7 JUMP JUMPDEST DUP1 ISZERO PUSH2 0xC4C JUMPI DUP1 PUSH1 0x1F LT PUSH2 0xC21 JUMPI PUSH2 0x100 DUP1 DUP4 SLOAD DIV MUL DUP4 MSTORE SWAP2 PUSH1 0x20 ADD SWAP2 PUSH2 0xC4C JUMP JUMPDEST DUP3 ADD SWAP2 SWAP1 PUSH1 0x0 MSTORE PUSH1 0x20 PUSH1 0x0 KECCAK256 SWAP1 JUMPDEST DUP2 SLOAD DUP2 MSTORE SWAP1 PUSH1 0x1 ADD SWAP1 PUSH1 0x20 ADD DUP1 DUP4 GT PUSH2 0xC2F JUMPI DUP3 SWAP1 SUB PUSH1 0x1F AND DUP3 ADD SWAP2 JUMPDEST POP POP POP POP POP SWAP1 DUP1 PUSH1 0x2 ADD SLOAD SWAP1 DUP1 PUSH1 0x3 ADD SLOAD SWAP1 DUP1 PUSH1 0x5 ADD PUSH1 0x0 SWAP1 SLOAD SWAP1 PUSH2 0x100 EXP SWAP1 DIV PUSH1 0xFF AND SWAP1 DUP1 PUSH1 0x5 ADD PUSH1 0x1 SWAP1 SLOAD SWAP1 PUSH2 0x100 EXP SWAP1 DIV PUSH20 0xFFFFFFFFFFFFFFFFFFFFFFFFFFFFFFFFFFFFFFFF AND SWAP1 POP DUP7 JUMP JUMPDEST PUSH1 0xC SLOAD DUP2 JUMP JUMPDEST PUSH1 0x7 SLOAD DUP2 JUMP JUMPDEST PUSH1 0x9 PUSH1 0x0 SWAP1 SLOAD SWAP1 PUSH2 0x100 EXP SWAP1 DIV PUSH1 0xFF AND DUP2 JUMP JUMPDEST PUSH1 0x0 DUP1 SLOAD SWAP1 PUSH2 0x100 EXP SWAP1 DIV PUSH20 0xFFFFFFFFFFFFFFFFFFFFFFFFFFFFFFFFFFFFFFFF AND PUSH20 0xFFFFFFFFFFFFFFFFFFFFFFFFFFFFFFFFFFFFFFFF AND CALLER PUSH20 0xFFFFFFFFFFFFFFFFFFFFFFFFFFFFFFFFFFFFFFFF AND EQ PUSH2 0xD48 JUMPI PUSH1 0x40 MLOAD PUSH32 0x8C379A000000000000000000000000000000000000000000000000000000000 DUP2 MSTORE PUSH1 0x4 ADD PUSH2 0xD3F SWAP1 PUSH2 0x1D2A JUMP JUMPDEST PUSH1 0x40 MLOAD DUP1 SWAP2 SUB SWAP1 REVERT JUMPDEST PUSH1 0x2 PUSH2 0xD52 PUSH2 0x132C JUMP JUMPDEST DUP1 PUSH1 0x2 DUP2 GT ISZERO PUSH2 0xD65 JUMPI PUSH2 0xD64 PUSH2 0x15B6 JUMP JUMPDEST JUMPDEST PUSH1 0x9 PUSH1 0x0 SWAP1 SLOAD SWAP1 PUSH2 0x100 EXP SWAP1 DIV PUSH1 0xFF AND PUSH1 0x2 DUP2 GT ISZERO PUSH2 0xD87 JUMPI PUSH2 0xD86 PUSH2 0x15B6 JUMP JUMPDEST JUMPDEST EQ PUSH2 0xDC7 JUMPI PUSH1 0x40 MLOAD PUSH32 0x8C379A000000000000000000000000000000000000000000000000000000000 DUP2 MSTORE PUSH1 0x4 ADD PUSH2 0xDBE SWAP1 PUSH2 0x1BF8 JUMP JUMPDEST PUSH1 0x40 MLOAD DUP1 SWAP2 SUB SWAP1 REVERT JUMPDEST PUSH1 0xC SLOAD PUSH1 0x3 DUP1 SLOAD SWAP1 POP LT ISZERO PUSH2 0xE11 JUMPI PUSH1 0x40 MLOAD PUSH32 0x8C379A000000000000000000000000000000000000000000000000000000000 DUP2 MSTORE PUSH1 0x4 ADD PUSH2 0xE08 SWAP1 PUSH2 0x20EF JUMP JUMPDEST PUSH1 0x40 MLOAD DUP1 SWAP2 SUB SWAP1 REVERT JUMPDEST PUSH1 0x0 PUSH1 0xB PUSH1 0x0 PUSH1 0xC SLOAD DUP2 MSTORE PUSH1 0x20 ADD SWAP1 DUP2 MSTORE PUSH1 0x20 ADD PUSH1 0x0 KECCAK256 SWAP1 POP DUP6 DUP2 PUSH1 0x0 ADD SWAP1 DUP2 PUSH2 0xE3B SWAP2 SWAP1 PUSH2 0x229C JUMP JUMPDEST POP DUP5 DUP2 PUSH1 0x1 ADD SWAP1 DUP2 PUSH2 0xE4D SWAP2 SWAP1 PUSH2 0x229C JUMP JUMPDEST POP DUP4 DUP2 PUSH1 0x2 ADD DUP2 SWAP1 SSTORE POP PUSH1 0x0 DUP2 PUSH1 0x3 ADD DUP2 SWAP1 SSTORE POP PUSH1 0x0 DUP2 PUSH1 0x5 ADD PUSH1 0x0 PUSH2 0x100 EXP DUP2 SLOAD DUP2 PUSH1 0xFF MUL NOT AND SWAP1 DUP4 ISZERO ISZERO MUL OR SWAP1 SSTORE POP DUP3 DUP2 PUSH1 0x5 ADD PUSH1 0x1 PUSH2 0x100 EXP DUP2 SLOAD DUP2 PUSH20 0xFFFFFFFFFFFFFFFFFFFFFFFFFFFFFFFFFFFFFFFF MUL NOT AND SWAP1 DUP4 PUSH20 0xFFFFFFFFFFFFFFFFFFFFFFFFFFFFFFFFFFFFFFFF AND MUL OR SWAP1 SSTORE POP PUSH32 0x82AC0FA26AE14B275CC011645161E6FC2C4901AD8CAC2B1697B4D3290A602136 PUSH1 0xC SLOAD DUP8 DUP8 DUP8 PUSH1 0x0 DUP1 DUP10 PUSH1 0x40 MLOAD PUSH2 0xEFF SWAP8 SWAP7 SWAP6 SWAP5 SWAP4 SWAP3 SWAP2 SWAP1 PUSH2 0x23A9 JUMP JUMPDEST PUSH1 0x40 MLOAD DUP1 SWAP2 SUB SWAP1 LOG1 PUSH1 0xC PUSH1 0x0 DUP2 SLOAD DUP1 SWAP3 SWAP2 SWAP1 PUSH2 0xF1A SWAP1 PUSH2 0x2426 JUMP JUMPDEST SWAP2 SWAP1 POP SSTORE POP POP POP POP POP POP POP JUMP JUMPDEST PUSH1 0x0 DUP1 PUSH1 0x2 DUP2 GT ISZERO PUSH2 0xF3C JUMPI PUSH2 0xF3B PUSH2 0x15B6 JUMP JUMPDEST JUMPDEST PUSH1 0x9 PUSH1 0x0 SWAP1 SLOAD SWAP1 PUSH2 0x100 EXP SWAP1 DIV PUSH1 0xFF AND PUSH1 0x2 DUP2 GT ISZERO PUSH2 0xF5E JUMPI PUSH2 0xF5D PUSH2 0x15B6 JUMP JUMPDEST JUMPDEST EQ PUSH2 0xF9E JUMPI PUSH1 0x40 MLOAD PUSH32 0x8C379A000000000000000000000000000000000000000000000000000000000 DUP2 MSTORE PUSH1 0x4 ADD PUSH2 0xF95 SWAP1 PUSH2 0x24E0 JUMP JUMPDEST PUSH1 0x40 MLOAD DUP1 SWAP2 SUB SWAP1 REVERT JUMPDEST PUSH1 0x8 SLOAD TIMESTAMP LT PUSH2 0xFE2 JUMPI PUSH1 0x40 MLOAD PUSH32 0x8C379A000000000000000000000000000000000000000000000000000000000 DUP2 MSTORE PUSH1 0x4 ADD PUSH2 0xFD9 SWAP1 PUSH2 0x254C JUMP JUMPDEST PUSH1 0x40 MLOAD DUP1 SWAP2 SUB SWAP1 REVERT JUMPDEST PUSH1 0x5 SLOAD CALLVALUE LT ISZERO PUSH2 0x1027 JUMPI PUSH1 0x40 MLOAD PUSH32 0x8C379A000000000000000000000000000000000000000000000000000000000 DUP2 MSTORE PUSH1 0x4 ADD PUSH2 0x101E SWAP1 PUSH2 0x25B8 JUMP JUMPDEST PUSH1 0x40 MLOAD DUP1 SWAP2 SUB SWAP1 REVERT JUMPDEST PUSH1 0x0 PUSH1 0xA PUSH1 0x0 DUP5 PUSH20 0xFFFFFFFFFFFFFFFFFFFFFFFFFFFFFFFFFFFFFFFF AND PUSH20 0xFFFFFFFFFFFFFFFFFFFFFFFFFFFFFFFFFFFFFFFF AND DUP2 MSTORE PUSH1 0x20 ADD SWAP1 DUP2 MSTORE PUSH1 0x20 ADD PUSH1 0x0 KECCAK256 SLOAD SUB PUSH2 0x1087 JUMPI PUSH1 0x6 PUSH1 0x0 DUP2 SLOAD DUP1 SWAP3 SWAP2 SWAP1 PUSH2 0x1081 SWAP1 PUSH2 0x2426 JUMP JUMPDEST SWAP2 SWAP1 POP SSTORE POP JUMPDEST CALLVALUE PUSH1 0xA PUSH1 0x0 DUP5 PUSH20 0xFFFFFFFFFFFFFFFFFFFFFFFFFFFFFFFFFFFFFFFF AND PUSH20 0xFFFFFFFFFFFFFFFFFFFFFFFFFFFFFFFFFFFFFFFF AND DUP2 MSTORE PUSH1 0x20 ADD SWAP1 DUP2 MSTORE PUSH1 0x20 ADD PUSH1 0x0 KECCAK256 PUSH1 0x0 DUP3 DUP3 SLOAD PUSH2 0x10D6 SWAP2 SWAP1 PUSH2 0x1B40 JUMP JUMPDEST SWAP3 POP POP DUP2 SWAP1 SSTORE POP CALLVALUE PUSH1 0x7 PUSH1 0x0 DUP3 DUP3 SLOAD PUSH2 0x10EF SWAP2 SWAP1 PUSH2 0x1B40 JUMP JUMPDEST SWAP3 POP POP DUP2 SWAP1 SSTORE POP PUSH32 0x5CDC4AB8D637538EAD6CC1904D4160343656C8C82BD266635CFD31AC008FFFE0 DUP3 CALLVALUE PUSH1 0x7 SLOAD PUSH1 0x40 MLOAD PUSH2 0x112B SWAP4 SWAP3 SWAP2 SWAP1 PUSH2 0x25D8 JUMP JUMPDEST PUSH1 0x40 MLOAD DUP1 SWAP2 SUB SWAP1 LOG1 PUSH2 0x113B PUSH2 0x132C JUMP JUMPDEST POP POP JUMP JUMPDEST PUSH1 0xA PUSH1 0x20 MSTORE DUP1 PUSH1 0x0 MSTORE PUSH1 0x40 PUSH1 0x0 KECCAK256 PUSH1 0x0 SWAP2 POP SWAP1 POP SLOAD DUP2 JUMP JUMPDEST PUSH1 0xD SLOAD DUP2 JUMP JUMPDEST PUSH1 0x0 DUP1 PUSH1 0x60 PUSH1 0x0 DUP1 PUSH1 0x60 DUP1 PUSH1 0x0 DUP1 PUSH1 0x0 DUP1 SLOAD SWAP1 PUSH2 0x100 EXP SWAP1 DIV PUSH20 0xFFFFFFFFFFFFFFFFFFFFFFFFFFFFFFFFFFFFFFFF AND SWAP9 POP PUSH1 0x5 SLOAD SWAP8 POP PUSH1 0x3 DUP1 SLOAD DUP1 PUSH1 0x20 MUL PUSH1 0x20 ADD PUSH1 0x40 MLOAD SWAP1 DUP2 ADD PUSH1 0x40 MSTORE DUP1 SWAP3 SWAP2 SWAP1 DUP2 DUP2 MSTORE PUSH1 0x20 ADD DUP3 DUP1 SLOAD DUP1 ISZERO PUSH2 0x11DF JUMPI PUSH1 0x20 MUL DUP3 ADD SWAP2 SWAP1 PUSH1 0x0 MSTORE PUSH1 0x20 PUSH1 0x0 KECCAK256 SWAP1 JUMPDEST DUP2 SLOAD DUP2 MSTORE PUSH1 0x20 ADD SWAP1 PUSH1 0x1 ADD SWAP1 DUP1 DUP4 GT PUSH2 0x11CB JUMPI JUMPDEST POP POP POP POP POP SWAP7 POP PUSH1 0x4 SLOAD SWAP6 POP PUSH1 0x7 SLOAD SWAP5 POP PUSH1 0x1 DUP1 SLOAD PUSH2 0x11FD SWAP1 PUSH2 0x1ED7 JUMP JUMPDEST DUP1 PUSH1 0x1F ADD PUSH1 0x20 DUP1 SWAP2 DIV MUL PUSH1 0x20 ADD PUSH1 0x40 MLOAD SWAP1 DUP2 ADD PUSH1 0x40 MSTORE DUP1 SWAP3 SWAP2 SWAP1 DUP2 DUP2 MSTORE PUSH1 0x20 ADD DUP3 DUP1 SLOAD PUSH2 0x1229 SWAP1 PUSH2 0x1ED7 JUMP JUMPDEST DUP1 ISZERO PUSH2 0x1276 JUMPI DUP1 PUSH1 0x1F LT PUSH2 0x124B JUMPI PUSH2 0x100 DUP1 DUP4 SLOAD DIV MUL DUP4 MSTORE SWAP2 PUSH1 0x20 ADD SWAP2 PUSH2 0x1276 JUMP JUMPDEST DUP3 ADD SWAP2 SWAP1 PUSH1 0x0 MSTORE PUSH1 0x20 PUSH1 0x0 KECCAK256 SWAP1 JUMPDEST DUP2 SLOAD DUP2 MSTORE SWAP1 PUSH1 0x1 ADD SWAP1 PUSH1 0x20 ADD DUP1 DUP4 GT PUSH2 0x1259 JUMPI DUP3 SWAP1 SUB PUSH1 0x1F AND DUP3 ADD SWAP2 JUMPDEST POP POP POP POP POP SWAP4 POP PUSH1 0x2 DUP1 SLOAD PUSH2 0x128A SWAP1 PUSH2 0x1ED7 JUMP JUMPDEST DUP1 PUSH1 0x1F ADD PUSH1 0x20 DUP1 SWAP2 DIV MUL PUSH1 0x20 ADD PUSH1 0x40 MLOAD SWAP1 DUP2 ADD PUSH1 0x40 MSTORE DUP1 SWAP3 SWAP2 SWAP1 DUP2 DUP2 MSTORE PUSH1 0x20 ADD DUP3 DUP1 SLOAD PUSH2 0x12B6 SWAP1 PUSH2 0x1ED7 JUMP JUMPDEST DUP1 ISZERO PUSH2 0x1303 JUMPI DUP1 PUSH1 0x1F LT PUSH2 0x12D8 JUMPI PUSH2 0x100 DUP1 DUP4 SLOAD DIV MUL DUP4 MSTORE SWAP2 PUSH1 0x20 ADD SWAP2 PUSH2 0x1303 JUMP JUMPDEST DUP3 ADD SWAP2 SWAP1 PUSH1 0x0 MSTORE PUSH1 0x20 PUSH1 0x0 KECCAK256 SWAP1 JUMPDEST DUP2 SLOAD DUP2 MSTORE SWAP1 PUSH1 0x1 ADD SWAP1 PUSH1 0x20 ADD DUP1 DUP4 GT PUSH2 0x12E6 JUMPI DUP3 SWAP1 SUB PUSH1 0x1F AND DUP3 ADD SWAP2 JUMPDEST POP POP POP POP POP SWAP3 POP PUSH1 0x8 SLOAD SWAP2 POP PUSH1 0x9 PUSH1 0x0 SWAP1 SLOAD SWAP1 PUSH2 0x100 EXP SWAP1 DIV PUSH1 0xFF AND SWAP1 POP SWAP1 SWAP2 SWAP3 SWAP4 SWAP5 SWAP6 SWAP7 SWAP8 SWAP9 JUMP JUMPDEST PUSH1 0x4 SLOAD PUSH1 0x7 SLOAD LT PUSH2 0x1367 JUMPI PUSH1 0x2 PUSH1 0x9 PUSH1 0x0 PUSH2 0x100 EXP DUP2 SLOAD DUP2 PUSH1 0xFF MUL NOT AND SWAP1 DUP4 PUSH1 0x2 DUP2 GT ISZERO PUSH2 0x135D JUMPI PUSH2 0x135C PUSH2 0x15B6 JUMP JUMPDEST JUMPDEST MUL OR SWAP1 SSTORE POP PUSH2 0x139D JUMP JUMPDEST PUSH1 0x8 SLOAD TIMESTAMP LT PUSH2 0x139C JUMPI PUSH1 0x1 PUSH1 0x9 PUSH1 0x0 PUSH2 0x100 EXP DUP2 SLOAD DUP2 PUSH1 0xFF MUL NOT AND SWAP1 DUP4 PUSH1 0x2 DUP2 GT ISZERO PUSH2 0x1396 JUMPI PUSH2 0x1395 PUSH2 0x15B6 JUMP JUMPDEST JUMPDEST MUL OR SWAP1 SSTORE POP JUMPDEST JUMPDEST JUMP JUMPDEST PUSH1 0x0 DUP2 SWAP1 POP SWAP2 SWAP1 POP JUMP JUMPDEST PUSH2 0x13B2 DUP2 PUSH2 0x139F JUMP JUMPDEST DUP3 MSTORE POP POP JUMP JUMPDEST PUSH1 0x0 PUSH1 0x20 DUP3 ADD SWAP1 POP PUSH2 0x13CD PUSH1 0x0 DUP4 ADD DUP5 PUSH2 0x13A9 JUMP JUMPDEST SWAP3 SWAP2 POP POP JUMP JUMPDEST PUSH1 0x0 PUSH1 0x40 MLOAD SWAP1 POP SWAP1 JUMP JUMPDEST PUSH1 0x0 DUP1 REVERT JUMPDEST PUSH1 0x0 DUP1 REVERT JUMPDEST PUSH2 0x13F0 DUP2 PUSH2 0x139F JUMP JUMPDEST DUP2 EQ PUSH2 0x13FB JUMPI PUSH1 0x0 DUP1 REVERT JUMPDEST POP JUMP JUMPDEST PUSH1 0x0 DUP2 CALLDATALOAD SWAP1 POP PUSH2 0x140D DUP2 PUSH2 0x13E7 JUMP JUMPDEST SWAP3 SWAP2 POP POP JUMP JUMPDEST PUSH1 0x0 PUSH1 0x20 DUP3 DUP5 SUB SLT ISZERO PUSH2 0x1429 JUMPI PUSH2 0x1428 PUSH2 0x13DD JUMP JUMPDEST JUMPDEST PUSH1 0x0 PUSH2 0x1437 DUP5 DUP3 DUP6 ADD PUSH2 0x13FE JUMP JUMPDEST SWAP2 POP POP SWAP3 SWAP2 POP POP JUMP JUMPDEST PUSH1 0x0 DUP2 ISZERO ISZERO SWAP1 POP SWAP2 SWAP1 POP JUMP JUMPDEST PUSH2 0x1455 DUP2 PUSH2 0x1440 JUMP JUMPDEST DUP3 MSTORE POP POP JUMP JUMPDEST PUSH1 0x0 PUSH1 0x20 DUP3 ADD SWAP1 POP PUSH2 0x1470 PUSH1 0x0 DUP4 ADD DUP5 PUSH2 0x144C JUMP JUMPDEST SWAP3 SWAP2 POP POP JUMP JUMPDEST PUSH1 0x0 DUP2 MLOAD SWAP1 POP SWAP2 SWAP1 POP JUMP JUMPDEST PUSH1 0x0 DUP3 DUP3 MSTORE PUSH1 0x20 DUP3 ADD SWAP1 POP SWAP3 SWAP2 POP POP JUMP JUMPDEST PUSH1 0x0 JUMPDEST DUP4 DUP2 LT ISZERO PUSH2 0x14B0 JUMPI DUP1 DUP3 ADD MLOAD DUP2 DUP5 ADD MSTORE PUSH1 0x20 DUP2 ADD SWAP1 POP PUSH2 0x1495 JUMP JUMPDEST PUSH1 0x0 DUP5 DUP5 ADD MSTORE POP POP POP POP JUMP JUMPDEST PUSH1 0x0 PUSH1 0x1F NOT PUSH1 0x1F DUP4 ADD AND SWAP1 POP SWAP2 SWAP1 POP JUMP JUMPDEST PUSH1 0x0 PUSH2 0x14D8 DUP3 PUSH2 0x1476 JUMP JUMPDEST PUSH2 0x14E2 DUP2 DUP6 PUSH2 0x1481 JUMP JUMPDEST SWAP4 POP PUSH2 0x14F2 DUP2 DUP6 PUSH1 0x20 DUP7 ADD PUSH2 0x1492 JUMP JUMPDEST PUSH2 0x14FB DUP2 PUSH2 0x14BC JUMP JUMPDEST DUP5 ADD SWAP2 POP POP SWAP3 SWAP2 POP POP JUMP JUMPDEST PUSH1 0x0 PUSH20 0xFFFFFFFFFFFFFFFFFFFFFFFFFFFFFFFFFFFFFFFF DUP3 AND SWAP1 POP SWAP2 SWAP1 POP JUMP JUMPDEST PUSH1 0x0 PUSH2 0x1531 DUP3 PUSH2 0x1506 JUMP JUMPDEST SWAP1 POP SWAP2 SWAP1 POP JUMP JUMPDEST PUSH2 0x1541 DUP2 PUSH2 0x1526 JUMP JUMPDEST DUP3 MSTORE POP POP JUMP JUMPDEST PUSH1 0x0 PUSH1 0xC0 DUP3 ADD SWAP1 POP DUP2 DUP2 SUB PUSH1 0x0 DUP4 ADD MSTORE PUSH2 0x1561 DUP2 DUP10 PUSH2 0x14CD JUMP JUMPDEST SWAP1 POP DUP2 DUP2 SUB PUSH1 0x20 DUP4 ADD MSTORE PUSH2 0x1575 DUP2 DUP9 PUSH2 0x14CD JUMP JUMPDEST SWAP1 POP PUSH2 0x1584 PUSH1 0x40 DUP4 ADD DUP8 PUSH2 0x13A9 JUMP JUMPDEST PUSH2 0x1591 PUSH1 0x60 DUP4 ADD DUP7 PUSH2 0x13A9 JUMP JUMPDEST PUSH2 0x159E PUSH1 0x80 DUP4 ADD DUP6 PUSH2 0x144C JUMP JUMPDEST PUSH2 0x15AB PUSH1 0xA0 DUP4 ADD DUP5 PUSH2 0x1538 JUMP JUMPDEST SWAP8 SWAP7 POP POP POP POP POP POP POP JUMP JUMPDEST PUSH32 0x4E487B7100000000000000000000000000000000000000000000000000000000 PUSH1 0x0 MSTORE PUSH1 0x21 PUSH1 0x4 MSTORE PUSH1 0x24 PUSH1 0x0 REVERT JUMPDEST PUSH1 0x3 DUP2 LT PUSH2 0x15F6 JUMPI PUSH2 0x15F5 PUSH2 0x15B6 JUMP JUMPDEST JUMPDEST POP JUMP JUMPDEST PUSH1 0x0 DUP2 SWAP1 POP PUSH2 0x1607 DUP3 PUSH2 0x15E5 JUMP JUMPDEST SWAP2 SWAP1 POP JUMP JUMPDEST PUSH1 0x0 PUSH2 0x1617 DUP3 PUSH2 0x15F9 JUMP JUMPDEST SWAP1 POP SWAP2 SWAP1 POP JUMP JUMPDEST PUSH2 0x1627 DUP2 PUSH2 0x160C JUMP JUMPDEST DUP3 MSTORE POP POP JUMP JUMPDEST PUSH1 0x0 PUSH1 0x20 DUP3 ADD SWAP1 POP PUSH2 0x1642 PUSH1 0x0 DUP4 ADD DUP5 PUSH2 0x161E JUMP JUMPDEST SWAP3 SWAP2 POP POP JUMP JUMPDEST PUSH1 0x0 DUP1 REVERT JUMPDEST PUSH1 0x0 DUP1 REVERT JUMPDEST PUSH32 0x4E487B7100000000000000000000000000000000000000000000000000000000 PUSH1 0x0 MSTORE PUSH1 0x41 PUSH1 0x4 MSTORE PUSH1 0x24 PUSH1 0x0 REVERT JUMPDEST PUSH2 0x168A DUP3 PUSH2 0x14BC JUMP JUMPDEST DUP2 ADD DUP2 DUP2 LT PUSH8 0xFFFFFFFFFFFFFFFF DUP3 GT OR ISZERO PUSH2 0x16A9 JUMPI PUSH2 0x16A8 PUSH2 0x1652 JUMP JUMPDEST JUMPDEST DUP1 PUSH1 0x40 MSTORE POP POP POP JUMP JUMPDEST PUSH1 0x0 PUSH2 0x16BC PUSH2 0x13D3 JUMP JUMPDEST SWAP1 POP PUSH2 0x16C8 DUP3 DUP3 PUSH2 0x1681 JUMP JUMPDEST SWAP2 SWAP1 POP JUMP JUMPDEST PUSH1 0x0 PUSH8 0xFFFFFFFFFFFFFFFF DUP3 GT ISZERO PUSH2 0x16E8 JUMPI PUSH2 0x16E7 PUSH2 0x1652 JUMP JUMPDEST JUMPDEST PUSH2 0x16F1 DUP3 PUSH2 0x14BC JUMP JUMPDEST SWAP1 POP PUSH1 0x20 DUP2 ADD SWAP1 POP SWAP2 SWAP1 POP JUMP JUMPDEST DUP3 DUP2 DUP4 CALLDATACOPY PUSH1 0x0 DUP4 DUP4 ADD MSTORE POP POP POP JUMP JUMPDEST PUSH1 0x0 PUSH2 0x1720 PUSH2 0x171B DUP5 PUSH2 0x16CD JUMP JUMPDEST PUSH2 0x16B2 JUMP JUMPDEST SWAP1 POP DUP3 DUP2 MSTORE PUSH1 0x20 DUP2 ADD DUP5 DUP5 DUP5 ADD GT ISZERO PUSH2 0x173C JUMPI PUSH2 0x173B PUSH2 0x164D JUMP JUMPDEST JUMPDEST PUSH2 0x1747 DUP5 DUP3 DUP6 PUSH2 0x16FE JUMP JUMPDEST POP SWAP4 SWAP3 POP POP POP JUMP JUMPDEST PUSH1 0x0 DUP3 PUSH1 0x1F DUP4 ADD SLT PUSH2 0x1764 JUMPI PUSH2 0x1763 PUSH2 0x1648 JUMP JUMPDEST JUMPDEST DUP2 CALLDATALOAD PUSH2 0x1774 DUP5 DUP3 PUSH1 0x20 DUP7 ADD PUSH2 0x170D JUMP JUMPDEST SWAP2 POP POP SWAP3 SWAP2 POP POP JUMP JUMPDEST PUSH2 0x1786 DUP2 PUSH2 0x1526 JUMP JUMPDEST DUP2 EQ PUSH2 0x1791 JUMPI PUSH1 0x0 DUP1 REVERT JUMPDEST POP JUMP JUMPDEST PUSH1 0x0 DUP2 CALLDATALOAD SWAP1 POP PUSH2 0x17A3 DUP2 PUSH2 0x177D JUMP JUMPDEST SWAP3 SWAP2 POP POP JUMP JUMPDEST PUSH1 0x0 DUP1 PUSH1 0x0 DUP1 PUSH1 0x80 DUP6 DUP8 SUB SLT ISZERO PUSH2 0x17C3 JUMPI PUSH2 0x17C2 PUSH2 0x13DD JUMP JUMPDEST JUMPDEST PUSH1 0x0 DUP6 ADD CALLDATALOAD PUSH8 0xFFFFFFFFFFFFFFFF DUP2 GT ISZERO PUSH2 0x17E1 JUMPI PUSH2 0x17E0 PUSH2 0x13E2 JUMP JUMPDEST JUMPDEST PUSH2 0x17ED DUP8 DUP3 DUP9 ADD PUSH2 0x174F JUMP JUMPDEST SWAP5 POP POP PUSH1 0x20 DUP6 ADD CALLDATALOAD PUSH8 0xFFFFFFFFFFFFFFFF DUP2 GT ISZERO PUSH2 0x180E JUMPI PUSH2 0x180D PUSH2 0x13E2 JUMP JUMPDEST JUMPDEST PUSH2 0x181A DUP8 DUP3 DUP9 ADD PUSH2 0x174F JUMP JUMPDEST SWAP4 POP POP PUSH1 0x40 PUSH2 0x182B DUP8 DUP3 DUP9 ADD PUSH2 0x13FE JUMP JUMPDEST SWAP3 POP POP PUSH1 0x60 PUSH2 0x183C DUP8 DUP3 DUP9 ADD PUSH2 0x1794 JUMP JUMPDEST SWAP2 POP POP SWAP3 SWAP6 SWAP2 SWAP5 POP SWAP3 POP JUMP JUMPDEST PUSH1 0x0 PUSH2 0x1853 DUP3 PUSH2 0x1506 JUMP JUMPDEST SWAP1 POP SWAP2 SWAP1 POP JUMP JUMPDEST PUSH2 0x1863 DUP2 PUSH2 0x1848 JUMP JUMPDEST DUP2 EQ PUSH2 0x186E JUMPI PUSH1 0x0 DUP1 REVERT JUMPDEST POP JUMP JUMPDEST PUSH1 0x0 DUP2 CALLDATALOAD SWAP1 POP PUSH2 0x1880 DUP2 PUSH2 0x185A JUMP JUMPDEST SWAP3 SWAP2 POP POP JUMP JUMPDEST PUSH1 0x0 PUSH1 0x20 DUP3 DUP5 SUB SLT ISZERO PUSH2 0x189C JUMPI PUSH2 0x189B PUSH2 0x13DD JUMP JUMPDEST JUMPDEST PUSH1 0x0 PUSH2 0x18AA DUP5 DUP3 DUP6 ADD PUSH2 0x1871 JUMP JUMPDEST SWAP2 POP POP SWAP3 SWAP2 POP POP JUMP JUMPDEST PUSH1 0x0 DUP2 MLOAD SWAP1 POP SWAP2 SWAP1 POP JUMP JUMPDEST PUSH1 0x0 DUP3 DUP3 MSTORE PUSH1 0x20 DUP3 ADD SWAP1 POP SWAP3 SWAP2 POP POP JUMP JUMPDEST PUSH1 0x0 DUP2 SWAP1 POP PUSH1 0x20 DUP3 ADD SWAP1 POP SWAP2 SWAP1 POP JUMP JUMPDEST PUSH2 0x18E8 DUP2 PUSH2 0x139F JUMP JUMPDEST DUP3 MSTORE POP POP JUMP JUMPDEST PUSH1 0x0 PUSH2 0x18FA DUP4 DUP4 PUSH2 0x18DF JUMP JUMPDEST PUSH1 0x20 DUP4 ADD SWAP1 POP SWAP3 SWAP2 POP POP JUMP JUMPDEST PUSH1 0x0 PUSH1 0x20 DUP3 ADD SWAP1 POP SWAP2 SWAP1 POP JUMP JUMPDEST PUSH1 0x0 PUSH2 0x191E DUP3 PUSH2 0x18B3 JUMP JUMPDEST PUSH2 0x1928 DUP2 DUP6 PUSH2 0x18BE JUMP JUMPDEST SWAP4 POP PUSH2 0x1933 DUP4 PUSH2 0x18CF JUMP JUMPDEST DUP1 PUSH1 0x0 JUMPDEST DUP4 DUP2 LT ISZERO PUSH2 0x1964 JUMPI DUP2 MLOAD PUSH2 0x194B DUP9 DUP3 PUSH2 0x18EE JUMP JUMPDEST SWAP8 POP PUSH2 0x1956 DUP4 PUSH2 0x1906 JUMP JUMPDEST SWAP3 POP POP PUSH1 0x1 DUP2 ADD SWAP1 POP PUSH2 0x1937 JUMP JUMPDEST POP DUP6 SWAP4 POP POP POP POP SWAP3 SWAP2 POP POP JUMP JUMPDEST PUSH1 0x0 PUSH2 0x120 DUP3 ADD SWAP1 POP PUSH2 0x1987 PUSH1 0x0 DUP4 ADD DUP13 PUSH2 0x1538 JUMP JUMPDEST PUSH2 0x1994 PUSH1 0x20 DUP4 ADD DUP12 PUSH2 0x13A9 JUMP JUMPDEST DUP2 DUP2 SUB PUSH1 0x40 DUP4 ADD MSTORE PUSH2 0x19A6 DUP2 DUP11 PUSH2 0x1913 JUMP JUMPDEST SWAP1 POP PUSH2 0x19B5 PUSH1 0x60 DUP4 ADD DUP10 PUSH2 0x13A9 JUMP JUMPDEST PUSH2 0x19C2 PUSH1 0x80 DUP4 ADD DUP9 PUSH2 0x13A9 JUMP JUMPDEST DUP2 DUP2 SUB PUSH1 0xA0 DUP4 ADD MSTORE PUSH2 0x19D4 DUP2 DUP8 PUSH2 0x14CD JUMP JUMPDEST SWAP1 POP DUP2 DUP2 SUB PUSH1 0xC0 DUP4 ADD MSTORE PUSH2 0x19E8 DUP2 DUP7 PUSH2 0x14CD JUMP JUMPDEST SWAP1 POP PUSH2 0x19F7 PUSH1 0xE0 DUP4 ADD DUP6 PUSH2 0x13A9 JUMP JUMPDEST PUSH2 0x1A05 PUSH2 0x100 DUP4 ADD DUP5 PUSH2 0x161E JUMP JUMPDEST SWAP11 SWAP10 POP POP POP POP POP POP POP POP POP POP JUMP JUMPDEST PUSH32 0x4F6E6C7920636F6E7472696275746F72732063616E20766F746520666F722074 PUSH1 0x0 DUP3 ADD MSTORE PUSH32 0x68652063616D706169676E000000000000000000000000000000000000000000 PUSH1 0x20 DUP3 ADD MSTORE POP JUMP JUMPDEST PUSH1 0x0 PUSH2 0x1A6F PUSH1 0x2B DUP4 PUSH2 0x1481 JUMP JUMPDEST SWAP2 POP PUSH2 0x1A7A DUP3 PUSH2 0x1A13 JUMP JUMPDEST PUSH1 0x40 DUP3 ADD SWAP1 POP SWAP2 SWAP1 POP JUMP JUMPDEST PUSH1 0x0 PUSH1 0x20 DUP3 ADD SWAP1 POP DUP2 DUP2 SUB PUSH1 0x0 DUP4 ADD MSTORE PUSH2 0x1A9E DUP2 PUSH2 0x1A62 JUMP JUMPDEST SWAP1 POP SWAP2 SWAP1 POP JUMP JUMPDEST PUSH32 0x596F75766520766F74656420666F7220746869732063616D706169676E000000 PUSH1 0x0 DUP3 ADD MSTORE POP JUMP JUMPDEST PUSH1 0x0 PUSH2 0x1ADB PUSH1 0x1D DUP4 PUSH2 0x1481 JUMP JUMPDEST SWAP2 POP PUSH2 0x1AE6 DUP3 PUSH2 0x1AA5 JUMP JUMPDEST PUSH1 0x20 DUP3 ADD SWAP1 POP SWAP2 SWAP1 POP JUMP JUMPDEST PUSH1 0x0 PUSH1 0x20 DUP3 ADD SWAP1 POP DUP2 DUP2 SUB PUSH1 0x0 DUP4 ADD MSTORE PUSH2 0x1B0A DUP2 PUSH2 0x1ACE JUMP JUMPDEST SWAP1 POP SWAP2 SWAP1 POP JUMP JUMPDEST PUSH32 0x4E487B7100000000000000000000000000000000000000000000000000000000 PUSH1 0x0 MSTORE PUSH1 0x11 PUSH1 0x4 MSTORE PUSH1 0x24 PUSH1 0x0 REVERT JUMPDEST PUSH1 0x0 PUSH2 0x1B4B DUP3 PUSH2 0x139F JUMP JUMPDEST SWAP2 POP PUSH2 0x1B56 DUP4 PUSH2 0x139F JUMP JUMPDEST SWAP3 POP DUP3 DUP3 ADD SWAP1 POP DUP1 DUP3 GT ISZERO PUSH2 0x1B6E JUMPI PUSH2 0x1B6D PUSH2 0x1B11 JUMP JUMPDEST JUMPDEST SWAP3 SWAP2 POP POP JUMP JUMPDEST PUSH2 0x1B7D DUP2 PUSH2 0x1848 JUMP JUMPDEST DUP3 MSTORE POP POP JUMP JUMPDEST PUSH1 0x0 PUSH1 0x40 DUP3 ADD SWAP1 POP PUSH2 0x1B98 PUSH1 0x0 DUP4 ADD DUP6 PUSH2 0x1B74 JUMP JUMPDEST PUSH2 0x1BA5 PUSH1 0x20 DUP4 ADD DUP5 PUSH2 0x13A9 JUMP JUMPDEST SWAP4 SWAP3 POP POP POP JUMP JUMPDEST PUSH32 0x496E76616C696420537461746521000000000000000000000000000000000000 PUSH1 0x0 DUP3 ADD MSTORE POP JUMP JUMPDEST PUSH1 0x0 PUSH2 0x1BE2 PUSH1 0xE DUP4 PUSH2 0x1481 JUMP JUMPDEST SWAP2 POP PUSH2 0x1BED DUP3 PUSH2 0x1BAC JUMP JUMPDEST PUSH1 0x20 DUP3 ADD SWAP1 POP SWAP2 SWAP1 POP JUMP JUMPDEST PUSH1 0x0 PUSH1 0x20 DUP3 ADD SWAP1 POP DUP2 DUP2 SUB PUSH1 0x0 DUP4 ADD MSTORE PUSH2 0x1C11 DUP2 PUSH2 0x1BD5 JUMP JUMPDEST SWAP1 POP SWAP2 SWAP1 POP JUMP JUMPDEST PUSH32 0x596F757220636F6E747269627574696F6E20746F20746869732070726F6A6563 PUSH1 0x0 DUP3 ADD MSTORE PUSH32 0x7420697320302100000000000000000000000000000000000000000000000000 PUSH1 0x20 DUP3 ADD MSTORE POP JUMP JUMPDEST PUSH1 0x0 PUSH2 0x1C74 PUSH1 0x27 DUP4 PUSH2 0x1481 JUMP JUMPDEST SWAP2 POP PUSH2 0x1C7F DUP3 PUSH2 0x1C18 JUMP JUMPDEST PUSH1 0x40 DUP3 ADD SWAP1 POP SWAP2 SWAP1 POP JUMP JUMPDEST PUSH1 0x0 PUSH1 0x20 DUP3 ADD SWAP1 POP DUP2 DUP2 SUB PUSH1 0x0 DUP4 ADD MSTORE PUSH2 0x1CA3 DUP2 PUSH2 0x1C67 JUMP JUMPDEST SWAP1 POP SWAP2 SWAP1 POP JUMP JUMPDEST PUSH1 0x0 PUSH2 0x1CB5 DUP3 PUSH2 0x139F JUMP JUMPDEST SWAP2 POP PUSH2 0x1CC0 DUP4 PUSH2 0x139F JUMP JUMPDEST SWAP3 POP DUP3 DUP3 SUB SWAP1 POP DUP2 DUP2 GT ISZERO PUSH2 0x1CD8 JUMPI PUSH2 0x1CD7 PUSH2 0x1B11 JUMP JUMPDEST JUMPDEST SWAP3 SWAP2 POP POP JUMP JUMPDEST PUSH32 0x4E6F204163636573732100000000000000000000000000000000000000000000 PUSH1 0x0 DUP3 ADD MSTORE POP JUMP JUMPDEST PUSH1 0x0 PUSH2 0x1D14 PUSH1 0xA DUP4 PUSH2 0x1481 JUMP JUMPDEST SWAP2 POP PUSH2 0x1D1F DUP3 PUSH2 0x1CDE JUMP JUMPDEST PUSH1 0x20 DUP3 ADD SWAP1 POP SWAP2 SWAP1 POP JUMP JUMPDEST PUSH1 0x0 PUSH1 0x20 DUP3 ADD SWAP1 POP DUP2 DUP2 SUB PUSH1 0x0 DUP4 ADD MSTORE PUSH2 0x1D43 DUP2 PUSH2 0x1D07 JUMP JUMPDEST SWAP1 POP SWAP2 SWAP1 POP JUMP JUMPDEST PUSH32 0x5265717565737420436F6D706C6574656420616C726561647900000000000000 PUSH1 0x0 DUP3 ADD MSTORE POP JUMP JUMPDEST PUSH1 0x0 PUSH2 0x1D80 PUSH1 0x19 DUP4 PUSH2 0x1481 JUMP JUMPDEST SWAP2 POP PUSH2 0x1D8B DUP3 PUSH2 0x1D4A JUMP JUMPDEST PUSH1 0x20 DUP3 ADD SWAP1 POP SWAP2 SWAP1 POP JUMP JUMPDEST PUSH1 0x0 PUSH1 0x20 DUP3 ADD SWAP1 POP DUP2 DUP2 SUB PUSH1 0x0 DUP4 ADD MSTORE PUSH2 0x1DAF DUP2 PUSH2 0x1D73 JUMP JUMPDEST SWAP1 POP SWAP2 SWAP1 POP JUMP JUMPDEST PUSH32 0x4E487B7100000000000000000000000000000000000000000000000000000000 PUSH1 0x0 MSTORE PUSH1 0x12 PUSH1 0x4 MSTORE PUSH1 0x24 PUSH1 0x0 REVERT JUMPDEST PUSH1 0x0 PUSH2 0x1DF0 DUP3 PUSH2 0x139F JUMP JUMPDEST SWAP2 POP PUSH2 0x1DFB DUP4 PUSH2 0x139F JUMP JUMPDEST SWAP3 POP DUP3 PUSH2 0x1E0B JUMPI PUSH2 0x1E0A PUSH2 0x1DB6 JUMP JUMPDEST JUMPDEST DUP3 DUP3 DIV SWAP1 POP SWAP3 SWAP2 POP POP JUMP JUMPDEST PUSH32 0x566F74652070657263656E74616765206973206C657373207468616E20353025 PUSH1 0x0 DUP3 ADD MSTORE PUSH32 0x2063616E6E6F742077697468647261772066756E640000000000000000000000 PUSH1 0x20 DUP3 ADD MSTORE POP JUMP JUMPDEST PUSH1 0x0 PUSH2 0x1E72 PUSH1 0x35 DUP4 PUSH2 0x1481 JUMP JUMPDEST SWAP2 POP PUSH2 0x1E7D DUP3 PUSH2 0x1E16 JUMP JUMPDEST PUSH1 0x40 DUP3 ADD SWAP1 POP SWAP2 SWAP1 POP JUMP JUMPDEST PUSH1 0x0 PUSH1 0x20 DUP3 ADD SWAP1 POP DUP2 DUP2 SUB PUSH1 0x0 DUP4 ADD MSTORE PUSH2 0x1EA1 DUP2 PUSH2 0x1E65 JUMP JUMPDEST SWAP1 POP SWAP2 SWAP1 POP JUMP JUMPDEST PUSH32 0x4E487B7100000000000000000000000000000000000000000000000000000000 PUSH1 0x0 MSTORE PUSH1 0x22 PUSH1 0x4 MSTORE PUSH1 0x24 PUSH1 0x0 REVERT JUMPDEST PUSH1 0x0 PUSH1 0x2 DUP3 DIV SWAP1 POP PUSH1 0x1 DUP3 AND DUP1 PUSH2 0x1EEF JUMPI PUSH1 0x7F DUP3 AND SWAP2 POP JUMPDEST PUSH1 0x20 DUP3 LT DUP2 SUB PUSH2 0x1F02 JUMPI PUSH2 0x1F01 PUSH2 0x1EA8 JUMP JUMPDEST JUMPDEST POP SWAP2 SWAP1 POP JUMP JUMPDEST PUSH1 0x0 DUP2 SWAP1 POP DUP2 PUSH1 0x0 MSTORE PUSH1 0x20 PUSH1 0x0 KECCAK256 SWAP1 POP SWAP2 SWAP1 POP JUMP JUMPDEST PUSH1 0x0 DUP2 SLOAD PUSH2 0x1F2A DUP2 PUSH2 0x1ED7 JUMP JUMPDEST PUSH2 0x1F34 DUP2 DUP7 PUSH2 0x1481 JUMP JUMPDEST SWAP5 POP PUSH1 0x1 DUP3 AND PUSH1 0x0 DUP2 EQ PUSH2 0x1F4F JUMPI PUSH1 0x1 DUP2 EQ PUSH2 0x1F65 JUMPI PUSH2 0x1F98 JUMP JUMPDEST PUSH1 0xFF NOT DUP4 AND DUP7 MSTORE DUP2 ISZERO ISZERO PUSH1 0x20 MUL DUP7 ADD SWAP4 POP PUSH2 0x1F98 JUMP JUMPDEST PUSH2 0x1F6E DUP6 PUSH2 0x1F08 JUMP JUMPDEST PUSH1 0x0 JUMPDEST DUP4 DUP2 LT ISZERO PUSH2 0x1F90 JUMPI DUP2 SLOAD DUP2 DUP10 ADD MSTORE PUSH1 0x1 DUP3 ADD SWAP2 POP PUSH1 0x20 DUP2 ADD SWAP1 POP PUSH2 0x1F71 JUMP JUMPDEST DUP1 DUP9 ADD SWAP6 POP POP POP JUMPDEST POP POP POP SWAP3 SWAP2 POP POP JUMP JUMPDEST PUSH1 0x0 DUP2 SWAP1 POP SWAP2 SWAP1 POP JUMP JUMPDEST PUSH1 0x0 PUSH2 0x1FC6 PUSH2 0x1FC1 PUSH2 0x1FBC DUP5 PUSH2 0x1506 JUMP JUMPDEST PUSH2 0x1FA1 JUMP JUMPDEST PUSH2 0x1506 JUMP JUMPDEST SWAP1 POP SWAP2 SWAP1 POP JUMP JUMPDEST PUSH1 0x0 PUSH2 0x1FD8 DUP3 PUSH2 0x1FAB JUMP JUMPDEST SWAP1 POP SWAP2 SWAP1 POP JUMP JUMPDEST PUSH1 0x0 PUSH2 0x1FEA DUP3 PUSH2 0x1FCD JUMP JUMPDEST SWAP1 POP SWAP2 SWAP1 POP JUMP JUMPDEST PUSH2 0x1FFA DUP2 PUSH2 0x1FDF JUMP JUMPDEST DUP3 MSTORE POP POP JUMP JUMPDEST PUSH1 0x0 PUSH1 0xE0 DUP3 ADD SWAP1 POP PUSH2 0x2015 PUSH1 0x0 DUP4 ADD DUP11 PUSH2 0x13A9 JUMP JUMPDEST DUP2 DUP2 SUB PUSH1 0x20 DUP4 ADD MSTORE PUSH2 0x2027 DUP2 DUP10 PUSH2 0x1F1D JUMP JUMPDEST SWAP1 POP DUP2 DUP2 SUB PUSH1 0x40 DUP4 ADD MSTORE PUSH2 0x203B DUP2 DUP9 PUSH2 0x1F1D JUMP JUMPDEST SWAP1 POP PUSH2 0x204A PUSH1 0x60 DUP4 ADD DUP8 PUSH2 0x13A9 JUMP JUMPDEST PUSH2 0x2057 PUSH1 0x80 DUP4 ADD DUP7 PUSH2 0x13A9 JUMP JUMPDEST PUSH2 0x2064 PUSH1 0xA0 DUP4 ADD DUP6 PUSH2 0x144C JUMP JUMPDEST PUSH2 0x2071 PUSH1 0xC0 DUP4 ADD DUP5 PUSH2 0x1FF1 JUMP JUMPDEST SWAP9 SWAP8 POP POP POP POP POP POP POP POP JUMP JUMPDEST PUSH32 0x43616E6E6F742077697468647261772066756E647320616C6C20726571756573 PUSH1 0x0 DUP3 ADD MSTORE PUSH32 0x7420686173206265656E20636F6D706C65746564000000000000000000000000 PUSH1 0x20 DUP3 ADD MSTORE POP JUMP JUMPDEST PUSH1 0x0 PUSH2 0x20D9 PUSH1 0x34 DUP4 PUSH2 0x1481 JUMP JUMPDEST SWAP2 POP PUSH2 0x20E4 DUP3 PUSH2 0x207D JUMP JUMPDEST PUSH1 0x40 DUP3 ADD SWAP1 POP SWAP2 SWAP1 POP JUMP JUMPDEST PUSH1 0x0 PUSH1 0x20 DUP3 ADD SWAP1 POP DUP2 DUP2 SUB PUSH1 0x0 DUP4 ADD MSTORE PUSH2 0x2108 DUP2 PUSH2 0x20CC JUMP JUMPDEST SWAP1 POP SWAP2 SWAP1 POP JUMP JUMPDEST PUSH1 0x0 PUSH1 0x20 PUSH1 0x1F DUP4 ADD DIV SWAP1 POP SWAP2 SWAP1 POP JUMP JUMPDEST PUSH1 0x0 DUP3 DUP3 SHL SWAP1 POP SWAP3 SWAP2 POP POP JUMP JUMPDEST PUSH1 0x0 PUSH1 0x8 DUP4 MUL PUSH2 0x215C PUSH32 0xFFFFFFFFFFFFFFFFFFFFFFFFFFFFFFFFFFFFFFFFFFFFFFFFFFFFFFFFFFFFFFFF DUP3 PUSH2 0x211F JUMP JUMPDEST PUSH2 0x2166 DUP7 DUP4 PUSH2 0x211F JUMP JUMPDEST SWAP6 POP DUP1 NOT DUP5 AND SWAP4 POP DUP1 DUP7 AND DUP5 OR SWAP3 POP POP POP SWAP4 SWAP3 POP POP POP JUMP JUMPDEST PUSH1 0x0 PUSH2 0x2199 PUSH2 0x2194 PUSH2 0x218F DUP5 PUSH2 0x139F JUMP JUMPDEST PUSH2 0x1FA1 JUMP JUMPDEST PUSH2 0x139F JUMP JUMPDEST SWAP1 POP SWAP2 SWAP1 POP JUMP JUMPDEST PUSH1 0x0 DUP2 SWAP1 POP SWAP2 SWAP1 POP JUMP JUMPDEST PUSH2 0x21B3 DUP4 PUSH2 0x217E JUMP JUMPDEST PUSH2 0x21C7 PUSH2 0x21BF DUP3 PUSH2 0x21A0 JUMP JUMPDEST DUP5 DUP5 SLOAD PUSH2 0x212C JUMP JUMPDEST DUP3 SSTORE POP POP POP POP JUMP JUMPDEST PUSH1 0x0 SWAP1 JUMP JUMPDEST PUSH2 0x21DC PUSH2 0x21CF JUMP JUMPDEST PUSH2 0x21E7 DUP2 DUP5 DUP5 PUSH2 0x21AA JUMP JUMPDEST POP POP POP JUMP JUMPDEST JUMPDEST DUP2 DUP2 LT ISZERO PUSH2 0x220B JUMPI PUSH2 0x2200 PUSH1 0x0 DUP3 PUSH2 0x21D4 JUMP JUMPDEST PUSH1 0x1 DUP2 ADD SWAP1 POP PUSH2 0x21ED JUMP JUMPDEST POP POP JUMP JUMPDEST PUSH1 0x1F DUP3 GT ISZERO PUSH2 0x2250 JUMPI PUSH2 0x2221 DUP2 PUSH2 0x1F08 JUMP JUMPDEST PUSH2 0x222A DUP5 PUSH2 0x210F JUMP JUMPDEST DUP2 ADD PUSH1 0x20 DUP6 LT ISZERO PUSH2 0x2239 JUMPI DUP2 SWAP1 POP JUMPDEST PUSH2 0x224D PUSH2 0x2245 DUP6 PUSH2 0x210F JUMP JUMPDEST DUP4 ADD DUP3 PUSH2 0x21EC JUMP JUMPDEST POP POP JUMPDEST POP POP POP JUMP JUMPDEST PUSH1 0x0 DUP3 DUP3 SHR SWAP1 POP SWAP3 SWAP2 POP POP JUMP JUMPDEST PUSH1 0x0 PUSH2 0x2273 PUSH1 0x0 NOT DUP5 PUSH1 0x8 MUL PUSH2 0x2255 JUMP JUMPDEST NOT DUP1 DUP4 AND SWAP2 POP POP SWAP3 SWAP2 POP POP JUMP JUMPDEST PUSH1 0x0 PUSH2 0x228C DUP4 DUP4 PUSH2 0x2262 JUMP JUMPDEST SWAP2 POP DUP3 PUSH1 0x2 MUL DUP3 OR SWAP1 POP SWAP3 SWAP2 POP POP JUMP JUMPDEST PUSH2 0x22A5 DUP3 PUSH2 0x1476 JUMP JUMPDEST PUSH8 0xFFFFFFFFFFFFFFFF DUP2 GT ISZERO PUSH2 0x22BE JUMPI PUSH2 0x22BD PUSH2 0x1652 JUMP JUMPDEST JUMPDEST PUSH2 0x22C8 DUP3 SLOAD PUSH2 0x1ED7 JUMP JUMPDEST PUSH2 0x22D3 DUP3 DUP3 DUP6 PUSH2 0x220F JUMP JUMPDEST PUSH1 0x0 PUSH1 0x20 SWAP1 POP PUSH1 0x1F DUP4 GT PUSH1 0x1 DUP2 EQ PUSH2 0x2306 JUMPI PUSH1 0x0 DUP5 ISZERO PUSH2 0x22F4 JUMPI DUP3 DUP8 ADD MLOAD SWAP1 POP JUMPDEST PUSH2 0x22FE DUP6 DUP3 PUSH2 0x2280 JUMP JUMPDEST DUP7 SSTORE POP PUSH2 0x2366 JUMP JUMPDEST PUSH1 0x1F NOT DUP5 AND PUSH2 0x2314 DUP7 PUSH2 0x1F08 JUMP JUMPDEST PUSH1 0x0 JUMPDEST DUP3 DUP2 LT ISZERO PUSH2 0x233C JUMPI DUP5 DUP10 ADD MLOAD DUP3 SSTORE PUSH1 0x1 DUP3 ADD SWAP2 POP PUSH1 0x20 DUP6 ADD SWAP5 POP PUSH1 0x20 DUP2 ADD SWAP1 POP PUSH2 0x2317 JUMP JUMPDEST DUP7 DUP4 LT ISZERO PUSH2 0x2359 JUMPI DUP5 DUP10 ADD MLOAD PUSH2 0x2355 PUSH1 0x1F DUP10 AND DUP3 PUSH2 0x2262 JUMP JUMPDEST DUP4 SSTORE POP JUMPDEST PUSH1 0x1 PUSH1 0x2 DUP9 MUL ADD DUP9 SSTORE POP POP POP JUMPDEST POP POP POP POP POP POP JUMP JUMPDEST PUSH1 0x0 DUP2 SWAP1 POP SWAP2 SWAP1 POP JUMP JUMPDEST PUSH1 0x0 PUSH2 0x2393 PUSH2 0x238E PUSH2 0x2389 DUP5 PUSH2 0x236E JUMP JUMPDEST PUSH2 0x1FA1 JUMP JUMPDEST PUSH2 0x139F JUMP JUMPDEST SWAP1 POP SWAP2 SWAP1 POP JUMP JUMPDEST PUSH2 0x23A3 DUP2 PUSH2 0x2378 JUMP JUMPDEST DUP3 MSTORE POP POP JUMP JUMPDEST PUSH1 0x0 PUSH1 0xE0 DUP3 ADD SWAP1 POP PUSH2 0x23BE PUSH1 0x0 DUP4 ADD DUP11 PUSH2 0x13A9 JUMP JUMPDEST DUP2 DUP2 SUB PUSH1 0x20 DUP4 ADD MSTORE PUSH2 0x23D0 DUP2 DUP10 PUSH2 0x14CD JUMP JUMPDEST SWAP1 POP DUP2 DUP2 SUB PUSH1 0x40 DUP4 ADD MSTORE PUSH2 0x23E4 DUP2 DUP9 PUSH2 0x14CD JUMP JUMPDEST SWAP1 POP PUSH2 0x23F3 PUSH1 0x60 DUP4 ADD DUP8 PUSH2 0x13A9 JUMP JUMPDEST PUSH2 0x2400 PUSH1 0x80 DUP4 ADD DUP7 PUSH2 0x239A JUMP JUMPDEST PUSH2 0x240D PUSH1 0xA0 DUP4 ADD DUP6 PUSH2 0x144C JUMP JUMPDEST PUSH2 0x241A PUSH1 0xC0 DUP4 ADD DUP5 PUSH2 0x1FF1 JUMP JUMPDEST SWAP9 SWAP8 POP POP POP POP POP POP POP POP JUMP JUMPDEST PUSH1 0x0 PUSH2 0x2431 DUP3 PUSH2 0x139F JUMP JUMPDEST SWAP2 POP PUSH32 0xFFFFFFFFFFFFFFFFFFFFFFFFFFFFFFFFFFFFFFFFFFFFFFFFFFFFFFFFFFFFFFFF DUP3 SUB PUSH2 0x2463 JUMPI PUSH2 0x2462 PUSH2 0x1B11 JUMP JUMPDEST JUMPDEST PUSH1 0x1 DUP3 ADD SWAP1 POP SWAP2 SWAP1 POP JUMP JUMPDEST PUSH32 0x496E76616C69642053746174652043616E6E6F7420496E7665737420696E2074 PUSH1 0x0 DUP3 ADD MSTORE PUSH32 0x6869732063616D706169676E0000000000000000000000000000000000000000 PUSH1 0x20 DUP3 ADD MSTORE POP JUMP JUMPDEST PUSH1 0x0 PUSH2 0x24CA PUSH1 0x2C DUP4 PUSH2 0x1481 JUMP JUMPDEST SWAP2 POP PUSH2 0x24D5 DUP3 PUSH2 0x246E JUMP JUMPDEST PUSH1 0x40 DUP3 ADD SWAP1 POP SWAP2 SWAP1 POP JUMP JUMPDEST PUSH1 0x0 PUSH1 0x20 DUP3 ADD SWAP1 POP DUP2 DUP2 SUB PUSH1 0x0 DUP4 ADD MSTORE PUSH2 0x24F9 DUP2 PUSH2 0x24BD JUMP JUMPDEST SWAP1 POP SWAP2 SWAP1 POP JUMP JUMPDEST PUSH32 0x446561646C696E65205061737365642100000000000000000000000000000000 PUSH1 0x0 DUP3 ADD MSTORE POP JUMP JUMPDEST PUSH1 0x0 PUSH2 0x2536 PUSH1 0x10 DUP4 PUSH2 0x1481 JUMP JUMPDEST SWAP2 POP PUSH2 0x2541 DUP3 PUSH2 0x2500 JUMP JUMPDEST PUSH1 0x20 DUP3 ADD SWAP1 POP SWAP2 SWAP1 POP JUMP JUMPDEST PUSH1 0x0 PUSH1 0x20 DUP3 ADD SWAP1 POP DUP2 DUP2 SUB PUSH1 0x0 DUP4 ADD MSTORE PUSH2 0x2565 DUP2 PUSH2 0x2529 JUMP JUMPDEST SWAP1 POP SWAP2 SWAP1 POP JUMP JUMPDEST PUSH32 0x436F6E747269627574696F6E20616D6F756E7420746F6F206C6F772021000000 PUSH1 0x0 DUP3 ADD MSTORE POP JUMP JUMPDEST PUSH1 0x0 PUSH2 0x25A2 PUSH1 0x1D DUP4 PUSH2 0x1481 JUMP JUMPDEST SWAP2 POP PUSH2 0x25AD DUP3 PUSH2 0x256C JUMP JUMPDEST PUSH1 0x20 DUP3 ADD SWAP1 POP SWAP2 SWAP1 POP JUMP JUMPDEST PUSH1 0x0 PUSH1 0x20 DUP3 ADD SWAP1 POP DUP2 DUP2 SUB PUSH1 0x0 DUP4 ADD MSTORE PUSH2 0x25D1 DUP2 PUSH2 0x2595 JUMP JUMPDEST SWAP1 POP SWAP2 SWAP1 POP JUMP JUMPDEST PUSH1 0x0 PUSH1 0x60 DUP3 ADD SWAP1 POP PUSH2 0x25ED PUSH1 0x0 DUP4 ADD DUP7 PUSH2 0x1B74 JUMP JUMPDEST PUSH2 0x25FA PUSH1 0x20 DUP4 ADD DUP6 PUSH2 0x13A9 JUMP JUMPDEST PUSH2 0x2607 PUSH1 0x40 DUP4 ADD DUP5 PUSH2 0x13A9 JUMP JUMPDEST SWAP5 SWAP4 POP POP POP POP JUMP INVALID LOG2 PUSH5 0x6970667358 0x22 SLT KECCAK256 PUSH16 0xCDE3B36415D1EA005FFF765E066D66B4 PUSH7 0x51BC9C404D0641 0xF8 DELEGATECALL 0xDC EXTCODECOPY 0x4D EXTCODECOPY 0xDD PUSH5 0x736F6C6343 STOP ADDMOD GT STOP CALLER LOG2 PUSH5 0x6970667358 0x22 SLT KECCAK256 ADD 0xBA 0x4A POP 0x4F CALLDATACOPY 0xBA 0x4C PUSH20 0x583E11C6E2383C254738A302FF5A961AF55B75B4 0x5D PUSH8 0x864736F6C634300 ADDMOD GT STOP CALLER "},"methodIdentifiers":{"CreateFundRequest(string,string,uint256)":"7a7e7a6b","contribute(address)":"73e888fd","createProject(string,string,uint256[],uint256,uint256,uint256)":"588c161b","createRefundRequest()":"5b199475","getProjectBalance()":"9a274fff","getProjectInformation()":"465c2e2f","getTotalProjects()":"812739a2","objectAdd()":"c4612adf","storeAdd(address)":"56eccc1f","withdrawAmount(uint256)":"0562b9f7","withdrawlVoting(uint256)":"7d7b87fe"}}}}}